{"abi":[{"inputs":[],"stateMutability":"nonpayable","type":"constructor"},{"anonymous":false,"inputs":[{"indexed":false,"internalType":"string","name":"","type":"string"},{"components":[{"internalType":"address","name":"owner","type":"address"},{"internalType":"string","name":"title","type":"string"},{"internalType":"string","name":"location","type":"string"},{"internalType":"string","name":"propertyType","type":"string"},{"internalType":"uint256","name":"size","type":"uint256"},{"internalType":"uint8","name":"bedrooms","type":"uint8"},{"internalType":"uint8","name":"bathrooms","type":"uint8"},{"internalType":"string","name":"description","type":"string"},{"internalType":"uint256","name":"price","type":"uint256"},{"internalType":"bool","name":"status","type":"bool"}],"indexed":false,"internalType":"struct PropertyDetails","name":"","type":"tuple"}],"name":"Log","type":"event"},{"inputs":[{"internalType":"uint256","name":"_propertyIndex","type":"uint256"}],"name":"buyProperty","outputs":[],"stateMutability":"payable","type":"function"},{"inputs":[],"name":"getAllProperties","outputs":[{"components":[{"internalType":"address","name":"owner","type":"address"},{"internalType":"string","name":"title","type":"string"},{"internalType":"string","name":"location","type":"string"},{"internalType":"string","name":"propertyType","type":"string"},{"internalType":"uint256","name":"size","type":"uint256"},{"internalType":"uint8","name":"bedrooms","type":"uint8"},{"internalType":"uint8","name":"bathrooms","type":"uint8"},{"internalType":"string","name":"description","type":"string"},{"internalType":"uint256","name":"price","type":"uint256"},{"internalType":"bool","name":"status","type":"bool"}],"internalType":"struct PropertyDetails[]","name":"","type":"tuple[]"}],"stateMutability":"view","type":"function"},{"inputs":[{"internalType":"uint256","name":"_index","type":"uint256"}],"name":"getPropertyByIndex","outputs":[{"components":[{"internalType":"address","name":"owner","type":"address"},{"internalType":"string","name":"title","type":"string"},{"internalType":"string","name":"location","type":"string"},{"internalType":"string","name":"propertyType","type":"string"},{"internalType":"uint256","name":"size","type":"uint256"},{"internalType":"uint8","name":"bedrooms","type":"uint8"},{"internalType":"uint8","name":"bathrooms","type":"uint8"},{"internalType":"string","name":"description","type":"string"},{"internalType":"uint256","name":"price","type":"uint256"},{"internalType":"bool","name":"status","type":"bool"}],"internalType":"struct PropertyDetails","name":"","type":"tuple"}],"stateMutability":"view","type":"function"},{"inputs":[],"name":"getPropertyCount","outputs":[{"internalType":"uint256","name":"","type":"uint256"}],"stateMutability":"view","type":"function"},{"inputs":[{"internalType":"uint256","name":"_propertyIndex","type":"uint256"}],"name":"getPropertyOwner","outputs":[{"internalType":"address","name":"","type":"address"}],"stateMutability":"view","type":"function"},{"inputs":[{"internalType":"string","name":"_title","type":"string"},{"internalType":"string","name":"_location","type":"string"},{"internalType":"string","name":"_propertyType","type":"string"},{"internalType":"uint256","name":"_size","type":"uint256"},{"internalType":"uint8","name":"_bedrooms","type":"uint8"},{"internalType":"uint8","name":"_bathrooms","type":"uint8"},{"internalType":"string","name":"_description","type":"string"},{"internalType":"uint256","name":"_price","type":"uint256"}],"name":"listProperty","outputs":[],"stateMutability":"nonpayable","type":"function"},{"inputs":[],"name":"owner","outputs":[{"internalType":"address","name":"","type":"address"}],"stateMutability":"view","type":"function"},{"inputs":[{"internalType":"uint256","name":"","type":"uint256"}],"name":"properties","outputs":[{"internalType":"address","name":"owner","type":"address"},{"internalType":"string","name":"title","type":"string"},{"internalType":"string","name":"location","type":"string"},{"internalType":"string","name":"propertyType","type":"string"},{"internalType":"uint256","name":"size","type":"uint256"},{"internalType":"uint8","name":"bedrooms","type":"uint8"},{"internalType":"uint8","name":"bathrooms","type":"uint8"},{"internalType":"string","name":"description","type":"string"},{"internalType":"uint256","name":"price","type":"uint256"},{"internalType":"bool","name":"status","type":"bool"}],"stateMutability":"view","type":"function"},{"inputs":[{"internalType":"uint256","name":"_propertyIndex","type":"uint256"},{"internalType":"uint256","name":"_newPrice","type":"uint256"}],"name":"updatePropertyPrice","outputs":[],"stateMutability":"nonpayable","type":"function"},{"inputs":[{"internalType":"uint256","name":"_propertyIndex","type":"uint256"},{"internalType":"bool","name":"_status","type":"bool"}],"name":"updatePropertyStatus","outputs":[],"stateMutability":"nonpayable","type":"function"}],"devdoc":{"kind":"dev","methods":{},"version":1},"evm":{"assembly":"    /* \"PropertyListing.sol\":90:2902  contract PropertyListing {... */\n  mstore(0x40, 0x80)\n    /* \"PropertyListing.sol\":360:409  constructor() {... */\n  callvalue\n  dup1\n  iszero\n  tag_1\n  jumpi\n  0x00\n  dup1\n  revert\ntag_1:\n  pop\n    /* \"PropertyListing.sol\":392:402  msg.sender */\n  caller\n    /* \"PropertyListing.sol\":384:389  owner */\n  0x01\n  0x00\n    /* \"PropertyListing.sol\":384:402  owner = msg.sender */\n  0x0100\n  exp\n  dup2\n  sload\n  dup2\n  0xffffffffffffffffffffffffffffffffffffffff\n  mul\n  not\n  and\n  swap1\n  dup4\n  0xffffffffffffffffffffffffffffffffffffffff\n  and\n  mul\n  or\n  swap1\n  sstore\n  pop\n    /* \"PropertyListing.sol\":90:2902  contract PropertyListing {... */\n  dataSize(sub_0)\n  dup1\n  dataOffset(sub_0)\n  0x00\n  codecopy\n  0x00\n  return\nstop\n\nsub_0: assembly {\n        /* \"PropertyListing.sol\":90:2902  contract PropertyListing {... */\n      mstore(0x40, 0x80)\n      jumpi(tag_1, lt(calldatasize, 0x04))\n      shr(0xe0, calldataload(0x00))\n      dup1\n      0xd41861b3\n      gt\n      tag_12\n      jumpi\n      dup1\n      0xd41861b3\n      eq\n      tag_7\n      jumpi\n      dup1\n      0xe34fc531\n      eq\n      tag_8\n      jumpi\n      dup1\n      0xec50f185\n      eq\n      tag_9\n      jumpi\n      dup1\n      0xf7b10808\n      eq\n      tag_10\n      jumpi\n      dup1\n      0xfce401b2\n      eq\n      tag_11\n      jumpi\n      jump(tag_1)\n    tag_12:\n      dup1\n      0x3d51402c\n      eq\n      tag_2\n      jumpi\n      dup1\n      0x6fa830a6\n      eq\n      tag_3\n      jumpi\n      dup1\n      0x7326b901\n      eq\n      tag_4\n      jumpi\n      dup1\n      0x8da5cb5b\n      eq\n      tag_5\n      jumpi\n      dup1\n      0x9c0c891f\n      eq\n      tag_6\n      jumpi\n    tag_1:\n      0x00\n      dup1\n      revert\n        /* \"PropertyListing.sol\":1784:1895  function getAllProperties() external view returns (PropertyDetails[] memory) {... */\n    tag_2:\n      callvalue\n      dup1\n      iszero\n      tag_13\n      jumpi\n      0x00\n      dup1\n      revert\n    tag_13:\n      pop\n      tag_14\n      tag_15\n      jump\t// in\n    tag_14:\n      mload(0x40)\n      tag_16\n      swap2\n      swap1\n      tag_17\n      jump\t// in\n    tag_16:\n      mload(0x40)\n      dup1\n      swap2\n      sub\n      swap1\n      return\n        /* \"PropertyListing.sol\":1176:1778  function buyProperty(uint256 _propertyIndex) public payable {... */\n    tag_3:\n      tag_18\n      0x04\n      dup1\n      calldatasize\n      sub\n      dup2\n      add\n      swap1\n      tag_19\n      swap2\n      swap1\n      tag_20\n      jump\t// in\n    tag_19:\n      tag_21\n      jump\t// in\n    tag_18:\n      stop\n        /* \"PropertyListing.sol\":2111:2212  function getPropertyCount() external view returns (uint256) {... */\n    tag_4:\n      callvalue\n      dup1\n      iszero\n      tag_22\n      jumpi\n      0x00\n      dup1\n      revert\n    tag_22:\n      pop\n      tag_23\n      tag_24\n      jump\t// in\n    tag_23:\n      mload(0x40)\n      tag_25\n      swap2\n      swap1\n      tag_26\n      jump\t// in\n    tag_25:\n      mload(0x40)\n      dup1\n      swap2\n      sub\n      swap1\n      return\n        /* \"PropertyListing.sol\":163:183  address public owner */\n    tag_5:\n      callvalue\n      dup1\n      iszero\n      tag_27\n      jumpi\n      0x00\n      dup1\n      revert\n    tag_27:\n      pop\n      tag_28\n      tag_29\n      jump\t// in\n    tag_28:\n      mload(0x40)\n      tag_30\n      swap2\n      swap1\n      tag_31\n      jump\t// in\n    tag_30:\n      mload(0x40)\n      dup1\n      swap2\n      sub\n      swap1\n      return\n        /* \"PropertyListing.sol\":2453:2677  function updatePropertyStatus(uint256 _propertyIndex, bool _status) public onlyOwner {... */\n    tag_6:\n      callvalue\n      dup1\n      iszero\n      tag_32\n      jumpi\n      0x00\n      dup1\n      revert\n    tag_32:\n      pop\n      tag_33\n      0x04\n      dup1\n      calldatasize\n      sub\n      dup2\n      add\n      swap1\n      tag_34\n      swap2\n      swap1\n      tag_35\n      jump\t// in\n    tag_34:\n      tag_36\n      jump\t// in\n    tag_33:\n      stop\n        /* \"PropertyListing.sol\":1901:2105  function getPropertyByIndex(uint256 _index) external view returns (PropertyDetails memory) {... */\n    tag_7:\n      callvalue\n      dup1\n      iszero\n      tag_37\n      jumpi\n      0x00\n      dup1\n      revert\n    tag_37:\n      pop\n      tag_38\n      0x04\n      dup1\n      calldatasize\n      sub\n      dup2\n      add\n      swap1\n      tag_39\n      swap2\n      swap1\n      tag_20\n      jump\t// in\n    tag_39:\n      tag_40\n      jump\t// in\n    tag_38:\n      mload(0x40)\n      tag_41\n      swap2\n      swap1\n      tag_42\n      jump\t// in\n    tag_41:\n      mload(0x40)\n      dup1\n      swap2\n      sub\n      swap1\n      return\n        /* \"PropertyListing.sol\":2683:2900  function getPropertyOwner(uint256 _propertyIndex) external view returns (address) {... */\n    tag_8:\n      callvalue\n      dup1\n      iszero\n      tag_43\n      jumpi\n      0x00\n      dup1\n      revert\n    tag_43:\n      pop\n      tag_44\n      0x04\n      dup1\n      calldatasize\n      sub\n      dup2\n      add\n      swap1\n      tag_45\n      swap2\n      swap1\n      tag_20\n      jump\t// in\n    tag_45:\n      tag_46\n      jump\t// in\n    tag_44:\n      mload(0x40)\n      tag_47\n      swap2\n      swap1\n      tag_31\n      jump\t// in\n    tag_47:\n      mload(0x40)\n      dup1\n      swap2\n      sub\n      swap1\n      return\n        /* \"PropertyListing.sol\":415:1170  function listProperty(... */\n    tag_9:\n      callvalue\n      dup1\n      iszero\n      tag_48\n      jumpi\n      0x00\n      dup1\n      revert\n    tag_48:\n      pop\n      tag_49\n      0x04\n      dup1\n      calldatasize\n      sub\n      dup2\n      add\n      swap1\n      tag_50\n      swap2\n      swap1\n      tag_51\n      jump\t// in\n    tag_50:\n      tag_52\n      jump\t// in\n    tag_49:\n      stop\n        /* \"PropertyListing.sol\":122:157  PropertyDetails[] public properties */\n    tag_10:\n      callvalue\n      dup1\n      iszero\n      tag_53\n      jumpi\n      0x00\n      dup1\n      revert\n    tag_53:\n      pop\n      tag_54\n      0x04\n      dup1\n      calldatasize\n      sub\n      dup2\n      add\n      swap1\n      tag_55\n      swap2\n      swap1\n      tag_20\n      jump\t// in\n    tag_55:\n      tag_56\n      jump\t// in\n    tag_54:\n      mload(0x40)\n      tag_57\n      swap11\n      swap10\n      swap9\n      swap8\n      swap7\n      swap6\n      swap5\n      swap4\n      swap3\n      swap2\n      swap1\n      tag_58\n      jump\t// in\n    tag_57:\n      mload(0x40)\n      dup1\n      swap2\n      sub\n      swap1\n      return\n        /* \"PropertyListing.sol\":2218:2447  function updatePropertyPrice(uint256 _propertyIndex, uint256 _newPrice) public onlyOwner {... */\n    tag_11:\n      callvalue\n      dup1\n      iszero\n      tag_59\n      jumpi\n      0x00\n      dup1\n      revert\n    tag_59:\n      pop\n      tag_60\n      0x04\n      dup1\n      calldatasize\n      sub\n      dup2\n      add\n      swap1\n      tag_61\n      swap2\n      swap1\n      tag_62\n      jump\t// in\n    tag_61:\n      tag_63\n      jump\t// in\n    tag_60:\n      stop\n        /* \"PropertyListing.sol\":1784:1895  function getAllProperties() external view returns (PropertyDetails[] memory) {... */\n    tag_15:\n        /* \"PropertyListing.sol\":1835:1859  PropertyDetails[] memory */\n      0x60\n        /* \"PropertyListing.sol\":1878:1888  properties */\n      0x00\n        /* \"PropertyListing.sol\":1871:1888  return properties */\n      dup1\n      sload\n      dup1\n      0x20\n      mul\n      0x20\n      add\n      mload(0x40)\n      swap1\n      dup2\n      add\n      0x40\n      mstore\n      dup1\n      swap3\n      swap2\n      swap1\n      dup2\n      dup2\n      mstore\n      0x20\n      add\n      0x00\n      swap1\n    tag_65:\n      dup3\n      dup3\n      lt\n      iszero\n      tag_66\n      jumpi\n      dup4\n      dup3\n      swap1\n      0x00\n      mstore\n      keccak256(0x00, 0x20)\n      swap1\n      0x09\n      mul\n      add\n      mload(0x40)\n      dup1\n      0x0140\n      add\n      0x40\n      mstore\n      swap1\n      dup2\n      0x00\n      dup3\n      add\n      0x00\n      swap1\n      sload\n      swap1\n      0x0100\n      exp\n      swap1\n      div\n      0xffffffffffffffffffffffffffffffffffffffff\n      and\n      0xffffffffffffffffffffffffffffffffffffffff\n      and\n      0xffffffffffffffffffffffffffffffffffffffff\n      and\n      dup2\n      mstore\n      0x20\n      add\n      0x01\n      dup3\n      add\n      dup1\n      sload\n      tag_68\n      swap1\n      tag_69\n      jump\t// in\n    tag_68:\n      dup1\n      0x1f\n      add\n      0x20\n      dup1\n      swap2\n      div\n      mul\n      0x20\n      add\n      mload(0x40)\n      swap1\n      dup2\n      add\n      0x40\n      mstore\n      dup1\n      swap3\n      swap2\n      swap1\n      dup2\n      dup2\n      mstore\n      0x20\n      add\n      dup3\n      dup1\n      sload\n      tag_70\n      swap1\n      tag_69\n      jump\t// in\n    tag_70:\n      dup1\n      iszero\n      tag_71\n      jumpi\n      dup1\n      0x1f\n      lt\n      tag_72\n      jumpi\n      0x0100\n      dup1\n      dup4\n      sload\n      div\n      mul\n      dup4\n      mstore\n      swap2\n      0x20\n      add\n      swap2\n      jump(tag_71)\n    tag_72:\n      dup3\n      add\n      swap2\n      swap1\n      0x00\n      mstore\n      keccak256(0x00, 0x20)\n      swap1\n    tag_73:\n      dup2\n      sload\n      dup2\n      mstore\n      swap1\n      0x01\n      add\n      swap1\n      0x20\n      add\n      dup1\n      dup4\n      gt\n      tag_73\n      jumpi\n      dup3\n      swap1\n      sub\n      0x1f\n      and\n      dup3\n      add\n      swap2\n    tag_71:\n      pop\n      pop\n      pop\n      pop\n      pop\n      dup2\n      mstore\n      0x20\n      add\n      0x02\n      dup3\n      add\n      dup1\n      sload\n      tag_74\n      swap1\n      tag_69\n      jump\t// in\n    tag_74:\n      dup1\n      0x1f\n      add\n      0x20\n      dup1\n      swap2\n      div\n      mul\n      0x20\n      add\n      mload(0x40)\n      swap1\n      dup2\n      add\n      0x40\n      mstore\n      dup1\n      swap3\n      swap2\n      swap1\n      dup2\n      dup2\n      mstore\n      0x20\n      add\n      dup3\n      dup1\n      sload\n      tag_75\n      swap1\n      tag_69\n      jump\t// in\n    tag_75:\n      dup1\n      iszero\n      tag_76\n      jumpi\n      dup1\n      0x1f\n      lt\n      tag_77\n      jumpi\n      0x0100\n      dup1\n      dup4\n      sload\n      div\n      mul\n      dup4\n      mstore\n      swap2\n      0x20\n      add\n      swap2\n      jump(tag_76)\n    tag_77:\n      dup3\n      add\n      swap2\n      swap1\n      0x00\n      mstore\n      keccak256(0x00, 0x20)\n      swap1\n    tag_78:\n      dup2\n      sload\n      dup2\n      mstore\n      swap1\n      0x01\n      add\n      swap1\n      0x20\n      add\n      dup1\n      dup4\n      gt\n      tag_78\n      jumpi\n      dup3\n      swap1\n      sub\n      0x1f\n      and\n      dup3\n      add\n      swap2\n    tag_76:\n      pop\n      pop\n      pop\n      pop\n      pop\n      dup2\n      mstore\n      0x20\n      add\n      0x03\n      dup3\n      add\n      dup1\n      sload\n      tag_79\n      swap1\n      tag_69\n      jump\t// in\n    tag_79:\n      dup1\n      0x1f\n      add\n      0x20\n      dup1\n      swap2\n      div\n      mul\n      0x20\n      add\n      mload(0x40)\n      swap1\n      dup2\n      add\n      0x40\n      mstore\n      dup1\n      swap3\n      swap2\n      swap1\n      dup2\n      dup2\n      mstore\n      0x20\n      add\n      dup3\n      dup1\n      sload\n      tag_80\n      swap1\n      tag_69\n      jump\t// in\n    tag_80:\n      dup1\n      iszero\n      tag_81\n      jumpi\n      dup1\n      0x1f\n      lt\n      tag_82\n      jumpi\n      0x0100\n      dup1\n      dup4\n      sload\n      div\n      mul\n      dup4\n      mstore\n      swap2\n      0x20\n      add\n      swap2\n      jump(tag_81)\n    tag_82:\n      dup3\n      add\n      swap2\n      swap1\n      0x00\n      mstore\n      keccak256(0x00, 0x20)\n      swap1\n    tag_83:\n      dup2\n      sload\n      dup2\n      mstore\n      swap1\n      0x01\n      add\n      swap1\n      0x20\n      add\n      dup1\n      dup4\n      gt\n      tag_83\n      jumpi\n      dup3\n      swap1\n      sub\n      0x1f\n      and\n      dup3\n      add\n      swap2\n    tag_81:\n      pop\n      pop\n      pop\n      pop\n      pop\n      dup2\n      mstore\n      0x20\n      add\n      0x04\n      dup3\n      add\n      sload\n      dup2\n      mstore\n      0x20\n      add\n      0x05\n      dup3\n      add\n      0x00\n      swap1\n      sload\n      swap1\n      0x0100\n      exp\n      swap1\n      div\n      0xff\n      and\n      0xff\n      and\n      0xff\n      and\n      dup2\n      mstore\n      0x20\n      add\n      0x05\n      dup3\n      add\n      0x01\n      swap1\n      sload\n      swap1\n      0x0100\n      exp\n      swap1\n      div\n      0xff\n      and\n      0xff\n      and\n      0xff\n      and\n      dup2\n      mstore\n      0x20\n      add\n      0x06\n      dup3\n      add\n      dup1\n      sload\n      tag_84\n      swap1\n      tag_69\n      jump\t// in\n    tag_84:\n      dup1\n      0x1f\n      add\n      0x20\n      dup1\n      swap2\n      div\n      mul\n      0x20\n      add\n      mload(0x40)\n      swap1\n      dup2\n      add\n      0x40\n      mstore\n      dup1\n      swap3\n      swap2\n      swap1\n      dup2\n      dup2\n      mstore\n      0x20\n      add\n      dup3\n      dup1\n      sload\n      tag_85\n      swap1\n      tag_69\n      jump\t// in\n    tag_85:\n      dup1\n      iszero\n      tag_86\n      jumpi\n      dup1\n      0x1f\n      lt\n      tag_87\n      jumpi\n      0x0100\n      dup1\n      dup4\n      sload\n      div\n      mul\n      dup4\n      mstore\n      swap2\n      0x20\n      add\n      swap2\n      jump(tag_86)\n    tag_87:\n      dup3\n      add\n      swap2\n      swap1\n      0x00\n      mstore\n      keccak256(0x00, 0x20)\n      swap1\n    tag_88:\n      dup2\n      sload\n      dup2\n      mstore\n      swap1\n      0x01\n      add\n      swap1\n      0x20\n      add\n      dup1\n      dup4\n      gt\n      tag_88\n      jumpi\n      dup3\n      swap1\n      sub\n      0x1f\n      and\n      dup3\n      add\n      swap2\n    tag_86:\n      pop\n      pop\n      pop\n      pop\n      pop\n      dup2\n      mstore\n      0x20\n      add\n      0x07\n      dup3\n      add\n      sload\n      dup2\n      mstore\n      0x20\n      add\n      0x08\n      dup3\n      add\n      0x00\n      swap1\n      sload\n      swap1\n      0x0100\n      exp\n      swap1\n      div\n      0xff\n      and\n      iszero\n      iszero\n      iszero\n      iszero\n      dup2\n      mstore\n      pop\n      pop\n      dup2\n      mstore\n      0x20\n      add\n      swap1\n      0x01\n      add\n      swap1\n      jump(tag_65)\n    tag_66:\n      pop\n      pop\n      pop\n      pop\n      swap1\n      pop\n        /* \"PropertyListing.sol\":1784:1895  function getAllProperties() external view returns (PropertyDetails[] memory) {... */\n      swap1\n      jump\t// out\n        /* \"PropertyListing.sol\":1176:1778  function buyProperty(uint256 _propertyIndex) public payable {... */\n    tag_21:\n        /* \"PropertyListing.sol\":1271:1281  properties */\n      0x00\n        /* \"PropertyListing.sol\":1271:1288  properties.length */\n      dup1\n      sload\n      swap1\n      pop\n        /* \"PropertyListing.sol\":1254:1268  _propertyIndex */\n      dup2\n        /* \"PropertyListing.sol\":1254:1288  _propertyIndex < properties.length */\n      lt\n        /* \"PropertyListing.sol\":1246:1315  require(_propertyIndex < properties.length, \"Invalid property index\") */\n      tag_90\n      jumpi\n      mload(0x40)\n      0x08c379a000000000000000000000000000000000000000000000000000000000\n      dup2\n      mstore\n      0x04\n      add\n      tag_91\n      swap1\n      tag_92\n      jump\t// in\n    tag_91:\n      mload(0x40)\n      dup1\n      swap2\n      sub\n      swap1\n      revert\n    tag_90:\n        /* \"PropertyListing.sol\":1325:1357  PropertyDetails storage property */\n      0x00\n        /* \"PropertyListing.sol\":1360:1370  properties */\n      dup1\n        /* \"PropertyListing.sol\":1371:1385  _propertyIndex */\n      dup3\n        /* \"PropertyListing.sol\":1360:1386  properties[_propertyIndex] */\n      dup2\n      sload\n      dup2\n      lt\n      tag_93\n      jumpi\n      tag_94\n      tag_95\n      jump\t// in\n    tag_94:\n    tag_93:\n      swap1\n      0x00\n      mstore\n      keccak256(0x00, 0x20)\n      swap1\n      0x09\n      mul\n      add\n        /* \"PropertyListing.sol\":1325:1386  PropertyDetails storage property = properties[_propertyIndex] */\n      swap1\n      pop\n        /* \"PropertyListing.sol\":1417:1425  property */\n      dup1\n        /* \"PropertyListing.sol\":1417:1431  property.price */\n      0x07\n      add\n      sload\n        /* \"PropertyListing.sol\":1404:1413  msg.value */\n      callvalue\n        /* \"PropertyListing.sol\":1404:1431  msg.value >= property.price */\n      lt\n      iszero\n        /* \"PropertyListing.sol\":1396:1454  require(msg.value >= property.price, \"Insufficient funds\") */\n      tag_97\n      jumpi\n      mload(0x40)\n      0x08c379a000000000000000000000000000000000000000000000000000000000\n      dup2\n      mstore\n      0x04\n      add\n      tag_98\n      swap1\n      tag_99\n      jump\t// in\n    tag_98:\n      mload(0x40)\n      dup1\n      swap2\n      sub\n      swap1\n      revert\n    tag_97:\n        /* \"PropertyListing.sol\":1491:1495  true */\n      0x01\n        /* \"PropertyListing.sol\":1472:1495  property.status == true */\n      iszero\n      iszero\n        /* \"PropertyListing.sol\":1472:1480  property */\n      dup2\n        /* \"PropertyListing.sol\":1472:1487  property.status */\n      0x08\n      add\n      0x00\n      swap1\n      sload\n      swap1\n      0x0100\n      exp\n      swap1\n      div\n      0xff\n      and\n        /* \"PropertyListing.sol\":1472:1495  property.status == true */\n      iszero\n      iszero\n      eq\n        /* \"PropertyListing.sol\":1464:1538  require(property.status == true, \"Property is not available for purchase\") */\n      tag_100\n      jumpi\n      mload(0x40)\n      0x08c379a000000000000000000000000000000000000000000000000000000000\n      dup2\n      mstore\n      0x04\n      add\n      tag_101\n      swap1\n      tag_102\n      jump\t// in\n    tag_101:\n      mload(0x40)\n      dup1\n      swap2\n      sub\n      swap1\n      revert\n    tag_100:\n        /* \"PropertyListing.sol\":1549:1578  address payable previousOwner */\n      0x00\n        /* \"PropertyListing.sol\":1589:1597  property */\n      dup2\n        /* \"PropertyListing.sol\":1589:1603  property.owner */\n      0x00\n      add\n      0x00\n      swap1\n      sload\n      swap1\n      0x0100\n      exp\n      swap1\n      div\n      0xffffffffffffffffffffffffffffffffffffffff\n      and\n        /* \"PropertyListing.sol\":1549:1604  address payable previousOwner = payable(property.owner) */\n      swap1\n      pop\n        /* \"PropertyListing.sol\":1614:1627  previousOwner */\n      dup1\n        /* \"PropertyListing.sol\":1614:1636  previousOwner.transfer */\n      0xffffffffffffffffffffffffffffffffffffffff\n      and\n        /* \"PropertyListing.sol\":1614:1652  previousOwner.transfer(property.price) */\n      0x08fc\n        /* \"PropertyListing.sol\":1637:1645  property */\n      dup4\n        /* \"PropertyListing.sol\":1637:1651  property.price */\n      0x07\n      add\n      sload\n        /* \"PropertyListing.sol\":1614:1652  previousOwner.transfer(property.price) */\n      swap1\n      dup2\n      iszero\n      mul\n      swap1\n      mload(0x40)\n      0x00\n      mload(0x40)\n      dup1\n      dup4\n      sub\n      dup2\n      dup6\n      dup9\n      dup9\n      call\n      swap4\n      pop\n      pop\n      pop\n      pop\n      iszero\n      dup1\n      iszero\n      tag_104\n      jumpi\n      returndatasize\n      0x00\n      dup1\n      returndatacopy\n      revert(0x00, returndatasize)\n    tag_104:\n      pop\n        /* \"PropertyListing.sol\":1680:1690  msg.sender */\n      caller\n        /* \"PropertyListing.sol\":1663:1671  property */\n      dup3\n        /* \"PropertyListing.sol\":1663:1677  property.owner */\n      0x00\n      add\n      0x00\n        /* \"PropertyListing.sol\":1663:1690  property.owner = msg.sender */\n      0x0100\n      exp\n      dup2\n      sload\n      dup2\n      0xffffffffffffffffffffffffffffffffffffffff\n      mul\n      not\n      and\n      swap1\n      dup4\n      0xffffffffffffffffffffffffffffffffffffffff\n      and\n      mul\n      or\n      swap1\n      sstore\n      pop\n        /* \"PropertyListing.sol\":1718:1723  false */\n      0x00\n        /* \"PropertyListing.sol\":1700:1708  property */\n      dup3\n        /* \"PropertyListing.sol\":1700:1715  property.status */\n      0x08\n      add\n      0x00\n        /* \"PropertyListing.sol\":1700:1723  property.status = false */\n      0x0100\n      exp\n      dup2\n      sload\n      dup2\n      0xff\n      mul\n      not\n      and\n      swap1\n      dup4\n      iszero\n      iszero\n      mul\n      or\n      swap1\n      sstore\n      pop\n        /* \"PropertyListing.sol\":1739:1771  Log(\"Property Bought\", property) */\n      0xc269743a66b963335309cec39908827bc3b9b7a90ba11dee190f0b3774efa03a\n        /* \"PropertyListing.sol\":1762:1770  property */\n      dup3\n        /* \"PropertyListing.sol\":1739:1771  Log(\"Property Bought\", property) */\n      mload(0x40)\n      tag_105\n      swap2\n      swap1\n      tag_106\n      jump\t// in\n    tag_105:\n      mload(0x40)\n      dup1\n      swap2\n      sub\n      swap1\n      log1\n        /* \"PropertyListing.sol\":1236:1778  {... */\n      pop\n      pop\n        /* \"PropertyListing.sol\":1176:1778  function buyProperty(uint256 _propertyIndex) public payable {... */\n      pop\n      jump\t// out\n        /* \"PropertyListing.sol\":2111:2212  function getPropertyCount() external view returns (uint256) {... */\n    tag_24:\n        /* \"PropertyListing.sol\":2162:2169  uint256 */\n      0x00\n        /* \"PropertyListing.sol\":2188:2198  properties */\n      dup1\n        /* \"PropertyListing.sol\":2188:2205  properties.length */\n      dup1\n      sload\n      swap1\n      pop\n        /* \"PropertyListing.sol\":2181:2205  return properties.length */\n      swap1\n      pop\n        /* \"PropertyListing.sol\":2111:2212  function getPropertyCount() external view returns (uint256) {... */\n      swap1\n      jump\t// out\n        /* \"PropertyListing.sol\":163:183  address public owner */\n    tag_29:\n      0x01\n      0x00\n      swap1\n      sload\n      swap1\n      0x0100\n      exp\n      swap1\n      div\n      0xffffffffffffffffffffffffffffffffffffffff\n      and\n      dup2\n      jump\t// out\n        /* \"PropertyListing.sol\":2453:2677  function updatePropertyStatus(uint256 _propertyIndex, bool _status) public onlyOwner {... */\n    tag_36:\n        /* \"PropertyListing.sol\":284:289  owner */\n      0x01\n      0x00\n      swap1\n      sload\n      swap1\n      0x0100\n      exp\n      swap1\n      div\n      0xffffffffffffffffffffffffffffffffffffffff\n      and\n        /* \"PropertyListing.sol\":270:289  msg.sender == owner */\n      0xffffffffffffffffffffffffffffffffffffffff\n      and\n        /* \"PropertyListing.sol\":270:280  msg.sender */\n      caller\n        /* \"PropertyListing.sol\":270:289  msg.sender == owner */\n      0xffffffffffffffffffffffffffffffffffffffff\n      and\n      eq\n        /* \"PropertyListing.sol\":262:336  require(msg.sender == owner, \"Only contract owner can call this function\") */\n      tag_109\n      jumpi\n      mload(0x40)\n      0x08c379a000000000000000000000000000000000000000000000000000000000\n      dup2\n      mstore\n      0x04\n      add\n      tag_110\n      swap1\n      tag_111\n      jump\t// in\n    tag_110:\n      mload(0x40)\n      dup1\n      swap2\n      sub\n      swap1\n      revert\n    tag_109:\n        /* \"PropertyListing.sol\":2573:2583  properties */\n      0x00\n        /* \"PropertyListing.sol\":2573:2590  properties.length */\n      dup1\n      sload\n      swap1\n      pop\n        /* \"PropertyListing.sol\":2556:2570  _propertyIndex */\n      dup3\n        /* \"PropertyListing.sol\":2556:2590  _propertyIndex < properties.length */\n      lt\n        /* \"PropertyListing.sol\":2548:2617  require(_propertyIndex < properties.length, \"Invalid property index\") */\n      tag_113\n      jumpi\n      mload(0x40)\n      0x08c379a000000000000000000000000000000000000000000000000000000000\n      dup2\n      mstore\n      0x04\n      add\n      tag_114\n      swap1\n      tag_92\n      jump\t// in\n    tag_114:\n      mload(0x40)\n      dup1\n      swap2\n      sub\n      swap1\n      revert\n    tag_113:\n        /* \"PropertyListing.sol\":2663:2670  _status */\n      dup1\n        /* \"PropertyListing.sol\":2627:2637  properties */\n      0x00\n        /* \"PropertyListing.sol\":2638:2652  _propertyIndex */\n      dup4\n        /* \"PropertyListing.sol\":2627:2653  properties[_propertyIndex] */\n      dup2\n      sload\n      dup2\n      lt\n      tag_115\n      jumpi\n      tag_116\n      tag_95\n      jump\t// in\n    tag_116:\n    tag_115:\n      swap1\n      0x00\n      mstore\n      keccak256(0x00, 0x20)\n      swap1\n      0x09\n      mul\n      add\n        /* \"PropertyListing.sol\":2627:2660  properties[_propertyIndex].status */\n      0x08\n      add\n      0x00\n        /* \"PropertyListing.sol\":2627:2670  properties[_propertyIndex].status = _status */\n      0x0100\n      exp\n      dup2\n      sload\n      dup2\n      0xff\n      mul\n      not\n      and\n      swap1\n      dup4\n      iszero\n      iszero\n      mul\n      or\n      swap1\n      sstore\n      pop\n        /* \"PropertyListing.sol\":2453:2677  function updatePropertyStatus(uint256 _propertyIndex, bool _status) public onlyOwner {... */\n      pop\n      pop\n      jump\t// out\n        /* \"PropertyListing.sol\":1901:2105  function getPropertyByIndex(uint256 _index) external view returns (PropertyDetails memory) {... */\n    tag_40:\n        /* \"PropertyListing.sol\":1968:1990  PropertyDetails memory */\n      tag_118\n      tag_119\n      jump\t// in\n    tag_118:\n        /* \"PropertyListing.sol\":2019:2029  properties */\n      0x00\n        /* \"PropertyListing.sol\":2019:2036  properties.length */\n      dup1\n      sload\n      swap1\n      pop\n        /* \"PropertyListing.sol\":2010:2016  _index */\n      dup3\n        /* \"PropertyListing.sol\":2010:2036  _index < properties.length */\n      lt\n        /* \"PropertyListing.sol\":2002:2063  require(_index < properties.length, \"Invalid property index\") */\n      tag_121\n      jumpi\n      mload(0x40)\n      0x08c379a000000000000000000000000000000000000000000000000000000000\n      dup2\n      mstore\n      0x04\n      add\n      tag_122\n      swap1\n      tag_92\n      jump\t// in\n    tag_122:\n      mload(0x40)\n      dup1\n      swap2\n      sub\n      swap1\n      revert\n    tag_121:\n        /* \"PropertyListing.sol\":2080:2090  properties */\n      0x00\n        /* \"PropertyListing.sol\":2091:2097  _index */\n      dup3\n        /* \"PropertyListing.sol\":2080:2098  properties[_index] */\n      dup2\n      sload\n      dup2\n      lt\n      tag_123\n      jumpi\n      tag_124\n      tag_95\n      jump\t// in\n    tag_124:\n    tag_123:\n      swap1\n      0x00\n      mstore\n      keccak256(0x00, 0x20)\n      swap1\n      0x09\n      mul\n      add\n        /* \"PropertyListing.sol\":2073:2098  return properties[_index] */\n      mload(0x40)\n      dup1\n      0x0140\n      add\n      0x40\n      mstore\n      swap1\n      dup2\n      0x00\n      dup3\n      add\n      0x00\n      swap1\n      sload\n      swap1\n      0x0100\n      exp\n      swap1\n      div\n      0xffffffffffffffffffffffffffffffffffffffff\n      and\n      0xffffffffffffffffffffffffffffffffffffffff\n      and\n      0xffffffffffffffffffffffffffffffffffffffff\n      and\n      dup2\n      mstore\n      0x20\n      add\n      0x01\n      dup3\n      add\n      dup1\n      sload\n      tag_126\n      swap1\n      tag_69\n      jump\t// in\n    tag_126:\n      dup1\n      0x1f\n      add\n      0x20\n      dup1\n      swap2\n      div\n      mul\n      0x20\n      add\n      mload(0x40)\n      swap1\n      dup2\n      add\n      0x40\n      mstore\n      dup1\n      swap3\n      swap2\n      swap1\n      dup2\n      dup2\n      mstore\n      0x20\n      add\n      dup3\n      dup1\n      sload\n      tag_127\n      swap1\n      tag_69\n      jump\t// in\n    tag_127:\n      dup1\n      iszero\n      tag_128\n      jumpi\n      dup1\n      0x1f\n      lt\n      tag_129\n      jumpi\n      0x0100\n      dup1\n      dup4\n      sload\n      div\n      mul\n      dup4\n      mstore\n      swap2\n      0x20\n      add\n      swap2\n      jump(tag_128)\n    tag_129:\n      dup3\n      add\n      swap2\n      swap1\n      0x00\n      mstore\n      keccak256(0x00, 0x20)\n      swap1\n    tag_130:\n      dup2\n      sload\n      dup2\n      mstore\n      swap1\n      0x01\n      add\n      swap1\n      0x20\n      add\n      dup1\n      dup4\n      gt\n      tag_130\n      jumpi\n      dup3\n      swap1\n      sub\n      0x1f\n      and\n      dup3\n      add\n      swap2\n    tag_128:\n      pop\n      pop\n      pop\n      pop\n      pop\n      dup2\n      mstore\n      0x20\n      add\n      0x02\n      dup3\n      add\n      dup1\n      sload\n      tag_131\n      swap1\n      tag_69\n      jump\t// in\n    tag_131:\n      dup1\n      0x1f\n      add\n      0x20\n      dup1\n      swap2\n      div\n      mul\n      0x20\n      add\n      mload(0x40)\n      swap1\n      dup2\n      add\n      0x40\n      mstore\n      dup1\n      swap3\n      swap2\n      swap1\n      dup2\n      dup2\n      mstore\n      0x20\n      add\n      dup3\n      dup1\n      sload\n      tag_132\n      swap1\n      tag_69\n      jump\t// in\n    tag_132:\n      dup1\n      iszero\n      tag_133\n      jumpi\n      dup1\n      0x1f\n      lt\n      tag_134\n      jumpi\n      0x0100\n      dup1\n      dup4\n      sload\n      div\n      mul\n      dup4\n      mstore\n      swap2\n      0x20\n      add\n      swap2\n      jump(tag_133)\n    tag_134:\n      dup3\n      add\n      swap2\n      swap1\n      0x00\n      mstore\n      keccak256(0x00, 0x20)\n      swap1\n    tag_135:\n      dup2\n      sload\n      dup2\n      mstore\n      swap1\n      0x01\n      add\n      swap1\n      0x20\n      add\n      dup1\n      dup4\n      gt\n      tag_135\n      jumpi\n      dup3\n      swap1\n      sub\n      0x1f\n      and\n      dup3\n      add\n      swap2\n    tag_133:\n      pop\n      pop\n      pop\n      pop\n      pop\n      dup2\n      mstore\n      0x20\n      add\n      0x03\n      dup3\n      add\n      dup1\n      sload\n      tag_136\n      swap1\n      tag_69\n      jump\t// in\n    tag_136:\n      dup1\n      0x1f\n      add\n      0x20\n      dup1\n      swap2\n      div\n      mul\n      0x20\n      add\n      mload(0x40)\n      swap1\n      dup2\n      add\n      0x40\n      mstore\n      dup1\n      swap3\n      swap2\n      swap1\n      dup2\n      dup2\n      mstore\n      0x20\n      add\n      dup3\n      dup1\n      sload\n      tag_137\n      swap1\n      tag_69\n      jump\t// in\n    tag_137:\n      dup1\n      iszero\n      tag_138\n      jumpi\n      dup1\n      0x1f\n      lt\n      tag_139\n      jumpi\n      0x0100\n      dup1\n      dup4\n      sload\n      div\n      mul\n      dup4\n      mstore\n      swap2\n      0x20\n      add\n      swap2\n      jump(tag_138)\n    tag_139:\n      dup3\n      add\n      swap2\n      swap1\n      0x00\n      mstore\n      keccak256(0x00, 0x20)\n      swap1\n    tag_140:\n      dup2\n      sload\n      dup2\n      mstore\n      swap1\n      0x01\n      add\n      swap1\n      0x20\n      add\n      dup1\n      dup4\n      gt\n      tag_140\n      jumpi\n      dup3\n      swap1\n      sub\n      0x1f\n      and\n      dup3\n      add\n      swap2\n    tag_138:\n      pop\n      pop\n      pop\n      pop\n      pop\n      dup2\n      mstore\n      0x20\n      add\n      0x04\n      dup3\n      add\n      sload\n      dup2\n      mstore\n      0x20\n      add\n      0x05\n      dup3\n      add\n      0x00\n      swap1\n      sload\n      swap1\n      0x0100\n      exp\n      swap1\n      div\n      0xff\n      and\n      0xff\n      and\n      0xff\n      and\n      dup2\n      mstore\n      0x20\n      add\n      0x05\n      dup3\n      add\n      0x01\n      swap1\n      sload\n      swap1\n      0x0100\n      exp\n      swap1\n      div\n      0xff\n      and\n      0xff\n      and\n      0xff\n      and\n      dup2\n      mstore\n      0x20\n      add\n      0x06\n      dup3\n      add\n      dup1\n      sload\n      tag_141\n      swap1\n      tag_69\n      jump\t// in\n    tag_141:\n      dup1\n      0x1f\n      add\n      0x20\n      dup1\n      swap2\n      div\n      mul\n      0x20\n      add\n      mload(0x40)\n      swap1\n      dup2\n      add\n      0x40\n      mstore\n      dup1\n      swap3\n      swap2\n      swap1\n      dup2\n      dup2\n      mstore\n      0x20\n      add\n      dup3\n      dup1\n      sload\n      tag_142\n      swap1\n      tag_69\n      jump\t// in\n    tag_142:\n      dup1\n      iszero\n      tag_143\n      jumpi\n      dup1\n      0x1f\n      lt\n      tag_144\n      jumpi\n      0x0100\n      dup1\n      dup4\n      sload\n      div\n      mul\n      dup4\n      mstore\n      swap2\n      0x20\n      add\n      swap2\n      jump(tag_143)\n    tag_144:\n      dup3\n      add\n      swap2\n      swap1\n      0x00\n      mstore\n      keccak256(0x00, 0x20)\n      swap1\n    tag_145:\n      dup2\n      sload\n      dup2\n      mstore\n      swap1\n      0x01\n      add\n      swap1\n      0x20\n      add\n      dup1\n      dup4\n      gt\n      tag_145\n      jumpi\n      dup3\n      swap1\n      sub\n      0x1f\n      and\n      dup3\n      add\n      swap2\n    tag_143:\n      pop\n      pop\n      pop\n      pop\n      pop\n      dup2\n      mstore\n      0x20\n      add\n      0x07\n      dup3\n      add\n      sload\n      dup2\n      mstore\n      0x20\n      add\n      0x08\n      dup3\n      add\n      0x00\n      swap1\n      sload\n      swap1\n      0x0100\n      exp\n      swap1\n      div\n      0xff\n      and\n      iszero\n      iszero\n      iszero\n      iszero\n      dup2\n      mstore\n      pop\n      pop\n      swap1\n      pop\n        /* \"PropertyListing.sol\":1901:2105  function getPropertyByIndex(uint256 _index) external view returns (PropertyDetails memory) {... */\n      swap2\n      swap1\n      pop\n      jump\t// out\n        /* \"PropertyListing.sol\":2683:2900  function getPropertyOwner(uint256 _propertyIndex) external view returns (address) {... */\n    tag_46:\n        /* \"PropertyListing.sol\":2756:2763  address */\n      0x00\n        /* \"PropertyListing.sol\":2800:2810  properties */\n      dup1\n        /* \"PropertyListing.sol\":2800:2817  properties.length */\n      dup1\n      sload\n      swap1\n      pop\n        /* \"PropertyListing.sol\":2783:2797  _propertyIndex */\n      dup3\n        /* \"PropertyListing.sol\":2783:2817  _propertyIndex < properties.length */\n      lt\n        /* \"PropertyListing.sol\":2775:2844  require(_propertyIndex < properties.length, \"Invalid property index\") */\n      tag_147\n      jumpi\n      mload(0x40)\n      0x08c379a000000000000000000000000000000000000000000000000000000000\n      dup2\n      mstore\n      0x04\n      add\n      tag_148\n      swap1\n      tag_92\n      jump\t// in\n    tag_148:\n      mload(0x40)\n      dup1\n      swap2\n      sub\n      swap1\n      revert\n    tag_147:\n        /* \"PropertyListing.sol\":2861:2871  properties */\n      0x00\n        /* \"PropertyListing.sol\":2872:2886  _propertyIndex */\n      dup3\n        /* \"PropertyListing.sol\":2861:2887  properties[_propertyIndex] */\n      dup2\n      sload\n      dup2\n      lt\n      tag_149\n      jumpi\n      tag_150\n      tag_95\n      jump\t// in\n    tag_150:\n    tag_149:\n      swap1\n      0x00\n      mstore\n      keccak256(0x00, 0x20)\n      swap1\n      0x09\n      mul\n      add\n        /* \"PropertyListing.sol\":2861:2893  properties[_propertyIndex].owner */\n      0x00\n      add\n      0x00\n      swap1\n      sload\n      swap1\n      0x0100\n      exp\n      swap1\n      div\n      0xffffffffffffffffffffffffffffffffffffffff\n      and\n        /* \"PropertyListing.sol\":2854:2893  return properties[_propertyIndex].owner */\n      swap1\n      pop\n        /* \"PropertyListing.sol\":2683:2900  function getPropertyOwner(uint256 _propertyIndex) external view returns (address) {... */\n      swap2\n      swap1\n      pop\n      jump\t// out\n        /* \"PropertyListing.sol\":415:1170  function listProperty(... */\n    tag_52:\n        /* \"PropertyListing.sol\":694:728  PropertyDetails memory newProperty */\n      0x00\n        /* \"PropertyListing.sol\":731:1075  PropertyDetails({... */\n      mload(0x40)\n      dup1\n      0x0140\n      add\n      0x40\n      mstore\n      dup1\n        /* \"PropertyListing.sol\":768:778  msg.sender */\n      caller\n        /* \"PropertyListing.sol\":731:1075  PropertyDetails({... */\n      0xffffffffffffffffffffffffffffffffffffffff\n      and\n      dup2\n      mstore\n      0x20\n      add\n        /* \"PropertyListing.sol\":799:805  _title */\n      dup11\n        /* \"PropertyListing.sol\":731:1075  PropertyDetails({... */\n      dup2\n      mstore\n      0x20\n      add\n        /* \"PropertyListing.sol\":829:838  _location */\n      dup10\n        /* \"PropertyListing.sol\":731:1075  PropertyDetails({... */\n      dup2\n      mstore\n      0x20\n      add\n        /* \"PropertyListing.sol\":866:879  _propertyType */\n      dup9\n        /* \"PropertyListing.sol\":731:1075  PropertyDetails({... */\n      dup2\n      mstore\n      0x20\n      add\n        /* \"PropertyListing.sol\":899:904  _size */\n      dup8\n        /* \"PropertyListing.sol\":731:1075  PropertyDetails({... */\n      dup2\n      mstore\n      0x20\n      add\n        /* \"PropertyListing.sol\":928:937  _bedrooms */\n      dup7\n        /* \"PropertyListing.sol\":731:1075  PropertyDetails({... */\n      0xff\n      and\n      dup2\n      mstore\n      0x20\n      add\n        /* \"PropertyListing.sol\":962:972  _bathrooms */\n      dup6\n        /* \"PropertyListing.sol\":731:1075  PropertyDetails({... */\n      0xff\n      and\n      dup2\n      mstore\n      0x20\n      add\n        /* \"PropertyListing.sol\":999:1011  _description */\n      dup5\n        /* \"PropertyListing.sol\":731:1075  PropertyDetails({... */\n      dup2\n      mstore\n      0x20\n      add\n        /* \"PropertyListing.sol\":1032:1038  _price */\n      dup4\n        /* \"PropertyListing.sol\":731:1075  PropertyDetails({... */\n      dup2\n      mstore\n      0x20\n      add\n        /* \"PropertyListing.sol\":1060:1064  true */\n      0x01\n        /* \"PropertyListing.sol\":731:1075  PropertyDetails({... */\n      iszero\n      iszero\n      dup2\n      mstore\n      pop\n        /* \"PropertyListing.sol\":694:1075  PropertyDetails memory newProperty = PropertyDetails({... */\n      swap1\n      pop\n        /* \"PropertyListing.sol\":1085:1095  properties */\n      0x00\n        /* \"PropertyListing.sol\":1101:1112  newProperty */\n      dup2\n        /* \"PropertyListing.sol\":1085:1113  properties.push(newProperty) */\n      swap1\n      dup1\n      0x01\n      dup2\n      sload\n      add\n      dup1\n      dup3\n      sstore\n      dup1\n      swap2\n      pop\n      pop\n      0x01\n      swap1\n      sub\n      swap1\n      0x00\n      mstore\n      keccak256(0x00, 0x20)\n      swap1\n      0x09\n      mul\n      add\n      0x00\n      swap1\n      swap2\n      swap1\n      swap2\n      swap1\n      swap2\n      pop\n      0x00\n      dup3\n      add\n      mload\n      dup2\n      0x00\n      add\n      exp(0x0100, 0x00)\n      dup2\n      sload\n      dup2\n      0xffffffffffffffffffffffffffffffffffffffff\n      mul\n      not\n      and\n      swap1\n      dup4\n      0xffffffffffffffffffffffffffffffffffffffff\n      and\n      mul\n      or\n      swap1\n      sstore\n      pop\n      0x20\n      dup3\n      add\n      mload\n      dup2\n      0x01\n      add\n      swap1\n      dup2\n      tag_154\n      swap2\n      swap1\n      tag_155\n      jump\t// in\n    tag_154:\n      pop\n      0x40\n      dup3\n      add\n      mload\n      dup2\n      0x02\n      add\n      swap1\n      dup2\n      tag_156\n      swap2\n      swap1\n      tag_155\n      jump\t// in\n    tag_156:\n      pop\n      0x60\n      dup3\n      add\n      mload\n      dup2\n      0x03\n      add\n      swap1\n      dup2\n      tag_157\n      swap2\n      swap1\n      tag_155\n      jump\t// in\n    tag_157:\n      pop\n      0x80\n      dup3\n      add\n      mload\n      dup2\n      0x04\n      add\n      sstore\n      0xa0\n      dup3\n      add\n      mload\n      dup2\n      0x05\n      add\n      exp(0x0100, 0x00)\n      dup2\n      sload\n      dup2\n      0xff\n      mul\n      not\n      and\n      swap1\n      dup4\n      0xff\n      and\n      mul\n      or\n      swap1\n      sstore\n      pop\n      0xc0\n      dup3\n      add\n      mload\n      dup2\n      0x05\n      add\n      exp(0x0100, 0x01)\n      dup2\n      sload\n      dup2\n      0xff\n      mul\n      not\n      and\n      swap1\n      dup4\n      0xff\n      and\n      mul\n      or\n      swap1\n      sstore\n      pop\n      0xe0\n      dup3\n      add\n      mload\n      dup2\n      0x06\n      add\n      swap1\n      dup2\n      tag_158\n      swap2\n      swap1\n      tag_155\n      jump\t// in\n    tag_158:\n      pop\n      0x0100\n      dup3\n      add\n      mload\n      dup2\n      0x07\n      add\n      sstore\n      0x0120\n      dup3\n      add\n      mload\n      dup2\n      0x08\n      add\n      exp(0x0100, 0x00)\n      dup2\n      sload\n      dup2\n      0xff\n      mul\n      not\n      and\n      swap1\n      dup4\n      iszero\n      iszero\n      mul\n      or\n      swap1\n      sstore\n      pop\n      pop\n      pop\n        /* \"PropertyListing.sol\":1128:1163  Log(\"Property Listed\", newProperty) */\n      0xc269743a66b963335309cec39908827bc3b9b7a90ba11dee190f0b3774efa03a\n        /* \"PropertyListing.sol\":1151:1162  newProperty */\n      dup2\n        /* \"PropertyListing.sol\":1128:1163  Log(\"Property Listed\", newProperty) */\n      mload(0x40)\n      tag_159\n      swap2\n      swap1\n      tag_160\n      jump\t// in\n    tag_159:\n      mload(0x40)\n      dup1\n      swap2\n      sub\n      swap1\n      log1\n        /* \"PropertyListing.sol\":684:1170  {... */\n      pop\n        /* \"PropertyListing.sol\":415:1170  function listProperty(... */\n      pop\n      pop\n      pop\n      pop\n      pop\n      pop\n      pop\n      pop\n      jump\t// out\n        /* \"PropertyListing.sol\":122:157  PropertyDetails[] public properties */\n    tag_56:\n      0x00\n      dup2\n      dup2\n      sload\n      dup2\n      lt\n      tag_161\n      jumpi\n      0x00\n      dup1\n      revert\n    tag_161:\n      swap1\n      0x00\n      mstore\n      keccak256(0x00, 0x20)\n      swap1\n      0x09\n      mul\n      add\n      0x00\n      swap2\n      pop\n      swap1\n      pop\n      dup1\n      0x00\n      add\n      0x00\n      swap1\n      sload\n      swap1\n      0x0100\n      exp\n      swap1\n      div\n      0xffffffffffffffffffffffffffffffffffffffff\n      and\n      swap1\n      dup1\n      0x01\n      add\n      dup1\n      sload\n      tag_163\n      swap1\n      tag_69\n      jump\t// in\n    tag_163:\n      dup1\n      0x1f\n      add\n      0x20\n      dup1\n      swap2\n      div\n      mul\n      0x20\n      add\n      mload(0x40)\n      swap1\n      dup2\n      add\n      0x40\n      mstore\n      dup1\n      swap3\n      swap2\n      swap1\n      dup2\n      dup2\n      mstore\n      0x20\n      add\n      dup3\n      dup1\n      sload\n      tag_164\n      swap1\n      tag_69\n      jump\t// in\n    tag_164:\n      dup1\n      iszero\n      tag_165\n      jumpi\n      dup1\n      0x1f\n      lt\n      tag_166\n      jumpi\n      0x0100\n      dup1\n      dup4\n      sload\n      div\n      mul\n      dup4\n      mstore\n      swap2\n      0x20\n      add\n      swap2\n      jump(tag_165)\n    tag_166:\n      dup3\n      add\n      swap2\n      swap1\n      0x00\n      mstore\n      keccak256(0x00, 0x20)\n      swap1\n    tag_167:\n      dup2\n      sload\n      dup2\n      mstore\n      swap1\n      0x01\n      add\n      swap1\n      0x20\n      add\n      dup1\n      dup4\n      gt\n      tag_167\n      jumpi\n      dup3\n      swap1\n      sub\n      0x1f\n      and\n      dup3\n      add\n      swap2\n    tag_165:\n      pop\n      pop\n      pop\n      pop\n      pop\n      swap1\n      dup1\n      0x02\n      add\n      dup1\n      sload\n      tag_168\n      swap1\n      tag_69\n      jump\t// in\n    tag_168:\n      dup1\n      0x1f\n      add\n      0x20\n      dup1\n      swap2\n      div\n      mul\n      0x20\n      add\n      mload(0x40)\n      swap1\n      dup2\n      add\n      0x40\n      mstore\n      dup1\n      swap3\n      swap2\n      swap1\n      dup2\n      dup2\n      mstore\n      0x20\n      add\n      dup3\n      dup1\n      sload\n      tag_169\n      swap1\n      tag_69\n      jump\t// in\n    tag_169:\n      dup1\n      iszero\n      tag_170\n      jumpi\n      dup1\n      0x1f\n      lt\n      tag_171\n      jumpi\n      0x0100\n      dup1\n      dup4\n      sload\n      div\n      mul\n      dup4\n      mstore\n      swap2\n      0x20\n      add\n      swap2\n      jump(tag_170)\n    tag_171:\n      dup3\n      add\n      swap2\n      swap1\n      0x00\n      mstore\n      keccak256(0x00, 0x20)\n      swap1\n    tag_172:\n      dup2\n      sload\n      dup2\n      mstore\n      swap1\n      0x01\n      add\n      swap1\n      0x20\n      add\n      dup1\n      dup4\n      gt\n      tag_172\n      jumpi\n      dup3\n      swap1\n      sub\n      0x1f\n      and\n      dup3\n      add\n      swap2\n    tag_170:\n      pop\n      pop\n      pop\n      pop\n      pop\n      swap1\n      dup1\n      0x03\n      add\n      dup1\n      sload\n      tag_173\n      swap1\n      tag_69\n      jump\t// in\n    tag_173:\n      dup1\n      0x1f\n      add\n      0x20\n      dup1\n      swap2\n      div\n      mul\n      0x20\n      add\n      mload(0x40)\n      swap1\n      dup2\n      add\n      0x40\n      mstore\n      dup1\n      swap3\n      swap2\n      swap1\n      dup2\n      dup2\n      mstore\n      0x20\n      add\n      dup3\n      dup1\n      sload\n      tag_174\n      swap1\n      tag_69\n      jump\t// in\n    tag_174:\n      dup1\n      iszero\n      tag_175\n      jumpi\n      dup1\n      0x1f\n      lt\n      tag_176\n      jumpi\n      0x0100\n      dup1\n      dup4\n      sload\n      div\n      mul\n      dup4\n      mstore\n      swap2\n      0x20\n      add\n      swap2\n      jump(tag_175)\n    tag_176:\n      dup3\n      add\n      swap2\n      swap1\n      0x00\n      mstore\n      keccak256(0x00, 0x20)\n      swap1\n    tag_177:\n      dup2\n      sload\n      dup2\n      mstore\n      swap1\n      0x01\n      add\n      swap1\n      0x20\n      add\n      dup1\n      dup4\n      gt\n      tag_177\n      jumpi\n      dup3\n      swap1\n      sub\n      0x1f\n      and\n      dup3\n      add\n      swap2\n    tag_175:\n      pop\n      pop\n      pop\n      pop\n      pop\n      swap1\n      dup1\n      0x04\n      add\n      sload\n      swap1\n      dup1\n      0x05\n      add\n      0x00\n      swap1\n      sload\n      swap1\n      0x0100\n      exp\n      swap1\n      div\n      0xff\n      and\n      swap1\n      dup1\n      0x05\n      add\n      0x01\n      swap1\n      sload\n      swap1\n      0x0100\n      exp\n      swap1\n      div\n      0xff\n      and\n      swap1\n      dup1\n      0x06\n      add\n      dup1\n      sload\n      tag_178\n      swap1\n      tag_69\n      jump\t// in\n    tag_178:\n      dup1\n      0x1f\n      add\n      0x20\n      dup1\n      swap2\n      div\n      mul\n      0x20\n      add\n      mload(0x40)\n      swap1\n      dup2\n      add\n      0x40\n      mstore\n      dup1\n      swap3\n      swap2\n      swap1\n      dup2\n      dup2\n      mstore\n      0x20\n      add\n      dup3\n      dup1\n      sload\n      tag_179\n      swap1\n      tag_69\n      jump\t// in\n    tag_179:\n      dup1\n      iszero\n      tag_180\n      jumpi\n      dup1\n      0x1f\n      lt\n      tag_181\n      jumpi\n      0x0100\n      dup1\n      dup4\n      sload\n      div\n      mul\n      dup4\n      mstore\n      swap2\n      0x20\n      add\n      swap2\n      jump(tag_180)\n    tag_181:\n      dup3\n      add\n      swap2\n      swap1\n      0x00\n      mstore\n      keccak256(0x00, 0x20)\n      swap1\n    tag_182:\n      dup2\n      sload\n      dup2\n      mstore\n      swap1\n      0x01\n      add\n      swap1\n      0x20\n      add\n      dup1\n      dup4\n      gt\n      tag_182\n      jumpi\n      dup3\n      swap1\n      sub\n      0x1f\n      and\n      dup3\n      add\n      swap2\n    tag_180:\n      pop\n      pop\n      pop\n      pop\n      pop\n      swap1\n      dup1\n      0x07\n      add\n      sload\n      swap1\n      dup1\n      0x08\n      add\n      0x00\n      swap1\n      sload\n      swap1\n      0x0100\n      exp\n      swap1\n      div\n      0xff\n      and\n      swap1\n      pop\n      dup11\n      jump\t// out\n        /* \"PropertyListing.sol\":2218:2447  function updatePropertyPrice(uint256 _propertyIndex, uint256 _newPrice) public onlyOwner {... */\n    tag_63:\n        /* \"PropertyListing.sol\":284:289  owner */\n      0x01\n      0x00\n      swap1\n      sload\n      swap1\n      0x0100\n      exp\n      swap1\n      div\n      0xffffffffffffffffffffffffffffffffffffffff\n      and\n        /* \"PropertyListing.sol\":270:289  msg.sender == owner */\n      0xffffffffffffffffffffffffffffffffffffffff\n      and\n        /* \"PropertyListing.sol\":270:280  msg.sender */\n      caller\n        /* \"PropertyListing.sol\":270:289  msg.sender == owner */\n      0xffffffffffffffffffffffffffffffffffffffff\n      and\n      eq\n        /* \"PropertyListing.sol\":262:336  require(msg.sender == owner, \"Only contract owner can call this function\") */\n      tag_184\n      jumpi\n      mload(0x40)\n      0x08c379a000000000000000000000000000000000000000000000000000000000\n      dup2\n      mstore\n      0x04\n      add\n      tag_185\n      swap1\n      tag_111\n      jump\t// in\n    tag_185:\n      mload(0x40)\n      dup1\n      swap2\n      sub\n      swap1\n      revert\n    tag_184:\n        /* \"PropertyListing.sol\":2342:2352  properties */\n      0x00\n        /* \"PropertyListing.sol\":2342:2359  properties.length */\n      dup1\n      sload\n      swap1\n      pop\n        /* \"PropertyListing.sol\":2325:2339  _propertyIndex */\n      dup3\n        /* \"PropertyListing.sol\":2325:2359  _propertyIndex < properties.length */\n      lt\n        /* \"PropertyListing.sol\":2317:2386  require(_propertyIndex < properties.length, \"Invalid property index\") */\n      tag_187\n      jumpi\n      mload(0x40)\n      0x08c379a000000000000000000000000000000000000000000000000000000000\n      dup2\n      mstore\n      0x04\n      add\n      tag_188\n      swap1\n      tag_92\n      jump\t// in\n    tag_188:\n      mload(0x40)\n      dup1\n      swap2\n      sub\n      swap1\n      revert\n    tag_187:\n        /* \"PropertyListing.sol\":2431:2440  _newPrice */\n      dup1\n        /* \"PropertyListing.sol\":2396:2406  properties */\n      0x00\n        /* \"PropertyListing.sol\":2407:2421  _propertyIndex */\n      dup4\n        /* \"PropertyListing.sol\":2396:2422  properties[_propertyIndex] */\n      dup2\n      sload\n      dup2\n      lt\n      tag_189\n      jumpi\n      tag_190\n      tag_95\n      jump\t// in\n    tag_190:\n    tag_189:\n      swap1\n      0x00\n      mstore\n      keccak256(0x00, 0x20)\n      swap1\n      0x09\n      mul\n      add\n        /* \"PropertyListing.sol\":2396:2428  properties[_propertyIndex].price */\n      0x07\n      add\n        /* \"PropertyListing.sol\":2396:2440  properties[_propertyIndex].price = _newPrice */\n      dup2\n      swap1\n      sstore\n      pop\n        /* \"PropertyListing.sol\":2218:2447  function updatePropertyPrice(uint256 _propertyIndex, uint256 _newPrice) public onlyOwner {... */\n      pop\n      pop\n      jump\t// out\n    tag_119:\n      mload(0x40)\n      dup1\n      0x0140\n      add\n      0x40\n      mstore\n      dup1\n      and(0xffffffffffffffffffffffffffffffffffffffff, 0x00)\n      dup2\n      mstore\n      0x20\n      add\n      0x60\n      dup2\n      mstore\n      0x20\n      add\n      0x60\n      dup2\n      mstore\n      0x20\n      add\n      0x60\n      dup2\n      mstore\n      0x20\n      add\n      0x00\n      dup2\n      mstore\n      0x20\n      add\n      and(0xff, 0x00)\n      dup2\n      mstore\n      0x20\n      add\n      and(0xff, 0x00)\n      dup2\n      mstore\n      0x20\n      add\n      0x60\n      dup2\n      mstore\n      0x20\n      add\n      0x00\n      dup2\n      mstore\n      0x20\n      add\n      iszero(iszero(0x00))\n      dup2\n      mstore\n      pop\n      swap1\n      jump\t// out\n        /* \"#utility.yul\":7:152   */\n    tag_192:\n        /* \"#utility.yul\":105:111   */\n      0x00\n        /* \"#utility.yul\":139:144   */\n      dup2\n        /* \"#utility.yul\":133:145   */\n      mload\n        /* \"#utility.yul\":123:145   */\n      swap1\n      pop\n        /* \"#utility.yul\":7:152   */\n      swap2\n      swap1\n      pop\n      jump\t// out\n        /* \"#utility.yul\":158:373   */\n    tag_193:\n        /* \"#utility.yul\":288:299   */\n      0x00\n        /* \"#utility.yul\":322:328   */\n      dup3\n        /* \"#utility.yul\":317:320   */\n      dup3\n        /* \"#utility.yul\":310:329   */\n      mstore\n        /* \"#utility.yul\":362:366   */\n      0x20\n        /* \"#utility.yul\":357:360   */\n      dup3\n        /* \"#utility.yul\":353:367   */\n      add\n        /* \"#utility.yul\":338:367   */\n      swap1\n      pop\n        /* \"#utility.yul\":158:373   */\n      swap3\n      swap2\n      pop\n      pop\n      jump\t// out\n        /* \"#utility.yul\":379:542   */\n    tag_194:\n        /* \"#utility.yul\":477:481   */\n      0x00\n        /* \"#utility.yul\":500:503   */\n      dup2\n        /* \"#utility.yul\":492:503   */\n      swap1\n      pop\n        /* \"#utility.yul\":530:534   */\n      0x20\n        /* \"#utility.yul\":525:528   */\n      dup3\n        /* \"#utility.yul\":521:535   */\n      add\n        /* \"#utility.yul\":513:535   */\n      swap1\n      pop\n        /* \"#utility.yul\":379:542   */\n      swap2\n      swap1\n      pop\n      jump\t// out\n        /* \"#utility.yul\":548:674   */\n    tag_195:\n        /* \"#utility.yul\":585:592   */\n      0x00\n        /* \"#utility.yul\":625:667   */\n      0xffffffffffffffffffffffffffffffffffffffff\n        /* \"#utility.yul\":618:623   */\n      dup3\n        /* \"#utility.yul\":614:668   */\n      and\n        /* \"#utility.yul\":603:668   */\n      swap1\n      pop\n        /* \"#utility.yul\":548:674   */\n      swap2\n      swap1\n      pop\n      jump\t// out\n        /* \"#utility.yul\":680:776   */\n    tag_196:\n        /* \"#utility.yul\":717:724   */\n      0x00\n        /* \"#utility.yul\":746:770   */\n      tag_285\n        /* \"#utility.yul\":764:769   */\n      dup3\n        /* \"#utility.yul\":746:770   */\n      tag_195\n      jump\t// in\n    tag_285:\n        /* \"#utility.yul\":735:770   */\n      swap1\n      pop\n        /* \"#utility.yul\":680:776   */\n      swap2\n      swap1\n      pop\n      jump\t// out\n        /* \"#utility.yul\":782:890   */\n    tag_197:\n        /* \"#utility.yul\":859:883   */\n      tag_287\n        /* \"#utility.yul\":877:882   */\n      dup2\n        /* \"#utility.yul\":859:883   */\n      tag_196\n      jump\t// in\n    tag_287:\n        /* \"#utility.yul\":854:857   */\n      dup3\n        /* \"#utility.yul\":847:884   */\n      mstore\n        /* \"#utility.yul\":782:890   */\n      pop\n      pop\n      jump\t// out\n        /* \"#utility.yul\":896:995   */\n    tag_198:\n        /* \"#utility.yul\":948:954   */\n      0x00\n        /* \"#utility.yul\":982:987   */\n      dup2\n        /* \"#utility.yul\":976:988   */\n      mload\n        /* \"#utility.yul\":966:988   */\n      swap1\n      pop\n        /* \"#utility.yul\":896:995   */\n      swap2\n      swap1\n      pop\n      jump\t// out\n        /* \"#utility.yul\":1001:1160   */\n    tag_199:\n        /* \"#utility.yul\":1075:1086   */\n      0x00\n        /* \"#utility.yul\":1109:1115   */\n      dup3\n        /* \"#utility.yul\":1104:1107   */\n      dup3\n        /* \"#utility.yul\":1097:1116   */\n      mstore\n        /* \"#utility.yul\":1149:1153   */\n      0x20\n        /* \"#utility.yul\":1144:1147   */\n      dup3\n        /* \"#utility.yul\":1140:1154   */\n      add\n        /* \"#utility.yul\":1125:1154   */\n      swap1\n      pop\n        /* \"#utility.yul\":1001:1160   */\n      swap3\n      swap2\n      pop\n      pop\n      jump\t// out\n        /* \"#utility.yul\":1166:1412   */\n    tag_200:\n        /* \"#utility.yul\":1247:1248   */\n      0x00\n        /* \"#utility.yul\":1257:1370   */\n    tag_291:\n        /* \"#utility.yul\":1271:1277   */\n      dup4\n        /* \"#utility.yul\":1268:1269   */\n      dup2\n        /* \"#utility.yul\":1265:1278   */\n      lt\n        /* \"#utility.yul\":1257:1370   */\n      iszero\n      tag_293\n      jumpi\n        /* \"#utility.yul\":1356:1357   */\n      dup1\n        /* \"#utility.yul\":1351:1354   */\n      dup3\n        /* \"#utility.yul\":1347:1358   */\n      add\n        /* \"#utility.yul\":1341:1359   */\n      mload\n        /* \"#utility.yul\":1337:1338   */\n      dup2\n        /* \"#utility.yul\":1332:1335   */\n      dup5\n        /* \"#utility.yul\":1328:1339   */\n      add\n        /* \"#utility.yul\":1321:1360   */\n      mstore\n        /* \"#utility.yul\":1293:1295   */\n      0x20\n        /* \"#utility.yul\":1290:1291   */\n      dup2\n        /* \"#utility.yul\":1286:1296   */\n      add\n        /* \"#utility.yul\":1281:1296   */\n      swap1\n      pop\n        /* \"#utility.yul\":1257:1370   */\n      jump(tag_291)\n    tag_293:\n        /* \"#utility.yul\":1404:1405   */\n      0x00\n        /* \"#utility.yul\":1395:1401   */\n      dup5\n        /* \"#utility.yul\":1390:1393   */\n      dup5\n        /* \"#utility.yul\":1386:1402   */\n      add\n        /* \"#utility.yul\":1379:1406   */\n      mstore\n        /* \"#utility.yul\":1228:1412   */\n      pop\n        /* \"#utility.yul\":1166:1412   */\n      pop\n      pop\n      pop\n      jump\t// out\n        /* \"#utility.yul\":1418:1520   */\n    tag_201:\n        /* \"#utility.yul\":1459:1465   */\n      0x00\n        /* \"#utility.yul\":1510:1512   */\n      0x1f\n        /* \"#utility.yul\":1506:1513   */\n      not\n        /* \"#utility.yul\":1501:1503   */\n      0x1f\n        /* \"#utility.yul\":1494:1499   */\n      dup4\n        /* \"#utility.yul\":1490:1504   */\n      add\n        /* \"#utility.yul\":1486:1514   */\n      and\n        /* \"#utility.yul\":1476:1514   */\n      swap1\n      pop\n        /* \"#utility.yul\":1418:1520   */\n      swap2\n      swap1\n      pop\n      jump\t// out\n        /* \"#utility.yul\":1526:1883   */\n    tag_202:\n        /* \"#utility.yul\":1604:1607   */\n      0x00\n        /* \"#utility.yul\":1632:1671   */\n      tag_296\n        /* \"#utility.yul\":1665:1670   */\n      dup3\n        /* \"#utility.yul\":1632:1671   */\n      tag_198\n      jump\t// in\n    tag_296:\n        /* \"#utility.yul\":1687:1748   */\n      tag_297\n        /* \"#utility.yul\":1741:1747   */\n      dup2\n        /* \"#utility.yul\":1736:1739   */\n      dup6\n        /* \"#utility.yul\":1687:1748   */\n      tag_199\n      jump\t// in\n    tag_297:\n        /* \"#utility.yul\":1680:1748   */\n      swap4\n      pop\n        /* \"#utility.yul\":1757:1822   */\n      tag_298\n        /* \"#utility.yul\":1815:1821   */\n      dup2\n        /* \"#utility.yul\":1810:1813   */\n      dup6\n        /* \"#utility.yul\":1803:1807   */\n      0x20\n        /* \"#utility.yul\":1796:1801   */\n      dup7\n        /* \"#utility.yul\":1792:1808   */\n      add\n        /* \"#utility.yul\":1757:1822   */\n      tag_200\n      jump\t// in\n    tag_298:\n        /* \"#utility.yul\":1847:1876   */\n      tag_299\n        /* \"#utility.yul\":1869:1875   */\n      dup2\n        /* \"#utility.yul\":1847:1876   */\n      tag_201\n      jump\t// in\n    tag_299:\n        /* \"#utility.yul\":1842:1845   */\n      dup5\n        /* \"#utility.yul\":1838:1877   */\n      add\n        /* \"#utility.yul\":1831:1877   */\n      swap2\n      pop\n        /* \"#utility.yul\":1608:1883   */\n      pop\n        /* \"#utility.yul\":1526:1883   */\n      swap3\n      swap2\n      pop\n      pop\n      jump\t// out\n        /* \"#utility.yul\":1889:1966   */\n    tag_203:\n        /* \"#utility.yul\":1926:1933   */\n      0x00\n        /* \"#utility.yul\":1955:1960   */\n      dup2\n        /* \"#utility.yul\":1944:1960   */\n      swap1\n      pop\n        /* \"#utility.yul\":1889:1966   */\n      swap2\n      swap1\n      pop\n      jump\t// out\n        /* \"#utility.yul\":1972:2080   */\n    tag_204:\n        /* \"#utility.yul\":2049:2073   */\n      tag_302\n        /* \"#utility.yul\":2067:2072   */\n      dup2\n        /* \"#utility.yul\":2049:2073   */\n      tag_203\n      jump\t// in\n    tag_302:\n        /* \"#utility.yul\":2044:2047   */\n      dup3\n        /* \"#utility.yul\":2037:2074   */\n      mstore\n        /* \"#utility.yul\":1972:2080   */\n      pop\n      pop\n      jump\t// out\n        /* \"#utility.yul\":2086:2172   */\n    tag_205:\n        /* \"#utility.yul\":2121:2128   */\n      0x00\n        /* \"#utility.yul\":2161:2165   */\n      0xff\n        /* \"#utility.yul\":2154:2159   */\n      dup3\n        /* \"#utility.yul\":2150:2166   */\n      and\n        /* \"#utility.yul\":2139:2166   */\n      swap1\n      pop\n        /* \"#utility.yul\":2086:2172   */\n      swap2\n      swap1\n      pop\n      jump\t// out\n        /* \"#utility.yul\":2178:2280   */\n    tag_206:\n        /* \"#utility.yul\":2251:2273   */\n      tag_305\n        /* \"#utility.yul\":2267:2272   */\n      dup2\n        /* \"#utility.yul\":2251:2273   */\n      tag_205\n      jump\t// in\n    tag_305:\n        /* \"#utility.yul\":2246:2249   */\n      dup3\n        /* \"#utility.yul\":2239:2274   */\n      mstore\n        /* \"#utility.yul\":2178:2280   */\n      pop\n      pop\n      jump\t// out\n        /* \"#utility.yul\":2286:2376   */\n    tag_207:\n        /* \"#utility.yul\":2320:2327   */\n      0x00\n        /* \"#utility.yul\":2363:2368   */\n      dup2\n        /* \"#utility.yul\":2356:2369   */\n      iszero\n        /* \"#utility.yul\":2349:2370   */\n      iszero\n        /* \"#utility.yul\":2338:2370   */\n      swap1\n      pop\n        /* \"#utility.yul\":2286:2376   */\n      swap2\n      swap1\n      pop\n      jump\t// out\n        /* \"#utility.yul\":2382:2481   */\n    tag_208:\n        /* \"#utility.yul\":2453:2474   */\n      tag_308\n        /* \"#utility.yul\":2468:2473   */\n      dup2\n        /* \"#utility.yul\":2453:2474   */\n      tag_207\n      jump\t// in\n    tag_308:\n        /* \"#utility.yul\":2448:2451   */\n      dup3\n        /* \"#utility.yul\":2441:2475   */\n      mstore\n        /* \"#utility.yul\":2382:2481   */\n      pop\n      pop\n      jump\t// out\n        /* \"#utility.yul\":2543:4785   */\n    tag_209:\n        /* \"#utility.yul\":2664:2667   */\n      0x00\n        /* \"#utility.yul\":2700:2706   */\n      0x0140\n        /* \"#utility.yul\":2695:2698   */\n      dup4\n        /* \"#utility.yul\":2691:2707   */\n      add\n        /* \"#utility.yul\":2790:2794   */\n      0x00\n        /* \"#utility.yul\":2783:2788   */\n      dup4\n        /* \"#utility.yul\":2779:2795   */\n      add\n        /* \"#utility.yul\":2773:2796   */\n      mload\n        /* \"#utility.yul\":2809:2872   */\n      tag_310\n        /* \"#utility.yul\":2866:2870   */\n      0x00\n        /* \"#utility.yul\":2861:2864   */\n      dup7\n        /* \"#utility.yul\":2857:2871   */\n      add\n        /* \"#utility.yul\":2843:2855   */\n      dup3\n        /* \"#utility.yul\":2809:2872   */\n      tag_197\n      jump\t// in\n    tag_310:\n        /* \"#utility.yul\":2717:2882   */\n      pop\n        /* \"#utility.yul\":2965:2969   */\n      0x20\n        /* \"#utility.yul\":2958:2963   */\n      dup4\n        /* \"#utility.yul\":2954:2970   */\n      add\n        /* \"#utility.yul\":2948:2971   */\n      mload\n        /* \"#utility.yul\":3018:3021   */\n      dup5\n        /* \"#utility.yul\":3012:3016   */\n      dup3\n        /* \"#utility.yul\":3008:3022   */\n      sub\n        /* \"#utility.yul\":3001:3005   */\n      0x20\n        /* \"#utility.yul\":2996:2999   */\n      dup7\n        /* \"#utility.yul\":2992:3006   */\n      add\n        /* \"#utility.yul\":2985:3023   */\n      mstore\n        /* \"#utility.yul\":3044:3117   */\n      tag_311\n        /* \"#utility.yul\":3112:3116   */\n      dup3\n        /* \"#utility.yul\":3098:3110   */\n      dup3\n        /* \"#utility.yul\":3044:3117   */\n      tag_202\n      jump\t// in\n    tag_311:\n        /* \"#utility.yul\":3036:3117   */\n      swap2\n      pop\n        /* \"#utility.yul\":2892:3128   */\n      pop\n        /* \"#utility.yul\":3214:3218   */\n      0x40\n        /* \"#utility.yul\":3207:3212   */\n      dup4\n        /* \"#utility.yul\":3203:3219   */\n      add\n        /* \"#utility.yul\":3197:3220   */\n      mload\n        /* \"#utility.yul\":3267:3270   */\n      dup5\n        /* \"#utility.yul\":3261:3265   */\n      dup3\n        /* \"#utility.yul\":3257:3271   */\n      sub\n        /* \"#utility.yul\":3250:3254   */\n      0x40\n        /* \"#utility.yul\":3245:3248   */\n      dup7\n        /* \"#utility.yul\":3241:3255   */\n      add\n        /* \"#utility.yul\":3234:3272   */\n      mstore\n        /* \"#utility.yul\":3293:3366   */\n      tag_312\n        /* \"#utility.yul\":3361:3365   */\n      dup3\n        /* \"#utility.yul\":3347:3359   */\n      dup3\n        /* \"#utility.yul\":3293:3366   */\n      tag_202\n      jump\t// in\n    tag_312:\n        /* \"#utility.yul\":3285:3366   */\n      swap2\n      pop\n        /* \"#utility.yul\":3138:3377   */\n      pop\n        /* \"#utility.yul\":3467:3471   */\n      0x60\n        /* \"#utility.yul\":3460:3465   */\n      dup4\n        /* \"#utility.yul\":3456:3472   */\n      add\n        /* \"#utility.yul\":3450:3473   */\n      mload\n        /* \"#utility.yul\":3520:3523   */\n      dup5\n        /* \"#utility.yul\":3514:3518   */\n      dup3\n        /* \"#utility.yul\":3510:3524   */\n      sub\n        /* \"#utility.yul\":3503:3507   */\n      0x60\n        /* \"#utility.yul\":3498:3501   */\n      dup7\n        /* \"#utility.yul\":3494:3508   */\n      add\n        /* \"#utility.yul\":3487:3525   */\n      mstore\n        /* \"#utility.yul\":3546:3619   */\n      tag_313\n        /* \"#utility.yul\":3614:3618   */\n      dup3\n        /* \"#utility.yul\":3600:3612   */\n      dup3\n        /* \"#utility.yul\":3546:3619   */\n      tag_202\n      jump\t// in\n    tag_313:\n        /* \"#utility.yul\":3538:3619   */\n      swap2\n      pop\n        /* \"#utility.yul\":3387:3630   */\n      pop\n        /* \"#utility.yul\":3712:3716   */\n      0x80\n        /* \"#utility.yul\":3705:3710   */\n      dup4\n        /* \"#utility.yul\":3701:3717   */\n      add\n        /* \"#utility.yul\":3695:3718   */\n      mload\n        /* \"#utility.yul\":3731:3794   */\n      tag_314\n        /* \"#utility.yul\":3788:3792   */\n      0x80\n        /* \"#utility.yul\":3783:3786   */\n      dup7\n        /* \"#utility.yul\":3779:3793   */\n      add\n        /* \"#utility.yul\":3765:3777   */\n      dup3\n        /* \"#utility.yul\":3731:3794   */\n      tag_204\n      jump\t// in\n    tag_314:\n        /* \"#utility.yul\":3640:3804   */\n      pop\n        /* \"#utility.yul\":3890:3894   */\n      0xa0\n        /* \"#utility.yul\":3883:3888   */\n      dup4\n        /* \"#utility.yul\":3879:3895   */\n      add\n        /* \"#utility.yul\":3873:3896   */\n      mload\n        /* \"#utility.yul\":3909:3968   */\n      tag_315\n        /* \"#utility.yul\":3962:3966   */\n      0xa0\n        /* \"#utility.yul\":3957:3960   */\n      dup7\n        /* \"#utility.yul\":3953:3967   */\n      add\n        /* \"#utility.yul\":3939:3951   */\n      dup3\n        /* \"#utility.yul\":3909:3968   */\n      tag_206\n      jump\t// in\n    tag_315:\n        /* \"#utility.yul\":3814:3978   */\n      pop\n        /* \"#utility.yul\":4065:4069   */\n      0xc0\n        /* \"#utility.yul\":4058:4063   */\n      dup4\n        /* \"#utility.yul\":4054:4070   */\n      add\n        /* \"#utility.yul\":4048:4071   */\n      mload\n        /* \"#utility.yul\":4084:4143   */\n      tag_316\n        /* \"#utility.yul\":4137:4141   */\n      0xc0\n        /* \"#utility.yul\":4132:4135   */\n      dup7\n        /* \"#utility.yul\":4128:4142   */\n      add\n        /* \"#utility.yul\":4114:4126   */\n      dup3\n        /* \"#utility.yul\":4084:4143   */\n      tag_206\n      jump\t// in\n    tag_316:\n        /* \"#utility.yul\":3988:4153   */\n      pop\n        /* \"#utility.yul\":4242:4246   */\n      0xe0\n        /* \"#utility.yul\":4235:4240   */\n      dup4\n        /* \"#utility.yul\":4231:4247   */\n      add\n        /* \"#utility.yul\":4225:4248   */\n      mload\n        /* \"#utility.yul\":4295:4298   */\n      dup5\n        /* \"#utility.yul\":4289:4293   */\n      dup3\n        /* \"#utility.yul\":4285:4299   */\n      sub\n        /* \"#utility.yul\":4278:4282   */\n      0xe0\n        /* \"#utility.yul\":4273:4276   */\n      dup7\n        /* \"#utility.yul\":4269:4283   */\n      add\n        /* \"#utility.yul\":4262:4300   */\n      mstore\n        /* \"#utility.yul\":4321:4394   */\n      tag_317\n        /* \"#utility.yul\":4389:4393   */\n      dup3\n        /* \"#utility.yul\":4375:4387   */\n      dup3\n        /* \"#utility.yul\":4321:4394   */\n      tag_202\n      jump\t// in\n    tag_317:\n        /* \"#utility.yul\":4313:4394   */\n      swap2\n      pop\n        /* \"#utility.yul\":4163:4405   */\n      pop\n        /* \"#utility.yul\":4488:4494   */\n      0x0100\n        /* \"#utility.yul\":4481:4486   */\n      dup4\n        /* \"#utility.yul\":4477:4495   */\n      add\n        /* \"#utility.yul\":4471:4496   */\n      mload\n        /* \"#utility.yul\":4509:4574   */\n      tag_318\n        /* \"#utility.yul\":4566:4572   */\n      0x0100\n        /* \"#utility.yul\":4561:4564   */\n      dup7\n        /* \"#utility.yul\":4557:4573   */\n      add\n        /* \"#utility.yul\":4543:4555   */\n      dup3\n        /* \"#utility.yul\":4509:4574   */\n      tag_204\n      jump\t// in\n    tag_318:\n        /* \"#utility.yul\":4415:4584   */\n      pop\n        /* \"#utility.yul\":4668:4674   */\n      0x0120\n        /* \"#utility.yul\":4661:4666   */\n      dup4\n        /* \"#utility.yul\":4657:4675   */\n      add\n        /* \"#utility.yul\":4651:4676   */\n      mload\n        /* \"#utility.yul\":4689:4748   */\n      tag_319\n        /* \"#utility.yul\":4740:4746   */\n      0x0120\n        /* \"#utility.yul\":4735:4738   */\n      dup7\n        /* \"#utility.yul\":4731:4747   */\n      add\n        /* \"#utility.yul\":4717:4729   */\n      dup3\n        /* \"#utility.yul\":4689:4748   */\n      tag_208\n      jump\t// in\n    tag_319:\n        /* \"#utility.yul\":4594:4758   */\n      pop\n        /* \"#utility.yul\":4775:4779   */\n      dup1\n        /* \"#utility.yul\":4768:4779   */\n      swap2\n      pop\n        /* \"#utility.yul\":2669:4785   */\n      pop\n        /* \"#utility.yul\":2543:4785   */\n      swap3\n      swap2\n      pop\n      pop\n      jump\t// out\n        /* \"#utility.yul\":4791:5071   */\n    tag_210:\n        /* \"#utility.yul\":4922:4932   */\n      0x00\n        /* \"#utility.yul\":4957:5065   */\n      tag_321\n        /* \"#utility.yul\":5061:5064   */\n      dup4\n        /* \"#utility.yul\":5053:5059   */\n      dup4\n        /* \"#utility.yul\":4957:5065   */\n      tag_209\n      jump\t// in\n    tag_321:\n        /* \"#utility.yul\":4943:5065   */\n      swap1\n      pop\n        /* \"#utility.yul\":4791:5071   */\n      swap3\n      swap2\n      pop\n      pop\n      jump\t// out\n        /* \"#utility.yul\":5077:5221   */\n    tag_211:\n        /* \"#utility.yul\":5178:5182   */\n      0x00\n        /* \"#utility.yul\":5210:5214   */\n      0x20\n        /* \"#utility.yul\":5205:5208   */\n      dup3\n        /* \"#utility.yul\":5201:5215   */\n      add\n        /* \"#utility.yul\":5193:5215   */\n      swap1\n      pop\n        /* \"#utility.yul\":5077:5221   */\n      swap2\n      swap1\n      pop\n      jump\t// out\n        /* \"#utility.yul\":5287:6446   */\n    tag_212:\n        /* \"#utility.yul\":5468:5471   */\n      0x00\n        /* \"#utility.yul\":5497:5582   */\n      tag_324\n        /* \"#utility.yul\":5576:5581   */\n      dup3\n        /* \"#utility.yul\":5497:5582   */\n      tag_192\n      jump\t// in\n    tag_324:\n        /* \"#utility.yul\":5598:5715   */\n      tag_325\n        /* \"#utility.yul\":5708:5714   */\n      dup2\n        /* \"#utility.yul\":5703:5706   */\n      dup6\n        /* \"#utility.yul\":5598:5715   */\n      tag_193\n      jump\t// in\n    tag_325:\n        /* \"#utility.yul\":5591:5715   */\n      swap4\n      pop\n        /* \"#utility.yul\":5741:5744   */\n      dup4\n        /* \"#utility.yul\":5786:5790   */\n      0x20\n        /* \"#utility.yul\":5778:5784   */\n      dup3\n        /* \"#utility.yul\":5774:5791   */\n      mul\n        /* \"#utility.yul\":5769:5772   */\n      dup6\n        /* \"#utility.yul\":5765:5792   */\n      add\n        /* \"#utility.yul\":5816:5903   */\n      tag_326\n        /* \"#utility.yul\":5897:5902   */\n      dup6\n        /* \"#utility.yul\":5816:5903   */\n      tag_194\n      jump\t// in\n    tag_326:\n        /* \"#utility.yul\":5926:5933   */\n      dup1\n        /* \"#utility.yul\":5957:5958   */\n      0x00\n        /* \"#utility.yul\":5942:6401   */\n    tag_327:\n        /* \"#utility.yul\":5967:5973   */\n      dup6\n        /* \"#utility.yul\":5964:5965   */\n      dup2\n        /* \"#utility.yul\":5961:5974   */\n      lt\n        /* \"#utility.yul\":5942:6401   */\n      iszero\n      tag_329\n      jumpi\n        /* \"#utility.yul\":6038:6047   */\n      dup5\n        /* \"#utility.yul\":6032:6036   */\n      dup5\n        /* \"#utility.yul\":6028:6048   */\n      sub\n        /* \"#utility.yul\":6023:6026   */\n      dup10\n        /* \"#utility.yul\":6016:6049   */\n      mstore\n        /* \"#utility.yul\":6089:6095   */\n      dup2\n        /* \"#utility.yul\":6083:6096   */\n      mload\n        /* \"#utility.yul\":6117:6243   */\n      tag_330\n        /* \"#utility.yul\":6238:6242   */\n      dup6\n        /* \"#utility.yul\":6223:6236   */\n      dup3\n        /* \"#utility.yul\":6117:6243   */\n      tag_210\n      jump\t// in\n    tag_330:\n        /* \"#utility.yul\":6109:6243   */\n      swap5\n      pop\n        /* \"#utility.yul\":6266:6357   */\n      tag_331\n        /* \"#utility.yul\":6350:6356   */\n      dup4\n        /* \"#utility.yul\":6266:6357   */\n      tag_211\n      jump\t// in\n    tag_331:\n        /* \"#utility.yul\":6256:6357   */\n      swap3\n      pop\n        /* \"#utility.yul\":6386:6390   */\n      0x20\n        /* \"#utility.yul\":6381:6384   */\n      dup11\n        /* \"#utility.yul\":6377:6391   */\n      add\n        /* \"#utility.yul\":6370:6391   */\n      swap10\n      pop\n        /* \"#utility.yul\":6002:6401   */\n      pop\n        /* \"#utility.yul\":5989:5990   */\n      0x01\n        /* \"#utility.yul\":5986:5987   */\n      dup2\n        /* \"#utility.yul\":5982:5991   */\n      add\n        /* \"#utility.yul\":5977:5991   */\n      swap1\n      pop\n        /* \"#utility.yul\":5942:6401   */\n      jump(tag_327)\n    tag_329:\n        /* \"#utility.yul\":5946:5960   */\n      pop\n        /* \"#utility.yul\":6417:6421   */\n      dup3\n        /* \"#utility.yul\":6410:6421   */\n      swap8\n      pop\n        /* \"#utility.yul\":6437:6440   */\n      dup8\n        /* \"#utility.yul\":6430:6440   */\n      swap6\n      pop\n        /* \"#utility.yul\":5473:6446   */\n      pop\n      pop\n      pop\n      pop\n      pop\n        /* \"#utility.yul\":5287:6446   */\n      swap3\n      swap2\n      pop\n      pop\n      jump\t// out\n        /* \"#utility.yul\":6452:6949   */\n    tag_17:\n        /* \"#utility.yul\":6657:6661   */\n      0x00\n        /* \"#utility.yul\":6695:6697   */\n      0x20\n        /* \"#utility.yul\":6684:6693   */\n      dup3\n        /* \"#utility.yul\":6680:6698   */\n      add\n        /* \"#utility.yul\":6672:6698   */\n      swap1\n      pop\n        /* \"#utility.yul\":6744:6753   */\n      dup2\n        /* \"#utility.yul\":6738:6742   */\n      dup2\n        /* \"#utility.yul\":6734:6754   */\n      sub\n        /* \"#utility.yul\":6730:6731   */\n      0x00\n        /* \"#utility.yul\":6719:6728   */\n      dup4\n        /* \"#utility.yul\":6715:6732   */\n      add\n        /* \"#utility.yul\":6708:6755   */\n      mstore\n        /* \"#utility.yul\":6772:6942   */\n      tag_333\n        /* \"#utility.yul\":6937:6941   */\n      dup2\n        /* \"#utility.yul\":6928:6934   */\n      dup5\n        /* \"#utility.yul\":6772:6942   */\n      tag_212\n      jump\t// in\n    tag_333:\n        /* \"#utility.yul\":6764:6942   */\n      swap1\n      pop\n        /* \"#utility.yul\":6452:6949   */\n      swap3\n      swap2\n      pop\n      pop\n      jump\t// out\n        /* \"#utility.yul\":6955:7030   */\n    tag_213:\n        /* \"#utility.yul\":6988:6994   */\n      0x00\n        /* \"#utility.yul\":7021:7023   */\n      0x40\n        /* \"#utility.yul\":7015:7024   */\n      mload\n        /* \"#utility.yul\":7005:7024   */\n      swap1\n      pop\n        /* \"#utility.yul\":6955:7030   */\n      swap1\n      jump\t// out\n        /* \"#utility.yul\":7036:7153   */\n    tag_214:\n        /* \"#utility.yul\":7145:7146   */\n      0x00\n        /* \"#utility.yul\":7142:7143   */\n      dup1\n        /* \"#utility.yul\":7135:7147   */\n      revert\n        /* \"#utility.yul\":7159:7276   */\n    tag_215:\n        /* \"#utility.yul\":7268:7269   */\n      0x00\n        /* \"#utility.yul\":7265:7266   */\n      dup1\n        /* \"#utility.yul\":7258:7270   */\n      revert\n        /* \"#utility.yul\":7282:7404   */\n    tag_216:\n        /* \"#utility.yul\":7355:7379   */\n      tag_338\n        /* \"#utility.yul\":7373:7378   */\n      dup2\n        /* \"#utility.yul\":7355:7379   */\n      tag_203\n      jump\t// in\n    tag_338:\n        /* \"#utility.yul\":7348:7353   */\n      dup2\n        /* \"#utility.yul\":7345:7380   */\n      eq\n        /* \"#utility.yul\":7335:7398   */\n      tag_339\n      jumpi\n        /* \"#utility.yul\":7394:7395   */\n      0x00\n        /* \"#utility.yul\":7391:7392   */\n      dup1\n        /* \"#utility.yul\":7384:7396   */\n      revert\n        /* \"#utility.yul\":7335:7398   */\n    tag_339:\n        /* \"#utility.yul\":7282:7404   */\n      pop\n      jump\t// out\n        /* \"#utility.yul\":7410:7549   */\n    tag_217:\n        /* \"#utility.yul\":7456:7461   */\n      0x00\n        /* \"#utility.yul\":7494:7500   */\n      dup2\n        /* \"#utility.yul\":7481:7501   */\n      calldataload\n        /* \"#utility.yul\":7472:7501   */\n      swap1\n      pop\n        /* \"#utility.yul\":7510:7543   */\n      tag_341\n        /* \"#utility.yul\":7537:7542   */\n      dup2\n        /* \"#utility.yul\":7510:7543   */\n      tag_216\n      jump\t// in\n    tag_341:\n        /* \"#utility.yul\":7410:7549   */\n      swap3\n      swap2\n      pop\n      pop\n      jump\t// out\n        /* \"#utility.yul\":7555:7884   */\n    tag_20:\n        /* \"#utility.yul\":7614:7620   */\n      0x00\n        /* \"#utility.yul\":7663:7665   */\n      0x20\n        /* \"#utility.yul\":7651:7660   */\n      dup3\n        /* \"#utility.yul\":7642:7649   */\n      dup5\n        /* \"#utility.yul\":7638:7661   */\n      sub\n        /* \"#utility.yul\":7634:7666   */\n      slt\n        /* \"#utility.yul\":7631:7750   */\n      iszero\n      tag_343\n      jumpi\n        /* \"#utility.yul\":7669:7748   */\n      tag_344\n      tag_214\n      jump\t// in\n    tag_344:\n        /* \"#utility.yul\":7631:7750   */\n    tag_343:\n        /* \"#utility.yul\":7789:7790   */\n      0x00\n        /* \"#utility.yul\":7814:7867   */\n      tag_345\n        /* \"#utility.yul\":7859:7866   */\n      dup5\n        /* \"#utility.yul\":7850:7856   */\n      dup3\n        /* \"#utility.yul\":7839:7848   */\n      dup6\n        /* \"#utility.yul\":7835:7857   */\n      add\n        /* \"#utility.yul\":7814:7867   */\n      tag_217\n      jump\t// in\n    tag_345:\n        /* \"#utility.yul\":7804:7867   */\n      swap2\n      pop\n        /* \"#utility.yul\":7760:7877   */\n      pop\n        /* \"#utility.yul\":7555:7884   */\n      swap3\n      swap2\n      pop\n      pop\n      jump\t// out\n        /* \"#utility.yul\":7890:8008   */\n    tag_218:\n        /* \"#utility.yul\":7977:8001   */\n      tag_347\n        /* \"#utility.yul\":7995:8000   */\n      dup2\n        /* \"#utility.yul\":7977:8001   */\n      tag_203\n      jump\t// in\n    tag_347:\n        /* \"#utility.yul\":7972:7975   */\n      dup3\n        /* \"#utility.yul\":7965:8002   */\n      mstore\n        /* \"#utility.yul\":7890:8008   */\n      pop\n      pop\n      jump\t// out\n        /* \"#utility.yul\":8014:8236   */\n    tag_26:\n        /* \"#utility.yul\":8107:8111   */\n      0x00\n        /* \"#utility.yul\":8145:8147   */\n      0x20\n        /* \"#utility.yul\":8134:8143   */\n      dup3\n        /* \"#utility.yul\":8130:8148   */\n      add\n        /* \"#utility.yul\":8122:8148   */\n      swap1\n      pop\n        /* \"#utility.yul\":8158:8229   */\n      tag_349\n        /* \"#utility.yul\":8226:8227   */\n      0x00\n        /* \"#utility.yul\":8215:8224   */\n      dup4\n        /* \"#utility.yul\":8211:8228   */\n      add\n        /* \"#utility.yul\":8202:8208   */\n      dup5\n        /* \"#utility.yul\":8158:8229   */\n      tag_218\n      jump\t// in\n    tag_349:\n        /* \"#utility.yul\":8014:8236   */\n      swap3\n      swap2\n      pop\n      pop\n      jump\t// out\n        /* \"#utility.yul\":8242:8360   */\n    tag_219:\n        /* \"#utility.yul\":8329:8353   */\n      tag_351\n        /* \"#utility.yul\":8347:8352   */\n      dup2\n        /* \"#utility.yul\":8329:8353   */\n      tag_196\n      jump\t// in\n    tag_351:\n        /* \"#utility.yul\":8324:8327   */\n      dup3\n        /* \"#utility.yul\":8317:8354   */\n      mstore\n        /* \"#utility.yul\":8242:8360   */\n      pop\n      pop\n      jump\t// out\n        /* \"#utility.yul\":8366:8588   */\n    tag_31:\n        /* \"#utility.yul\":8459:8463   */\n      0x00\n        /* \"#utility.yul\":8497:8499   */\n      0x20\n        /* \"#utility.yul\":8486:8495   */\n      dup3\n        /* \"#utility.yul\":8482:8500   */\n      add\n        /* \"#utility.yul\":8474:8500   */\n      swap1\n      pop\n        /* \"#utility.yul\":8510:8581   */\n      tag_353\n        /* \"#utility.yul\":8578:8579   */\n      0x00\n        /* \"#utility.yul\":8567:8576   */\n      dup4\n        /* \"#utility.yul\":8563:8580   */\n      add\n        /* \"#utility.yul\":8554:8560   */\n      dup5\n        /* \"#utility.yul\":8510:8581   */\n      tag_219\n      jump\t// in\n    tag_353:\n        /* \"#utility.yul\":8366:8588   */\n      swap3\n      swap2\n      pop\n      pop\n      jump\t// out\n        /* \"#utility.yul\":8594:8710   */\n    tag_220:\n        /* \"#utility.yul\":8664:8685   */\n      tag_355\n        /* \"#utility.yul\":8679:8684   */\n      dup2\n        /* \"#utility.yul\":8664:8685   */\n      tag_207\n      jump\t// in\n    tag_355:\n        /* \"#utility.yul\":8657:8662   */\n      dup2\n        /* \"#utility.yul\":8654:8686   */\n      eq\n        /* \"#utility.yul\":8644:8704   */\n      tag_356\n      jumpi\n        /* \"#utility.yul\":8700:8701   */\n      0x00\n        /* \"#utility.yul\":8697:8698   */\n      dup1\n        /* \"#utility.yul\":8690:8702   */\n      revert\n        /* \"#utility.yul\":8644:8704   */\n    tag_356:\n        /* \"#utility.yul\":8594:8710   */\n      pop\n      jump\t// out\n        /* \"#utility.yul\":8716:8849   */\n    tag_221:\n        /* \"#utility.yul\":8759:8764   */\n      0x00\n        /* \"#utility.yul\":8797:8803   */\n      dup2\n        /* \"#utility.yul\":8784:8804   */\n      calldataload\n        /* \"#utility.yul\":8775:8804   */\n      swap1\n      pop\n        /* \"#utility.yul\":8813:8843   */\n      tag_358\n        /* \"#utility.yul\":8837:8842   */\n      dup2\n        /* \"#utility.yul\":8813:8843   */\n      tag_220\n      jump\t// in\n    tag_358:\n        /* \"#utility.yul\":8716:8849   */\n      swap3\n      swap2\n      pop\n      pop\n      jump\t// out\n        /* \"#utility.yul\":8855:9323   */\n    tag_35:\n        /* \"#utility.yul\":8920:8926   */\n      0x00\n        /* \"#utility.yul\":8928:8934   */\n      dup1\n        /* \"#utility.yul\":8977:8979   */\n      0x40\n        /* \"#utility.yul\":8965:8974   */\n      dup4\n        /* \"#utility.yul\":8956:8963   */\n      dup6\n        /* \"#utility.yul\":8952:8975   */\n      sub\n        /* \"#utility.yul\":8948:8980   */\n      slt\n        /* \"#utility.yul\":8945:9064   */\n      iszero\n      tag_360\n      jumpi\n        /* \"#utility.yul\":8983:9062   */\n      tag_361\n      tag_214\n      jump\t// in\n    tag_361:\n        /* \"#utility.yul\":8945:9064   */\n    tag_360:\n        /* \"#utility.yul\":9103:9104   */\n      0x00\n        /* \"#utility.yul\":9128:9181   */\n      tag_362\n        /* \"#utility.yul\":9173:9180   */\n      dup6\n        /* \"#utility.yul\":9164:9170   */\n      dup3\n        /* \"#utility.yul\":9153:9162   */\n      dup7\n        /* \"#utility.yul\":9149:9171   */\n      add\n        /* \"#utility.yul\":9128:9181   */\n      tag_217\n      jump\t// in\n    tag_362:\n        /* \"#utility.yul\":9118:9181   */\n      swap3\n      pop\n        /* \"#utility.yul\":9074:9191   */\n      pop\n        /* \"#utility.yul\":9230:9232   */\n      0x20\n        /* \"#utility.yul\":9256:9306   */\n      tag_363\n        /* \"#utility.yul\":9298:9305   */\n      dup6\n        /* \"#utility.yul\":9289:9295   */\n      dup3\n        /* \"#utility.yul\":9278:9287   */\n      dup7\n        /* \"#utility.yul\":9274:9296   */\n      add\n        /* \"#utility.yul\":9256:9306   */\n      tag_221\n      jump\t// in\n    tag_363:\n        /* \"#utility.yul\":9246:9306   */\n      swap2\n      pop\n        /* \"#utility.yul\":9201:9316   */\n      pop\n        /* \"#utility.yul\":8855:9323   */\n      swap3\n      pop\n      swap3\n      swap1\n      pop\n      jump\t// out\n        /* \"#utility.yul\":9385:11637   */\n    tag_222:\n        /* \"#utility.yul\":9516:9519   */\n      0x00\n        /* \"#utility.yul\":9552:9558   */\n      0x0140\n        /* \"#utility.yul\":9547:9550   */\n      dup4\n        /* \"#utility.yul\":9543:9559   */\n      add\n        /* \"#utility.yul\":9642:9646   */\n      0x00\n        /* \"#utility.yul\":9635:9640   */\n      dup4\n        /* \"#utility.yul\":9631:9647   */\n      add\n        /* \"#utility.yul\":9625:9648   */\n      mload\n        /* \"#utility.yul\":9661:9724   */\n      tag_365\n        /* \"#utility.yul\":9718:9722   */\n      0x00\n        /* \"#utility.yul\":9713:9716   */\n      dup7\n        /* \"#utility.yul\":9709:9723   */\n      add\n        /* \"#utility.yul\":9695:9707   */\n      dup3\n        /* \"#utility.yul\":9661:9724   */\n      tag_197\n      jump\t// in\n    tag_365:\n        /* \"#utility.yul\":9569:9734   */\n      pop\n        /* \"#utility.yul\":9817:9821   */\n      0x20\n        /* \"#utility.yul\":9810:9815   */\n      dup4\n        /* \"#utility.yul\":9806:9822   */\n      add\n        /* \"#utility.yul\":9800:9823   */\n      mload\n        /* \"#utility.yul\":9870:9873   */\n      dup5\n        /* \"#utility.yul\":9864:9868   */\n      dup3\n        /* \"#utility.yul\":9860:9874   */\n      sub\n        /* \"#utility.yul\":9853:9857   */\n      0x20\n        /* \"#utility.yul\":9848:9851   */\n      dup7\n        /* \"#utility.yul\":9844:9858   */\n      add\n        /* \"#utility.yul\":9837:9875   */\n      mstore\n        /* \"#utility.yul\":9896:9969   */\n      tag_366\n        /* \"#utility.yul\":9964:9968   */\n      dup3\n        /* \"#utility.yul\":9950:9962   */\n      dup3\n        /* \"#utility.yul\":9896:9969   */\n      tag_202\n      jump\t// in\n    tag_366:\n        /* \"#utility.yul\":9888:9969   */\n      swap2\n      pop\n        /* \"#utility.yul\":9744:9980   */\n      pop\n        /* \"#utility.yul\":10066:10070   */\n      0x40\n        /* \"#utility.yul\":10059:10064   */\n      dup4\n        /* \"#utility.yul\":10055:10071   */\n      add\n        /* \"#utility.yul\":10049:10072   */\n      mload\n        /* \"#utility.yul\":10119:10122   */\n      dup5\n        /* \"#utility.yul\":10113:10117   */\n      dup3\n        /* \"#utility.yul\":10109:10123   */\n      sub\n        /* \"#utility.yul\":10102:10106   */\n      0x40\n        /* \"#utility.yul\":10097:10100   */\n      dup7\n        /* \"#utility.yul\":10093:10107   */\n      add\n        /* \"#utility.yul\":10086:10124   */\n      mstore\n        /* \"#utility.yul\":10145:10218   */\n      tag_367\n        /* \"#utility.yul\":10213:10217   */\n      dup3\n        /* \"#utility.yul\":10199:10211   */\n      dup3\n        /* \"#utility.yul\":10145:10218   */\n      tag_202\n      jump\t// in\n    tag_367:\n        /* \"#utility.yul\":10137:10218   */\n      swap2\n      pop\n        /* \"#utility.yul\":9990:10229   */\n      pop\n        /* \"#utility.yul\":10319:10323   */\n      0x60\n        /* \"#utility.yul\":10312:10317   */\n      dup4\n        /* \"#utility.yul\":10308:10324   */\n      add\n        /* \"#utility.yul\":10302:10325   */\n      mload\n        /* \"#utility.yul\":10372:10375   */\n      dup5\n        /* \"#utility.yul\":10366:10370   */\n      dup3\n        /* \"#utility.yul\":10362:10376   */\n      sub\n        /* \"#utility.yul\":10355:10359   */\n      0x60\n        /* \"#utility.yul\":10350:10353   */\n      dup7\n        /* \"#utility.yul\":10346:10360   */\n      add\n        /* \"#utility.yul\":10339:10377   */\n      mstore\n        /* \"#utility.yul\":10398:10471   */\n      tag_368\n        /* \"#utility.yul\":10466:10470   */\n      dup3\n        /* \"#utility.yul\":10452:10464   */\n      dup3\n        /* \"#utility.yul\":10398:10471   */\n      tag_202\n      jump\t// in\n    tag_368:\n        /* \"#utility.yul\":10390:10471   */\n      swap2\n      pop\n        /* \"#utility.yul\":10239:10482   */\n      pop\n        /* \"#utility.yul\":10564:10568   */\n      0x80\n        /* \"#utility.yul\":10557:10562   */\n      dup4\n        /* \"#utility.yul\":10553:10569   */\n      add\n        /* \"#utility.yul\":10547:10570   */\n      mload\n        /* \"#utility.yul\":10583:10646   */\n      tag_369\n        /* \"#utility.yul\":10640:10644   */\n      0x80\n        /* \"#utility.yul\":10635:10638   */\n      dup7\n        /* \"#utility.yul\":10631:10645   */\n      add\n        /* \"#utility.yul\":10617:10629   */\n      dup3\n        /* \"#utility.yul\":10583:10646   */\n      tag_204\n      jump\t// in\n    tag_369:\n        /* \"#utility.yul\":10492:10656   */\n      pop\n        /* \"#utility.yul\":10742:10746   */\n      0xa0\n        /* \"#utility.yul\":10735:10740   */\n      dup4\n        /* \"#utility.yul\":10731:10747   */\n      add\n        /* \"#utility.yul\":10725:10748   */\n      mload\n        /* \"#utility.yul\":10761:10820   */\n      tag_370\n        /* \"#utility.yul\":10814:10818   */\n      0xa0\n        /* \"#utility.yul\":10809:10812   */\n      dup7\n        /* \"#utility.yul\":10805:10819   */\n      add\n        /* \"#utility.yul\":10791:10803   */\n      dup3\n        /* \"#utility.yul\":10761:10820   */\n      tag_206\n      jump\t// in\n    tag_370:\n        /* \"#utility.yul\":10666:10830   */\n      pop\n        /* \"#utility.yul\":10917:10921   */\n      0xc0\n        /* \"#utility.yul\":10910:10915   */\n      dup4\n        /* \"#utility.yul\":10906:10922   */\n      add\n        /* \"#utility.yul\":10900:10923   */\n      mload\n        /* \"#utility.yul\":10936:10995   */\n      tag_371\n        /* \"#utility.yul\":10989:10993   */\n      0xc0\n        /* \"#utility.yul\":10984:10987   */\n      dup7\n        /* \"#utility.yul\":10980:10994   */\n      add\n        /* \"#utility.yul\":10966:10978   */\n      dup3\n        /* \"#utility.yul\":10936:10995   */\n      tag_206\n      jump\t// in\n    tag_371:\n        /* \"#utility.yul\":10840:11005   */\n      pop\n        /* \"#utility.yul\":11094:11098   */\n      0xe0\n        /* \"#utility.yul\":11087:11092   */\n      dup4\n        /* \"#utility.yul\":11083:11099   */\n      add\n        /* \"#utility.yul\":11077:11100   */\n      mload\n        /* \"#utility.yul\":11147:11150   */\n      dup5\n        /* \"#utility.yul\":11141:11145   */\n      dup3\n        /* \"#utility.yul\":11137:11151   */\n      sub\n        /* \"#utility.yul\":11130:11134   */\n      0xe0\n        /* \"#utility.yul\":11125:11128   */\n      dup7\n        /* \"#utility.yul\":11121:11135   */\n      add\n        /* \"#utility.yul\":11114:11152   */\n      mstore\n        /* \"#utility.yul\":11173:11246   */\n      tag_372\n        /* \"#utility.yul\":11241:11245   */\n      dup3\n        /* \"#utility.yul\":11227:11239   */\n      dup3\n        /* \"#utility.yul\":11173:11246   */\n      tag_202\n      jump\t// in\n    tag_372:\n        /* \"#utility.yul\":11165:11246   */\n      swap2\n      pop\n        /* \"#utility.yul\":11015:11257   */\n      pop\n        /* \"#utility.yul\":11340:11346   */\n      0x0100\n        /* \"#utility.yul\":11333:11338   */\n      dup4\n        /* \"#utility.yul\":11329:11347   */\n      add\n        /* \"#utility.yul\":11323:11348   */\n      mload\n        /* \"#utility.yul\":11361:11426   */\n      tag_373\n        /* \"#utility.yul\":11418:11424   */\n      0x0100\n        /* \"#utility.yul\":11413:11416   */\n      dup7\n        /* \"#utility.yul\":11409:11425   */\n      add\n        /* \"#utility.yul\":11395:11407   */\n      dup3\n        /* \"#utility.yul\":11361:11426   */\n      tag_204\n      jump\t// in\n    tag_373:\n        /* \"#utility.yul\":11267:11436   */\n      pop\n        /* \"#utility.yul\":11520:11526   */\n      0x0120\n        /* \"#utility.yul\":11513:11518   */\n      dup4\n        /* \"#utility.yul\":11509:11527   */\n      add\n        /* \"#utility.yul\":11503:11528   */\n      mload\n        /* \"#utility.yul\":11541:11600   */\n      tag_374\n        /* \"#utility.yul\":11592:11598   */\n      0x0120\n        /* \"#utility.yul\":11587:11590   */\n      dup7\n        /* \"#utility.yul\":11583:11599   */\n      add\n        /* \"#utility.yul\":11569:11581   */\n      dup3\n        /* \"#utility.yul\":11541:11600   */\n      tag_208\n      jump\t// in\n    tag_374:\n        /* \"#utility.yul\":11446:11610   */\n      pop\n        /* \"#utility.yul\":11627:11631   */\n      dup1\n        /* \"#utility.yul\":11620:11631   */\n      swap2\n      pop\n        /* \"#utility.yul\":9521:11637   */\n      pop\n        /* \"#utility.yul\":9385:11637   */\n      swap3\n      swap2\n      pop\n      pop\n      jump\t// out\n        /* \"#utility.yul\":11643:12040   */\n    tag_42:\n        /* \"#utility.yul\":11798:11802   */\n      0x00\n        /* \"#utility.yul\":11836:11838   */\n      0x20\n        /* \"#utility.yul\":11825:11834   */\n      dup3\n        /* \"#utility.yul\":11821:11839   */\n      add\n        /* \"#utility.yul\":11813:11839   */\n      swap1\n      pop\n        /* \"#utility.yul\":11885:11894   */\n      dup2\n        /* \"#utility.yul\":11879:11883   */\n      dup2\n        /* \"#utility.yul\":11875:11895   */\n      sub\n        /* \"#utility.yul\":11871:11872   */\n      0x00\n        /* \"#utility.yul\":11860:11869   */\n      dup4\n        /* \"#utility.yul\":11856:11873   */\n      add\n        /* \"#utility.yul\":11849:11896   */\n      mstore\n        /* \"#utility.yul\":11913:12033   */\n      tag_376\n        /* \"#utility.yul\":12028:12032   */\n      dup2\n        /* \"#utility.yul\":12019:12025   */\n      dup5\n        /* \"#utility.yul\":11913:12033   */\n      tag_222\n      jump\t// in\n    tag_376:\n        /* \"#utility.yul\":11905:12033   */\n      swap1\n      pop\n        /* \"#utility.yul\":11643:12040   */\n      swap3\n      swap2\n      pop\n      pop\n      jump\t// out\n        /* \"#utility.yul\":12046:12163   */\n    tag_223:\n        /* \"#utility.yul\":12155:12156   */\n      0x00\n        /* \"#utility.yul\":12152:12153   */\n      dup1\n        /* \"#utility.yul\":12145:12157   */\n      revert\n        /* \"#utility.yul\":12169:12286   */\n    tag_224:\n        /* \"#utility.yul\":12278:12279   */\n      0x00\n        /* \"#utility.yul\":12275:12276   */\n      dup1\n        /* \"#utility.yul\":12268:12280   */\n      revert\n        /* \"#utility.yul\":12292:12472   */\n    tag_225:\n        /* \"#utility.yul\":12340:12417   */\n      0x4e487b7100000000000000000000000000000000000000000000000000000000\n        /* \"#utility.yul\":12337:12338   */\n      0x00\n        /* \"#utility.yul\":12330:12418   */\n      mstore\n        /* \"#utility.yul\":12437:12441   */\n      0x41\n        /* \"#utility.yul\":12434:12435   */\n      0x04\n        /* \"#utility.yul\":12427:12442   */\n      mstore\n        /* \"#utility.yul\":12461:12465   */\n      0x24\n        /* \"#utility.yul\":12458:12459   */\n      0x00\n        /* \"#utility.yul\":12451:12466   */\n      revert\n        /* \"#utility.yul\":12478:12759   */\n    tag_226:\n        /* \"#utility.yul\":12561:12588   */\n      tag_381\n        /* \"#utility.yul\":12583:12587   */\n      dup3\n        /* \"#utility.yul\":12561:12588   */\n      tag_201\n      jump\t// in\n    tag_381:\n        /* \"#utility.yul\":12553:12559   */\n      dup2\n        /* \"#utility.yul\":12549:12589   */\n      add\n        /* \"#utility.yul\":12691:12697   */\n      dup2\n        /* \"#utility.yul\":12679:12689   */\n      dup2\n        /* \"#utility.yul\":12676:12698   */\n      lt\n        /* \"#utility.yul\":12655:12673   */\n      0xffffffffffffffff\n        /* \"#utility.yul\":12643:12653   */\n      dup3\n        /* \"#utility.yul\":12640:12674   */\n      gt\n        /* \"#utility.yul\":12637:12699   */\n      or\n        /* \"#utility.yul\":12634:12722   */\n      iszero\n      tag_382\n      jumpi\n        /* \"#utility.yul\":12702:12720   */\n      tag_383\n      tag_225\n      jump\t// in\n    tag_383:\n        /* \"#utility.yul\":12634:12722   */\n    tag_382:\n        /* \"#utility.yul\":12742:12752   */\n      dup1\n        /* \"#utility.yul\":12738:12740   */\n      0x40\n        /* \"#utility.yul\":12731:12753   */\n      mstore\n        /* \"#utility.yul\":12521:12759   */\n      pop\n        /* \"#utility.yul\":12478:12759   */\n      pop\n      pop\n      jump\t// out\n        /* \"#utility.yul\":12765:12894   */\n    tag_227:\n        /* \"#utility.yul\":12799:12805   */\n      0x00\n        /* \"#utility.yul\":12826:12846   */\n      tag_385\n      tag_213\n      jump\t// in\n    tag_385:\n        /* \"#utility.yul\":12816:12846   */\n      swap1\n      pop\n        /* \"#utility.yul\":12855:12888   */\n      tag_386\n        /* \"#utility.yul\":12883:12887   */\n      dup3\n        /* \"#utility.yul\":12875:12881   */\n      dup3\n        /* \"#utility.yul\":12855:12888   */\n      tag_226\n      jump\t// in\n    tag_386:\n        /* \"#utility.yul\":12765:12894   */\n      swap2\n      swap1\n      pop\n      jump\t// out\n        /* \"#utility.yul\":12900:13208   */\n    tag_228:\n        /* \"#utility.yul\":12962:12966   */\n      0x00\n        /* \"#utility.yul\":13052:13070   */\n      0xffffffffffffffff\n        /* \"#utility.yul\":13044:13050   */\n      dup3\n        /* \"#utility.yul\":13041:13071   */\n      gt\n        /* \"#utility.yul\":13038:13094   */\n      iszero\n      tag_388\n      jumpi\n        /* \"#utility.yul\":13074:13092   */\n      tag_389\n      tag_225\n      jump\t// in\n    tag_389:\n        /* \"#utility.yul\":13038:13094   */\n    tag_388:\n        /* \"#utility.yul\":13112:13141   */\n      tag_390\n        /* \"#utility.yul\":13134:13140   */\n      dup3\n        /* \"#utility.yul\":13112:13141   */\n      tag_201\n      jump\t// in\n    tag_390:\n        /* \"#utility.yul\":13104:13141   */\n      swap1\n      pop\n        /* \"#utility.yul\":13196:13200   */\n      0x20\n        /* \"#utility.yul\":13190:13194   */\n      dup2\n        /* \"#utility.yul\":13186:13201   */\n      add\n        /* \"#utility.yul\":13178:13201   */\n      swap1\n      pop\n        /* \"#utility.yul\":12900:13208   */\n      swap2\n      swap1\n      pop\n      jump\t// out\n        /* \"#utility.yul\":13214:13360   */\n    tag_229:\n        /* \"#utility.yul\":13311:13317   */\n      dup3\n        /* \"#utility.yul\":13306:13309   */\n      dup2\n        /* \"#utility.yul\":13301:13304   */\n      dup4\n        /* \"#utility.yul\":13288:13318   */\n      calldatacopy\n        /* \"#utility.yul\":13352:13353   */\n      0x00\n        /* \"#utility.yul\":13343:13349   */\n      dup4\n        /* \"#utility.yul\":13338:13341   */\n      dup4\n        /* \"#utility.yul\":13334:13350   */\n      add\n        /* \"#utility.yul\":13327:13354   */\n      mstore\n        /* \"#utility.yul\":13214:13360   */\n      pop\n      pop\n      pop\n      jump\t// out\n        /* \"#utility.yul\":13366:13791   */\n    tag_230:\n        /* \"#utility.yul\":13444:13449   */\n      0x00\n        /* \"#utility.yul\":13469:13535   */\n      tag_393\n        /* \"#utility.yul\":13485:13534   */\n      tag_394\n        /* \"#utility.yul\":13527:13533   */\n      dup5\n        /* \"#utility.yul\":13485:13534   */\n      tag_228\n      jump\t// in\n    tag_394:\n        /* \"#utility.yul\":13469:13535   */\n      tag_227\n      jump\t// in\n    tag_393:\n        /* \"#utility.yul\":13460:13535   */\n      swap1\n      pop\n        /* \"#utility.yul\":13558:13564   */\n      dup3\n        /* \"#utility.yul\":13551:13556   */\n      dup2\n        /* \"#utility.yul\":13544:13565   */\n      mstore\n        /* \"#utility.yul\":13596:13600   */\n      0x20\n        /* \"#utility.yul\":13589:13594   */\n      dup2\n        /* \"#utility.yul\":13585:13601   */\n      add\n        /* \"#utility.yul\":13634:13637   */\n      dup5\n        /* \"#utility.yul\":13625:13631   */\n      dup5\n        /* \"#utility.yul\":13620:13623   */\n      dup5\n        /* \"#utility.yul\":13616:13632   */\n      add\n        /* \"#utility.yul\":13613:13638   */\n      gt\n        /* \"#utility.yul\":13610:13722   */\n      iszero\n      tag_395\n      jumpi\n        /* \"#utility.yul\":13641:13720   */\n      tag_396\n      tag_224\n      jump\t// in\n    tag_396:\n        /* \"#utility.yul\":13610:13722   */\n    tag_395:\n        /* \"#utility.yul\":13731:13785   */\n      tag_397\n        /* \"#utility.yul\":13778:13784   */\n      dup5\n        /* \"#utility.yul\":13773:13776   */\n      dup3\n        /* \"#utility.yul\":13768:13771   */\n      dup6\n        /* \"#utility.yul\":13731:13785   */\n      tag_229\n      jump\t// in\n    tag_397:\n        /* \"#utility.yul\":13450:13791   */\n      pop\n        /* \"#utility.yul\":13366:13791   */\n      swap4\n      swap3\n      pop\n      pop\n      pop\n      jump\t// out\n        /* \"#utility.yul\":13811:14151   */\n    tag_231:\n        /* \"#utility.yul\":13867:13872   */\n      0x00\n        /* \"#utility.yul\":13916:13919   */\n      dup3\n        /* \"#utility.yul\":13909:13913   */\n      0x1f\n        /* \"#utility.yul\":13901:13907   */\n      dup4\n        /* \"#utility.yul\":13897:13914   */\n      add\n        /* \"#utility.yul\":13893:13920   */\n      slt\n        /* \"#utility.yul\":13883:14005   */\n      tag_399\n      jumpi\n        /* \"#utility.yul\":13924:14003   */\n      tag_400\n      tag_223\n      jump\t// in\n    tag_400:\n        /* \"#utility.yul\":13883:14005   */\n    tag_399:\n        /* \"#utility.yul\":14041:14047   */\n      dup2\n        /* \"#utility.yul\":14028:14048   */\n      calldataload\n        /* \"#utility.yul\":14066:14145   */\n      tag_401\n        /* \"#utility.yul\":14141:14144   */\n      dup5\n        /* \"#utility.yul\":14133:14139   */\n      dup3\n        /* \"#utility.yul\":14126:14130   */\n      0x20\n        /* \"#utility.yul\":14118:14124   */\n      dup7\n        /* \"#utility.yul\":14114:14131   */\n      add\n        /* \"#utility.yul\":14066:14145   */\n      tag_230\n      jump\t// in\n    tag_401:\n        /* \"#utility.yul\":14057:14145   */\n      swap2\n      pop\n        /* \"#utility.yul\":13873:14151   */\n      pop\n        /* \"#utility.yul\":13811:14151   */\n      swap3\n      swap2\n      pop\n      pop\n      jump\t// out\n        /* \"#utility.yul\":14157:14275   */\n    tag_232:\n        /* \"#utility.yul\":14228:14250   */\n      tag_403\n        /* \"#utility.yul\":14244:14249   */\n      dup2\n        /* \"#utility.yul\":14228:14250   */\n      tag_205\n      jump\t// in\n    tag_403:\n        /* \"#utility.yul\":14221:14226   */\n      dup2\n        /* \"#utility.yul\":14218:14251   */\n      eq\n        /* \"#utility.yul\":14208:14269   */\n      tag_404\n      jumpi\n        /* \"#utility.yul\":14265:14266   */\n      0x00\n        /* \"#utility.yul\":14262:14263   */\n      dup1\n        /* \"#utility.yul\":14255:14267   */\n      revert\n        /* \"#utility.yul\":14208:14269   */\n    tag_404:\n        /* \"#utility.yul\":14157:14275   */\n      pop\n      jump\t// out\n        /* \"#utility.yul\":14281:14416   */\n    tag_233:\n        /* \"#utility.yul\":14325:14330   */\n      0x00\n        /* \"#utility.yul\":14363:14369   */\n      dup2\n        /* \"#utility.yul\":14350:14370   */\n      calldataload\n        /* \"#utility.yul\":14341:14370   */\n      swap1\n      pop\n        /* \"#utility.yul\":14379:14410   */\n      tag_406\n        /* \"#utility.yul\":14404:14409   */\n      dup2\n        /* \"#utility.yul\":14379:14410   */\n      tag_232\n      jump\t// in\n    tag_406:\n        /* \"#utility.yul\":14281:14416   */\n      swap3\n      swap2\n      pop\n      pop\n      jump\t// out\n        /* \"#utility.yul\":14422:16483   */\n    tag_51:\n        /* \"#utility.yul\":14580:14586   */\n      0x00\n        /* \"#utility.yul\":14588:14594   */\n      dup1\n        /* \"#utility.yul\":14596:14602   */\n      0x00\n        /* \"#utility.yul\":14604:14610   */\n      dup1\n        /* \"#utility.yul\":14612:14618   */\n      0x00\n        /* \"#utility.yul\":14620:14626   */\n      dup1\n        /* \"#utility.yul\":14628:14634   */\n      0x00\n        /* \"#utility.yul\":14636:14642   */\n      dup1\n        /* \"#utility.yul\":14685:14688   */\n      0x0100\n        /* \"#utility.yul\":14673:14682   */\n      dup10\n        /* \"#utility.yul\":14664:14671   */\n      dup12\n        /* \"#utility.yul\":14660:14683   */\n      sub\n        /* \"#utility.yul\":14656:14689   */\n      slt\n        /* \"#utility.yul\":14653:14773   */\n      iszero\n      tag_408\n      jumpi\n        /* \"#utility.yul\":14692:14771   */\n      tag_409\n      tag_214\n      jump\t// in\n    tag_409:\n        /* \"#utility.yul\":14653:14773   */\n    tag_408:\n        /* \"#utility.yul\":14840:14841   */\n      0x00\n        /* \"#utility.yul\":14829:14838   */\n      dup10\n        /* \"#utility.yul\":14825:14842   */\n      add\n        /* \"#utility.yul\":14812:14843   */\n      calldataload\n        /* \"#utility.yul\":14870:14888   */\n      0xffffffffffffffff\n        /* \"#utility.yul\":14862:14868   */\n      dup2\n        /* \"#utility.yul\":14859:14889   */\n      gt\n        /* \"#utility.yul\":14856:14973   */\n      iszero\n      tag_410\n      jumpi\n        /* \"#utility.yul\":14892:14971   */\n      tag_411\n      tag_215\n      jump\t// in\n    tag_411:\n        /* \"#utility.yul\":14856:14973   */\n    tag_410:\n        /* \"#utility.yul\":14997:15060   */\n      tag_412\n        /* \"#utility.yul\":15052:15059   */\n      dup12\n        /* \"#utility.yul\":15043:15049   */\n      dup3\n        /* \"#utility.yul\":15032:15041   */\n      dup13\n        /* \"#utility.yul\":15028:15050   */\n      add\n        /* \"#utility.yul\":14997:15060   */\n      tag_231\n      jump\t// in\n    tag_412:\n        /* \"#utility.yul\":14987:15060   */\n      swap9\n      pop\n        /* \"#utility.yul\":14783:15070   */\n      pop\n        /* \"#utility.yul\":15137:15139   */\n      0x20\n        /* \"#utility.yul\":15126:15135   */\n      dup10\n        /* \"#utility.yul\":15122:15140   */\n      add\n        /* \"#utility.yul\":15109:15141   */\n      calldataload\n        /* \"#utility.yul\":15168:15186   */\n      0xffffffffffffffff\n        /* \"#utility.yul\":15160:15166   */\n      dup2\n        /* \"#utility.yul\":15157:15187   */\n      gt\n        /* \"#utility.yul\":15154:15271   */\n      iszero\n      tag_413\n      jumpi\n        /* \"#utility.yul\":15190:15269   */\n      tag_414\n      tag_215\n      jump\t// in\n    tag_414:\n        /* \"#utility.yul\":15154:15271   */\n    tag_413:\n        /* \"#utility.yul\":15295:15358   */\n      tag_415\n        /* \"#utility.yul\":15350:15357   */\n      dup12\n        /* \"#utility.yul\":15341:15347   */\n      dup3\n        /* \"#utility.yul\":15330:15339   */\n      dup13\n        /* \"#utility.yul\":15326:15348   */\n      add\n        /* \"#utility.yul\":15295:15358   */\n      tag_231\n      jump\t// in\n    tag_415:\n        /* \"#utility.yul\":15285:15358   */\n      swap8\n      pop\n        /* \"#utility.yul\":15080:15368   */\n      pop\n        /* \"#utility.yul\":15435:15437   */\n      0x40\n        /* \"#utility.yul\":15424:15433   */\n      dup10\n        /* \"#utility.yul\":15420:15438   */\n      add\n        /* \"#utility.yul\":15407:15439   */\n      calldataload\n        /* \"#utility.yul\":15466:15484   */\n      0xffffffffffffffff\n        /* \"#utility.yul\":15458:15464   */\n      dup2\n        /* \"#utility.yul\":15455:15485   */\n      gt\n        /* \"#utility.yul\":15452:15569   */\n      iszero\n      tag_416\n      jumpi\n        /* \"#utility.yul\":15488:15567   */\n      tag_417\n      tag_215\n      jump\t// in\n    tag_417:\n        /* \"#utility.yul\":15452:15569   */\n    tag_416:\n        /* \"#utility.yul\":15593:15656   */\n      tag_418\n        /* \"#utility.yul\":15648:15655   */\n      dup12\n        /* \"#utility.yul\":15639:15645   */\n      dup3\n        /* \"#utility.yul\":15628:15637   */\n      dup13\n        /* \"#utility.yul\":15624:15646   */\n      add\n        /* \"#utility.yul\":15593:15656   */\n      tag_231\n      jump\t// in\n    tag_418:\n        /* \"#utility.yul\":15583:15656   */\n      swap7\n      pop\n        /* \"#utility.yul\":15378:15666   */\n      pop\n        /* \"#utility.yul\":15705:15707   */\n      0x60\n        /* \"#utility.yul\":15731:15784   */\n      tag_419\n        /* \"#utility.yul\":15776:15783   */\n      dup12\n        /* \"#utility.yul\":15767:15773   */\n      dup3\n        /* \"#utility.yul\":15756:15765   */\n      dup13\n        /* \"#utility.yul\":15752:15774   */\n      add\n        /* \"#utility.yul\":15731:15784   */\n      tag_217\n      jump\t// in\n    tag_419:\n        /* \"#utility.yul\":15721:15784   */\n      swap6\n      pop\n        /* \"#utility.yul\":15676:15794   */\n      pop\n        /* \"#utility.yul\":15833:15836   */\n      0x80\n        /* \"#utility.yul\":15860:15911   */\n      tag_420\n        /* \"#utility.yul\":15903:15910   */\n      dup12\n        /* \"#utility.yul\":15894:15900   */\n      dup3\n        /* \"#utility.yul\":15883:15892   */\n      dup13\n        /* \"#utility.yul\":15879:15901   */\n      add\n        /* \"#utility.yul\":15860:15911   */\n      tag_233\n      jump\t// in\n    tag_420:\n        /* \"#utility.yul\":15850:15911   */\n      swap5\n      pop\n        /* \"#utility.yul\":15804:15921   */\n      pop\n        /* \"#utility.yul\":15960:15963   */\n      0xa0\n        /* \"#utility.yul\":15987:16038   */\n      tag_421\n        /* \"#utility.yul\":16030:16037   */\n      dup12\n        /* \"#utility.yul\":16021:16027   */\n      dup3\n        /* \"#utility.yul\":16010:16019   */\n      dup13\n        /* \"#utility.yul\":16006:16028   */\n      add\n        /* \"#utility.yul\":15987:16038   */\n      tag_233\n      jump\t// in\n    tag_421:\n        /* \"#utility.yul\":15977:16038   */\n      swap4\n      pop\n        /* \"#utility.yul\":15931:16048   */\n      pop\n        /* \"#utility.yul\":16115:16118   */\n      0xc0\n        /* \"#utility.yul\":16104:16113   */\n      dup10\n        /* \"#utility.yul\":16100:16119   */\n      add\n        /* \"#utility.yul\":16087:16120   */\n      calldataload\n        /* \"#utility.yul\":16147:16165   */\n      0xffffffffffffffff\n        /* \"#utility.yul\":16139:16145   */\n      dup2\n        /* \"#utility.yul\":16136:16166   */\n      gt\n        /* \"#utility.yul\":16133:16250   */\n      iszero\n      tag_422\n      jumpi\n        /* \"#utility.yul\":16169:16248   */\n      tag_423\n      tag_215\n      jump\t// in\n    tag_423:\n        /* \"#utility.yul\":16133:16250   */\n    tag_422:\n        /* \"#utility.yul\":16274:16337   */\n      tag_424\n        /* \"#utility.yul\":16329:16336   */\n      dup12\n        /* \"#utility.yul\":16320:16326   */\n      dup3\n        /* \"#utility.yul\":16309:16318   */\n      dup13\n        /* \"#utility.yul\":16305:16327   */\n      add\n        /* \"#utility.yul\":16274:16337   */\n      tag_231\n      jump\t// in\n    tag_424:\n        /* \"#utility.yul\":16264:16337   */\n      swap3\n      pop\n        /* \"#utility.yul\":16058:16347   */\n      pop\n        /* \"#utility.yul\":16386:16389   */\n      0xe0\n        /* \"#utility.yul\":16413:16466   */\n      tag_425\n        /* \"#utility.yul\":16458:16465   */\n      dup12\n        /* \"#utility.yul\":16449:16455   */\n      dup3\n        /* \"#utility.yul\":16438:16447   */\n      dup13\n        /* \"#utility.yul\":16434:16456   */\n      add\n        /* \"#utility.yul\":16413:16466   */\n      tag_217\n      jump\t// in\n    tag_425:\n        /* \"#utility.yul\":16403:16466   */\n      swap2\n      pop\n        /* \"#utility.yul\":16357:16476   */\n      pop\n        /* \"#utility.yul\":14422:16483   */\n      swap3\n      swap6\n      swap9\n      pop\n      swap3\n      swap6\n      swap9\n      swap1\n      swap4\n      swap7\n      pop\n      jump\t// out\n        /* \"#utility.yul\":16489:16658   */\n    tag_234:\n        /* \"#utility.yul\":16573:16584   */\n      0x00\n        /* \"#utility.yul\":16607:16613   */\n      dup3\n        /* \"#utility.yul\":16602:16605   */\n      dup3\n        /* \"#utility.yul\":16595:16614   */\n      mstore\n        /* \"#utility.yul\":16647:16651   */\n      0x20\n        /* \"#utility.yul\":16642:16645   */\n      dup3\n        /* \"#utility.yul\":16638:16652   */\n      add\n        /* \"#utility.yul\":16623:16652   */\n      swap1\n      pop\n        /* \"#utility.yul\":16489:16658   */\n      swap3\n      swap2\n      pop\n      pop\n      jump\t// out\n        /* \"#utility.yul\":16664:17041   */\n    tag_235:\n        /* \"#utility.yul\":16752:16755   */\n      0x00\n        /* \"#utility.yul\":16780:16819   */\n      tag_428\n        /* \"#utility.yul\":16813:16818   */\n      dup3\n        /* \"#utility.yul\":16780:16819   */\n      tag_198\n      jump\t// in\n    tag_428:\n        /* \"#utility.yul\":16835:16906   */\n      tag_429\n        /* \"#utility.yul\":16899:16905   */\n      dup2\n        /* \"#utility.yul\":16894:16897   */\n      dup6\n        /* \"#utility.yul\":16835:16906   */\n      tag_234\n      jump\t// in\n    tag_429:\n        /* \"#utility.yul\":16828:16906   */\n      swap4\n      pop\n        /* \"#utility.yul\":16915:16980   */\n      tag_430\n        /* \"#utility.yul\":16973:16979   */\n      dup2\n        /* \"#utility.yul\":16968:16971   */\n      dup6\n        /* \"#utility.yul\":16961:16965   */\n      0x20\n        /* \"#utility.yul\":16954:16959   */\n      dup7\n        /* \"#utility.yul\":16950:16966   */\n      add\n        /* \"#utility.yul\":16915:16980   */\n      tag_200\n      jump\t// in\n    tag_430:\n        /* \"#utility.yul\":17005:17034   */\n      tag_431\n        /* \"#utility.yul\":17027:17033   */\n      dup2\n        /* \"#utility.yul\":17005:17034   */\n      tag_201\n      jump\t// in\n    tag_431:\n        /* \"#utility.yul\":17000:17003   */\n      dup5\n        /* \"#utility.yul\":16996:17035   */\n      add\n        /* \"#utility.yul\":16989:17035   */\n      swap2\n      pop\n        /* \"#utility.yul\":16756:17041   */\n      pop\n        /* \"#utility.yul\":16664:17041   */\n      swap3\n      swap2\n      pop\n      pop\n      jump\t// out\n        /* \"#utility.yul\":17047:17159   */\n    tag_236:\n        /* \"#utility.yul\":17130:17152   */\n      tag_433\n        /* \"#utility.yul\":17146:17151   */\n      dup2\n        /* \"#utility.yul\":17130:17152   */\n      tag_205\n      jump\t// in\n    tag_433:\n        /* \"#utility.yul\":17125:17128   */\n      dup3\n        /* \"#utility.yul\":17118:17153   */\n      mstore\n        /* \"#utility.yul\":17047:17159   */\n      pop\n      pop\n      jump\t// out\n        /* \"#utility.yul\":17165:17274   */\n    tag_237:\n        /* \"#utility.yul\":17246:17267   */\n      tag_435\n        /* \"#utility.yul\":17261:17266   */\n      dup2\n        /* \"#utility.yul\":17246:17267   */\n      tag_207\n      jump\t// in\n    tag_435:\n        /* \"#utility.yul\":17241:17244   */\n      dup3\n        /* \"#utility.yul\":17234:17268   */\n      mstore\n        /* \"#utility.yul\":17165:17274   */\n      pop\n      pop\n      jump\t// out\n        /* \"#utility.yul\":17280:18835   */\n    tag_58:\n        /* \"#utility.yul\":17691:17695   */\n      0x00\n        /* \"#utility.yul\":17729:17732   */\n      0x0140\n        /* \"#utility.yul\":17718:17727   */\n      dup3\n        /* \"#utility.yul\":17714:17733   */\n      add\n        /* \"#utility.yul\":17706:17733   */\n      swap1\n      pop\n        /* \"#utility.yul\":17743:17814   */\n      tag_437\n        /* \"#utility.yul\":17811:17812   */\n      0x00\n        /* \"#utility.yul\":17800:17809   */\n      dup4\n        /* \"#utility.yul\":17796:17813   */\n      add\n        /* \"#utility.yul\":17787:17793   */\n      dup14\n        /* \"#utility.yul\":17743:17814   */\n      tag_219\n      jump\t// in\n    tag_437:\n        /* \"#utility.yul\":17861:17870   */\n      dup2\n        /* \"#utility.yul\":17855:17859   */\n      dup2\n        /* \"#utility.yul\":17851:17871   */\n      sub\n        /* \"#utility.yul\":17846:17848   */\n      0x20\n        /* \"#utility.yul\":17835:17844   */\n      dup4\n        /* \"#utility.yul\":17831:17849   */\n      add\n        /* \"#utility.yul\":17824:17872   */\n      mstore\n        /* \"#utility.yul\":17889:17967   */\n      tag_438\n        /* \"#utility.yul\":17962:17966   */\n      dup2\n        /* \"#utility.yul\":17953:17959   */\n      dup13\n        /* \"#utility.yul\":17889:17967   */\n      tag_235\n      jump\t// in\n    tag_438:\n        /* \"#utility.yul\":17881:17967   */\n      swap1\n      pop\n        /* \"#utility.yul\":18014:18023   */\n      dup2\n        /* \"#utility.yul\":18008:18012   */\n      dup2\n        /* \"#utility.yul\":18004:18024   */\n      sub\n        /* \"#utility.yul\":17999:18001   */\n      0x40\n        /* \"#utility.yul\":17988:17997   */\n      dup4\n        /* \"#utility.yul\":17984:18002   */\n      add\n        /* \"#utility.yul\":17977:18025   */\n      mstore\n        /* \"#utility.yul\":18042:18120   */\n      tag_439\n        /* \"#utility.yul\":18115:18119   */\n      dup2\n        /* \"#utility.yul\":18106:18112   */\n      dup12\n        /* \"#utility.yul\":18042:18120   */\n      tag_235\n      jump\t// in\n    tag_439:\n        /* \"#utility.yul\":18034:18120   */\n      swap1\n      pop\n        /* \"#utility.yul\":18167:18176   */\n      dup2\n        /* \"#utility.yul\":18161:18165   */\n      dup2\n        /* \"#utility.yul\":18157:18177   */\n      sub\n        /* \"#utility.yul\":18152:18154   */\n      0x60\n        /* \"#utility.yul\":18141:18150   */\n      dup4\n        /* \"#utility.yul\":18137:18155   */\n      add\n        /* \"#utility.yul\":18130:18178   */\n      mstore\n        /* \"#utility.yul\":18195:18273   */\n      tag_440\n        /* \"#utility.yul\":18268:18272   */\n      dup2\n        /* \"#utility.yul\":18259:18265   */\n      dup11\n        /* \"#utility.yul\":18195:18273   */\n      tag_235\n      jump\t// in\n    tag_440:\n        /* \"#utility.yul\":18187:18273   */\n      swap1\n      pop\n        /* \"#utility.yul\":18283:18356   */\n      tag_441\n        /* \"#utility.yul\":18351:18354   */\n      0x80\n        /* \"#utility.yul\":18340:18349   */\n      dup4\n        /* \"#utility.yul\":18336:18355   */\n      add\n        /* \"#utility.yul\":18327:18333   */\n      dup10\n        /* \"#utility.yul\":18283:18356   */\n      tag_218\n      jump\t// in\n    tag_441:\n        /* \"#utility.yul\":18366:18435   */\n      tag_442\n        /* \"#utility.yul\":18430:18433   */\n      0xa0\n        /* \"#utility.yul\":18419:18428   */\n      dup4\n        /* \"#utility.yul\":18415:18434   */\n      add\n        /* \"#utility.yul\":18406:18412   */\n      dup9\n        /* \"#utility.yul\":18366:18435   */\n      tag_236\n      jump\t// in\n    tag_442:\n        /* \"#utility.yul\":18445:18514   */\n      tag_443\n        /* \"#utility.yul\":18509:18512   */\n      0xc0\n        /* \"#utility.yul\":18498:18507   */\n      dup4\n        /* \"#utility.yul\":18494:18513   */\n      add\n        /* \"#utility.yul\":18485:18491   */\n      dup8\n        /* \"#utility.yul\":18445:18514   */\n      tag_236\n      jump\t// in\n    tag_443:\n        /* \"#utility.yul\":18562:18571   */\n      dup2\n        /* \"#utility.yul\":18556:18560   */\n      dup2\n        /* \"#utility.yul\":18552:18572   */\n      sub\n        /* \"#utility.yul\":18546:18549   */\n      0xe0\n        /* \"#utility.yul\":18535:18544   */\n      dup4\n        /* \"#utility.yul\":18531:18550   */\n      add\n        /* \"#utility.yul\":18524:18573   */\n      mstore\n        /* \"#utility.yul\":18590:18668   */\n      tag_444\n        /* \"#utility.yul\":18663:18667   */\n      dup2\n        /* \"#utility.yul\":18654:18660   */\n      dup7\n        /* \"#utility.yul\":18590:18668   */\n      tag_235\n      jump\t// in\n    tag_444:\n        /* \"#utility.yul\":18582:18668   */\n      swap1\n      pop\n        /* \"#utility.yul\":18678:18751   */\n      tag_445\n        /* \"#utility.yul\":18746:18749   */\n      0x0100\n        /* \"#utility.yul\":18735:18744   */\n      dup4\n        /* \"#utility.yul\":18731:18750   */\n      add\n        /* \"#utility.yul\":18722:18728   */\n      dup6\n        /* \"#utility.yul\":18678:18751   */\n      tag_218\n      jump\t// in\n    tag_445:\n        /* \"#utility.yul\":18761:18828   */\n      tag_446\n        /* \"#utility.yul\":18823:18826   */\n      0x0120\n        /* \"#utility.yul\":18812:18821   */\n      dup4\n        /* \"#utility.yul\":18808:18827   */\n      add\n        /* \"#utility.yul\":18799:18805   */\n      dup5\n        /* \"#utility.yul\":18761:18828   */\n      tag_237\n      jump\t// in\n    tag_446:\n        /* \"#utility.yul\":17280:18835   */\n      swap12\n      swap11\n      pop\n      pop\n      pop\n      pop\n      pop\n      pop\n      pop\n      pop\n      pop\n      pop\n      pop\n      jump\t// out\n        /* \"#utility.yul\":18841:19315   */\n    tag_62:\n        /* \"#utility.yul\":18909:18915   */\n      0x00\n        /* \"#utility.yul\":18917:18923   */\n      dup1\n        /* \"#utility.yul\":18966:18968   */\n      0x40\n        /* \"#utility.yul\":18954:18963   */\n      dup4\n        /* \"#utility.yul\":18945:18952   */\n      dup6\n        /* \"#utility.yul\":18941:18964   */\n      sub\n        /* \"#utility.yul\":18937:18969   */\n      slt\n        /* \"#utility.yul\":18934:19053   */\n      iszero\n      tag_448\n      jumpi\n        /* \"#utility.yul\":18972:19051   */\n      tag_449\n      tag_214\n      jump\t// in\n    tag_449:\n        /* \"#utility.yul\":18934:19053   */\n    tag_448:\n        /* \"#utility.yul\":19092:19093   */\n      0x00\n        /* \"#utility.yul\":19117:19170   */\n      tag_450\n        /* \"#utility.yul\":19162:19169   */\n      dup6\n        /* \"#utility.yul\":19153:19159   */\n      dup3\n        /* \"#utility.yul\":19142:19151   */\n      dup7\n        /* \"#utility.yul\":19138:19160   */\n      add\n        /* \"#utility.yul\":19117:19170   */\n      tag_217\n      jump\t// in\n    tag_450:\n        /* \"#utility.yul\":19107:19170   */\n      swap3\n      pop\n        /* \"#utility.yul\":19063:19180   */\n      pop\n        /* \"#utility.yul\":19219:19221   */\n      0x20\n        /* \"#utility.yul\":19245:19298   */\n      tag_451\n        /* \"#utility.yul\":19290:19297   */\n      dup6\n        /* \"#utility.yul\":19281:19287   */\n      dup3\n        /* \"#utility.yul\":19270:19279   */\n      dup7\n        /* \"#utility.yul\":19266:19288   */\n      add\n        /* \"#utility.yul\":19245:19298   */\n      tag_217\n      jump\t// in\n    tag_451:\n        /* \"#utility.yul\":19235:19298   */\n      swap2\n      pop\n        /* \"#utility.yul\":19190:19308   */\n      pop\n        /* \"#utility.yul\":18841:19315   */\n      swap3\n      pop\n      swap3\n      swap1\n      pop\n      jump\t// out\n        /* \"#utility.yul\":19321:19501   */\n    tag_238:\n        /* \"#utility.yul\":19369:19446   */\n      0x4e487b7100000000000000000000000000000000000000000000000000000000\n        /* \"#utility.yul\":19366:19367   */\n      0x00\n        /* \"#utility.yul\":19359:19447   */\n      mstore\n        /* \"#utility.yul\":19466:19470   */\n      0x22\n        /* \"#utility.yul\":19463:19464   */\n      0x04\n        /* \"#utility.yul\":19456:19471   */\n      mstore\n        /* \"#utility.yul\":19490:19494   */\n      0x24\n        /* \"#utility.yul\":19487:19488   */\n      0x00\n        /* \"#utility.yul\":19480:19495   */\n      revert\n        /* \"#utility.yul\":19507:19827   */\n    tag_69:\n        /* \"#utility.yul\":19551:19557   */\n      0x00\n        /* \"#utility.yul\":19588:19589   */\n      0x02\n        /* \"#utility.yul\":19582:19586   */\n      dup3\n        /* \"#utility.yul\":19578:19590   */\n      div\n        /* \"#utility.yul\":19568:19590   */\n      swap1\n      pop\n        /* \"#utility.yul\":19635:19636   */\n      0x01\n        /* \"#utility.yul\":19629:19633   */\n      dup3\n        /* \"#utility.yul\":19625:19637   */\n      and\n        /* \"#utility.yul\":19656:19674   */\n      dup1\n        /* \"#utility.yul\":19646:19727   */\n      tag_454\n      jumpi\n        /* \"#utility.yul\":19712:19716   */\n      0x7f\n        /* \"#utility.yul\":19704:19710   */\n      dup3\n        /* \"#utility.yul\":19700:19717   */\n      and\n        /* \"#utility.yul\":19690:19717   */\n      swap2\n      pop\n        /* \"#utility.yul\":19646:19727   */\n    tag_454:\n        /* \"#utility.yul\":19774:19776   */\n      0x20\n        /* \"#utility.yul\":19766:19772   */\n      dup3\n        /* \"#utility.yul\":19763:19777   */\n      lt\n        /* \"#utility.yul\":19743:19761   */\n      dup2\n        /* \"#utility.yul\":19740:19778   */\n      sub\n        /* \"#utility.yul\":19737:19821   */\n      tag_455\n      jumpi\n        /* \"#utility.yul\":19793:19811   */\n      tag_456\n      tag_238\n      jump\t// in\n    tag_456:\n        /* \"#utility.yul\":19737:19821   */\n    tag_455:\n        /* \"#utility.yul\":19558:19827   */\n      pop\n        /* \"#utility.yul\":19507:19827   */\n      swap2\n      swap1\n      pop\n      jump\t// out\n        /* \"#utility.yul\":19833:20005   */\n    tag_239:\n        /* \"#utility.yul\":19973:19997   */\n      0x496e76616c69642070726f706572747920696e64657800000000000000000000\n        /* \"#utility.yul\":19969:19970   */\n      0x00\n        /* \"#utility.yul\":19961:19967   */\n      dup3\n        /* \"#utility.yul\":19957:19971   */\n      add\n        /* \"#utility.yul\":19950:19998   */\n      mstore\n        /* \"#utility.yul\":19833:20005   */\n      pop\n      jump\t// out\n        /* \"#utility.yul\":20011:20377   */\n    tag_240:\n        /* \"#utility.yul\":20153:20156   */\n      0x00\n        /* \"#utility.yul\":20174:20241   */\n      tag_459\n        /* \"#utility.yul\":20238:20240   */\n      0x16\n        /* \"#utility.yul\":20233:20236   */\n      dup4\n        /* \"#utility.yul\":20174:20241   */\n      tag_234\n      jump\t// in\n    tag_459:\n        /* \"#utility.yul\":20167:20241   */\n      swap2\n      pop\n        /* \"#utility.yul\":20250:20343   */\n      tag_460\n        /* \"#utility.yul\":20339:20342   */\n      dup3\n        /* \"#utility.yul\":20250:20343   */\n      tag_239\n      jump\t// in\n    tag_460:\n        /* \"#utility.yul\":20368:20370   */\n      0x20\n        /* \"#utility.yul\":20363:20366   */\n      dup3\n        /* \"#utility.yul\":20359:20371   */\n      add\n        /* \"#utility.yul\":20352:20371   */\n      swap1\n      pop\n        /* \"#utility.yul\":20011:20377   */\n      swap2\n      swap1\n      pop\n      jump\t// out\n        /* \"#utility.yul\":20383:20802   */\n    tag_92:\n        /* \"#utility.yul\":20549:20553   */\n      0x00\n        /* \"#utility.yul\":20587:20589   */\n      0x20\n        /* \"#utility.yul\":20576:20585   */\n      dup3\n        /* \"#utility.yul\":20572:20590   */\n      add\n        /* \"#utility.yul\":20564:20590   */\n      swap1\n      pop\n        /* \"#utility.yul\":20636:20645   */\n      dup2\n        /* \"#utility.yul\":20630:20634   */\n      dup2\n        /* \"#utility.yul\":20626:20646   */\n      sub\n        /* \"#utility.yul\":20622:20623   */\n      0x00\n        /* \"#utility.yul\":20611:20620   */\n      dup4\n        /* \"#utility.yul\":20607:20624   */\n      add\n        /* \"#utility.yul\":20600:20647   */\n      mstore\n        /* \"#utility.yul\":20664:20795   */\n      tag_462\n        /* \"#utility.yul\":20790:20794   */\n      dup2\n        /* \"#utility.yul\":20664:20795   */\n      tag_240\n      jump\t// in\n    tag_462:\n        /* \"#utility.yul\":20656:20795   */\n      swap1\n      pop\n        /* \"#utility.yul\":20383:20802   */\n      swap2\n      swap1\n      pop\n      jump\t// out\n        /* \"#utility.yul\":20808:20988   */\n    tag_95:\n        /* \"#utility.yul\":20856:20933   */\n      0x4e487b7100000000000000000000000000000000000000000000000000000000\n        /* \"#utility.yul\":20853:20854   */\n      0x00\n        /* \"#utility.yul\":20846:20934   */\n      mstore\n        /* \"#utility.yul\":20953:20957   */\n      0x32\n        /* \"#utility.yul\":20950:20951   */\n      0x04\n        /* \"#utility.yul\":20943:20958   */\n      mstore\n        /* \"#utility.yul\":20977:20981   */\n      0x24\n        /* \"#utility.yul\":20974:20975   */\n      0x00\n        /* \"#utility.yul\":20967:20982   */\n      revert\n        /* \"#utility.yul\":20994:21162   */\n    tag_241:\n        /* \"#utility.yul\":21134:21154   */\n      0x496e73756666696369656e742066756e64730000000000000000000000000000\n        /* \"#utility.yul\":21130:21131   */\n      0x00\n        /* \"#utility.yul\":21122:21128   */\n      dup3\n        /* \"#utility.yul\":21118:21132   */\n      add\n        /* \"#utility.yul\":21111:21155   */\n      mstore\n        /* \"#utility.yul\":20994:21162   */\n      pop\n      jump\t// out\n        /* \"#utility.yul\":21168:21534   */\n    tag_242:\n        /* \"#utility.yul\":21310:21313   */\n      0x00\n        /* \"#utility.yul\":21331:21398   */\n      tag_466\n        /* \"#utility.yul\":21395:21397   */\n      0x12\n        /* \"#utility.yul\":21390:21393   */\n      dup4\n        /* \"#utility.yul\":21331:21398   */\n      tag_234\n      jump\t// in\n    tag_466:\n        /* \"#utility.yul\":21324:21398   */\n      swap2\n      pop\n        /* \"#utility.yul\":21407:21500   */\n      tag_467\n        /* \"#utility.yul\":21496:21499   */\n      dup3\n        /* \"#utility.yul\":21407:21500   */\n      tag_241\n      jump\t// in\n    tag_467:\n        /* \"#utility.yul\":21525:21527   */\n      0x20\n        /* \"#utility.yul\":21520:21523   */\n      dup3\n        /* \"#utility.yul\":21516:21528   */\n      add\n        /* \"#utility.yul\":21509:21528   */\n      swap1\n      pop\n        /* \"#utility.yul\":21168:21534   */\n      swap2\n      swap1\n      pop\n      jump\t// out\n        /* \"#utility.yul\":21540:21959   */\n    tag_99:\n        /* \"#utility.yul\":21706:21710   */\n      0x00\n        /* \"#utility.yul\":21744:21746   */\n      0x20\n        /* \"#utility.yul\":21733:21742   */\n      dup3\n        /* \"#utility.yul\":21729:21747   */\n      add\n        /* \"#utility.yul\":21721:21747   */\n      swap1\n      pop\n        /* \"#utility.yul\":21793:21802   */\n      dup2\n        /* \"#utility.yul\":21787:21791   */\n      dup2\n        /* \"#utility.yul\":21783:21803   */\n      sub\n        /* \"#utility.yul\":21779:21780   */\n      0x00\n        /* \"#utility.yul\":21768:21777   */\n      dup4\n        /* \"#utility.yul\":21764:21781   */\n      add\n        /* \"#utility.yul\":21757:21804   */\n      mstore\n        /* \"#utility.yul\":21821:21952   */\n      tag_469\n        /* \"#utility.yul\":21947:21951   */\n      dup2\n        /* \"#utility.yul\":21821:21952   */\n      tag_242\n      jump\t// in\n    tag_469:\n        /* \"#utility.yul\":21813:21952   */\n      swap1\n      pop\n        /* \"#utility.yul\":21540:21959   */\n      swap2\n      swap1\n      pop\n      jump\t// out\n        /* \"#utility.yul\":21965:22190   */\n    tag_243:\n        /* \"#utility.yul\":22105:22139   */\n      0x50726f7065727479206973206e6f7420617661696c61626c6520666f72207075\n        /* \"#utility.yul\":22101:22102   */\n      0x00\n        /* \"#utility.yul\":22093:22099   */\n      dup3\n        /* \"#utility.yul\":22089:22103   */\n      add\n        /* \"#utility.yul\":22082:22140   */\n      mstore\n        /* \"#utility.yul\":22174:22182   */\n      0x7263686173650000000000000000000000000000000000000000000000000000\n        /* \"#utility.yul\":22169:22171   */\n      0x20\n        /* \"#utility.yul\":22161:22167   */\n      dup3\n        /* \"#utility.yul\":22157:22172   */\n      add\n        /* \"#utility.yul\":22150:22183   */\n      mstore\n        /* \"#utility.yul\":21965:22190   */\n      pop\n      jump\t// out\n        /* \"#utility.yul\":22196:22562   */\n    tag_244:\n        /* \"#utility.yul\":22338:22341   */\n      0x00\n        /* \"#utility.yul\":22359:22426   */\n      tag_472\n        /* \"#utility.yul\":22423:22425   */\n      0x26\n        /* \"#utility.yul\":22418:22421   */\n      dup4\n        /* \"#utility.yul\":22359:22426   */\n      tag_234\n      jump\t// in\n    tag_472:\n        /* \"#utility.yul\":22352:22426   */\n      swap2\n      pop\n        /* \"#utility.yul\":22435:22528   */\n      tag_473\n        /* \"#utility.yul\":22524:22527   */\n      dup3\n        /* \"#utility.yul\":22435:22528   */\n      tag_243\n      jump\t// in\n    tag_473:\n        /* \"#utility.yul\":22553:22555   */\n      0x40\n        /* \"#utility.yul\":22548:22551   */\n      dup3\n        /* \"#utility.yul\":22544:22556   */\n      add\n        /* \"#utility.yul\":22537:22556   */\n      swap1\n      pop\n        /* \"#utility.yul\":22196:22562   */\n      swap2\n      swap1\n      pop\n      jump\t// out\n        /* \"#utility.yul\":22568:22987   */\n    tag_102:\n        /* \"#utility.yul\":22734:22738   */\n      0x00\n        /* \"#utility.yul\":22772:22774   */\n      0x20\n        /* \"#utility.yul\":22761:22770   */\n      dup3\n        /* \"#utility.yul\":22757:22775   */\n      add\n        /* \"#utility.yul\":22749:22775   */\n      swap1\n      pop\n        /* \"#utility.yul\":22821:22830   */\n      dup2\n        /* \"#utility.yul\":22815:22819   */\n      dup2\n        /* \"#utility.yul\":22811:22831   */\n      sub\n        /* \"#utility.yul\":22807:22808   */\n      0x00\n        /* \"#utility.yul\":22796:22805   */\n      dup4\n        /* \"#utility.yul\":22792:22809   */\n      add\n        /* \"#utility.yul\":22785:22832   */\n      mstore\n        /* \"#utility.yul\":22849:22980   */\n      tag_475\n        /* \"#utility.yul\":22975:22979   */\n      dup2\n        /* \"#utility.yul\":22849:22980   */\n      tag_244\n      jump\t// in\n    tag_475:\n        /* \"#utility.yul\":22841:22980   */\n      swap1\n      pop\n        /* \"#utility.yul\":22568:22987   */\n      swap2\n      swap1\n      pop\n      jump\t// out\n        /* \"#utility.yul\":22993:23158   */\n    tag_245:\n        /* \"#utility.yul\":23133:23150   */\n      0x50726f706572747920426f756768740000000000000000000000000000000000\n        /* \"#utility.yul\":23129:23130   */\n      0x00\n        /* \"#utility.yul\":23121:23127   */\n      dup3\n        /* \"#utility.yul\":23117:23131   */\n      add\n        /* \"#utility.yul\":23110:23151   */\n      mstore\n        /* \"#utility.yul\":22993:23158   */\n      pop\n      jump\t// out\n        /* \"#utility.yul\":23164:23530   */\n    tag_246:\n        /* \"#utility.yul\":23306:23309   */\n      0x00\n        /* \"#utility.yul\":23327:23394   */\n      tag_478\n        /* \"#utility.yul\":23391:23393   */\n      0x0f\n        /* \"#utility.yul\":23386:23389   */\n      dup4\n        /* \"#utility.yul\":23327:23394   */\n      tag_234\n      jump\t// in\n    tag_478:\n        /* \"#utility.yul\":23320:23394   */\n      swap2\n      pop\n        /* \"#utility.yul\":23403:23496   */\n      tag_479\n        /* \"#utility.yul\":23492:23495   */\n      dup3\n        /* \"#utility.yul\":23403:23496   */\n      tag_245\n      jump\t// in\n    tag_479:\n        /* \"#utility.yul\":23521:23523   */\n      0x20\n        /* \"#utility.yul\":23516:23519   */\n      dup3\n        /* \"#utility.yul\":23512:23524   */\n      add\n        /* \"#utility.yul\":23505:23524   */\n      swap1\n      pop\n        /* \"#utility.yul\":23164:23530   */\n      swap2\n      swap1\n      pop\n      jump\t// out\n        /* \"#utility.yul\":23536:23638   */\n    tag_247:\n        /* \"#utility.yul\":23578:23586   */\n      0x00\n        /* \"#utility.yul\":23625:23630   */\n      dup2\n        /* \"#utility.yul\":23622:23623   */\n      0x00\n        /* \"#utility.yul\":23618:23631   */\n      shr\n        /* \"#utility.yul\":23597:23631   */\n      swap1\n      pop\n        /* \"#utility.yul\":23536:23638   */\n      swap2\n      swap1\n      pop\n      jump\t// out\n        /* \"#utility.yul\":23644:23783   */\n    tag_248:\n        /* \"#utility.yul\":23694:23701   */\n      0x00\n        /* \"#utility.yul\":23734:23776   */\n      0xffffffffffffffffffffffffffffffffffffffff\n        /* \"#utility.yul\":23727:23732   */\n      dup3\n        /* \"#utility.yul\":23723:23777   */\n      and\n        /* \"#utility.yul\":23712:23777   */\n      swap1\n      pop\n        /* \"#utility.yul\":23644:23783   */\n      swap2\n      swap1\n      pop\n      jump\t// out\n        /* \"#utility.yul\":23789:23955   */\n    tag_249:\n        /* \"#utility.yul\":23858:23863   */\n      0x00\n        /* \"#utility.yul\":23883:23949   */\n      tag_483\n        /* \"#utility.yul\":23914:23948   */\n      tag_484\n        /* \"#utility.yul\":23937:23947   */\n      dup4\n        /* \"#utility.yul\":23914:23948   */\n      tag_247\n      jump\t// in\n    tag_484:\n        /* \"#utility.yul\":23883:23949   */\n      tag_248\n      jump\t// in\n    tag_483:\n        /* \"#utility.yul\":23874:23949   */\n      swap1\n      pop\n        /* \"#utility.yul\":23789:23955   */\n      swap2\n      swap1\n      pop\n      jump\t// out\n        /* \"#utility.yul\":23961:24102   */\n    tag_250:\n        /* \"#utility.yul\":24010:24014   */\n      0x00\n        /* \"#utility.yul\":24033:24036   */\n      dup2\n        /* \"#utility.yul\":24025:24036   */\n      swap1\n      pop\n        /* \"#utility.yul\":24056:24059   */\n      dup2\n        /* \"#utility.yul\":24053:24054   */\n      0x00\n        /* \"#utility.yul\":24046:24060   */\n      mstore\n        /* \"#utility.yul\":24090:24094   */\n      0x20\n        /* \"#utility.yul\":24087:24088   */\n      0x00\n        /* \"#utility.yul\":24077:24095   */\n      keccak256\n        /* \"#utility.yul\":24069:24095   */\n      swap1\n      pop\n        /* \"#utility.yul\":23961:24102   */\n      swap2\n      swap1\n      pop\n      jump\t// out\n        /* \"#utility.yul\":24132:24943   */\n    tag_251:\n        /* \"#utility.yul\":24207:24210   */\n      0x00\n        /* \"#utility.yul\":24244:24249   */\n      dup2\n        /* \"#utility.yul\":24238:24250   */\n      sload\n        /* \"#utility.yul\":24273:24309   */\n      tag_487\n        /* \"#utility.yul\":24299:24308   */\n      dup2\n        /* \"#utility.yul\":24273:24309   */\n      tag_69\n      jump\t// in\n    tag_487:\n        /* \"#utility.yul\":24325:24386   */\n      tag_488\n        /* \"#utility.yul\":24379:24385   */\n      dup2\n        /* \"#utility.yul\":24374:24377   */\n      dup7\n        /* \"#utility.yul\":24325:24386   */\n      tag_199\n      jump\t// in\n    tag_488:\n        /* \"#utility.yul\":24318:24386   */\n      swap5\n      pop\n        /* \"#utility.yul\":24417:24418   */\n      0x01\n        /* \"#utility.yul\":24406:24415   */\n      dup3\n        /* \"#utility.yul\":24402:24419   */\n      and\n        /* \"#utility.yul\":24433:24434   */\n      0x00\n        /* \"#utility.yul\":24428:24592   */\n      dup2\n      eq\n      tag_490\n      jumpi\n        /* \"#utility.yul\":24606:24607   */\n      0x01\n        /* \"#utility.yul\":24601:24937   */\n      dup2\n      eq\n      tag_491\n      jumpi\n        /* \"#utility.yul\":24395:24937   */\n      jump(tag_489)\n        /* \"#utility.yul\":24428:24592   */\n    tag_490:\n        /* \"#utility.yul\":24512:24516   */\n      0xff\n        /* \"#utility.yul\":24508:24517   */\n      not\n        /* \"#utility.yul\":24497:24506   */\n      dup4\n        /* \"#utility.yul\":24493:24518   */\n      and\n        /* \"#utility.yul\":24488:24491   */\n      dup7\n        /* \"#utility.yul\":24481:24519   */\n      mstore\n        /* \"#utility.yul\":24572:24578   */\n      dup2\n        /* \"#utility.yul\":24565:24579   */\n      iszero\n        /* \"#utility.yul\":24558:24580   */\n      iszero\n        /* \"#utility.yul\":24552:24556   */\n      0x20\n        /* \"#utility.yul\":24548:24581   */\n      mul\n        /* \"#utility.yul\":24543:24546   */\n      dup7\n        /* \"#utility.yul\":24539:24582   */\n      add\n        /* \"#utility.yul\":24532:24582   */\n      swap4\n      pop\n        /* \"#utility.yul\":24428:24592   */\n      jump(tag_489)\n        /* \"#utility.yul\":24601:24937   */\n    tag_491:\n        /* \"#utility.yul\":24668:24706   */\n      tag_492\n        /* \"#utility.yul\":24700:24705   */\n      dup6\n        /* \"#utility.yul\":24668:24706   */\n      tag_250\n      jump\t// in\n    tag_492:\n        /* \"#utility.yul\":24728:24729   */\n      0x00\n        /* \"#utility.yul\":24742:24896   */\n    tag_493:\n        /* \"#utility.yul\":24756:24762   */\n      dup4\n        /* \"#utility.yul\":24753:24754   */\n      dup2\n        /* \"#utility.yul\":24750:24763   */\n      lt\n        /* \"#utility.yul\":24742:24896   */\n      iszero\n      tag_495\n      jumpi\n        /* \"#utility.yul\":24830:24837   */\n      dup2\n        /* \"#utility.yul\":24824:24838   */\n      sload\n        /* \"#utility.yul\":24820:24821   */\n      dup2\n        /* \"#utility.yul\":24815:24818   */\n      dup10\n        /* \"#utility.yul\":24811:24822   */\n      add\n        /* \"#utility.yul\":24804:24839   */\n      mstore\n        /* \"#utility.yul\":24880:24881   */\n      0x01\n        /* \"#utility.yul\":24871:24878   */\n      dup3\n        /* \"#utility.yul\":24867:24882   */\n      add\n        /* \"#utility.yul\":24856:24882   */\n      swap2\n      pop\n        /* \"#utility.yul\":24778:24782   */\n      0x20\n        /* \"#utility.yul\":24775:24776   */\n      dup2\n        /* \"#utility.yul\":24771:24783   */\n      add\n        /* \"#utility.yul\":24766:24783   */\n      swap1\n      pop\n        /* \"#utility.yul\":24742:24896   */\n      jump(tag_493)\n    tag_495:\n        /* \"#utility.yul\":24925:24926   */\n      dup1\n        /* \"#utility.yul\":24920:24923   */\n      dup9\n        /* \"#utility.yul\":24916:24927   */\n      add\n        /* \"#utility.yul\":24909:24927   */\n      swap6\n      pop\n        /* \"#utility.yul\":24608:24937   */\n      pop\n      pop\n        /* \"#utility.yul\":24395:24937   */\n    tag_489:\n      pop\n        /* \"#utility.yul\":24211:24943   */\n      pop\n      pop\n        /* \"#utility.yul\":24132:24943   */\n      swap3\n      swap2\n      pop\n      pop\n      jump\t// out\n        /* \"#utility.yul\":24949:25039   */\n    tag_252:\n        /* \"#utility.yul\":24999:25006   */\n      0x00\n        /* \"#utility.yul\":25028:25033   */\n      dup2\n        /* \"#utility.yul\":25017:25033   */\n      swap1\n      pop\n        /* \"#utility.yul\":24949:25039   */\n      swap2\n      swap1\n      pop\n      jump\t// out\n        /* \"#utility.yul\":25045:25211   */\n    tag_253:\n        /* \"#utility.yul\":25114:25119   */\n      0x00\n        /* \"#utility.yul\":25139:25205   */\n      tag_498\n        /* \"#utility.yul\":25170:25204   */\n      tag_499\n        /* \"#utility.yul\":25193:25203   */\n      dup4\n        /* \"#utility.yul\":25170:25204   */\n      tag_247\n      jump\t// in\n    tag_499:\n        /* \"#utility.yul\":25139:25205   */\n      tag_252\n      jump\t// in\n    tag_498:\n        /* \"#utility.yul\":25130:25205   */\n      swap1\n      pop\n        /* \"#utility.yul\":25045:25211   */\n      swap2\n      swap1\n      pop\n      jump\t// out\n        /* \"#utility.yul\":25217:25316   */\n    tag_254:\n        /* \"#utility.yul\":25265:25272   */\n      0x00\n        /* \"#utility.yul\":25305:25309   */\n      0xff\n        /* \"#utility.yul\":25298:25303   */\n      dup3\n        /* \"#utility.yul\":25294:25310   */\n      and\n        /* \"#utility.yul\":25283:25310   */\n      swap1\n      pop\n        /* \"#utility.yul\":25217:25316   */\n      swap2\n      swap1\n      pop\n      jump\t// out\n        /* \"#utility.yul\":25322:25484   */\n    tag_255:\n        /* \"#utility.yul\":25389:25394   */\n      0x00\n        /* \"#utility.yul\":25414:25478   */\n      tag_502\n        /* \"#utility.yul\":25443:25477   */\n      tag_503\n        /* \"#utility.yul\":25466:25476   */\n      dup4\n        /* \"#utility.yul\":25443:25477   */\n      tag_247\n      jump\t// in\n    tag_503:\n        /* \"#utility.yul\":25414:25478   */\n      tag_254\n      jump\t// in\n    tag_502:\n        /* \"#utility.yul\":25405:25478   */\n      swap1\n      pop\n        /* \"#utility.yul\":25322:25484   */\n      swap2\n      swap1\n      pop\n      jump\t// out\n        /* \"#utility.yul\":25490:25592   */\n    tag_256:\n        /* \"#utility.yul\":25532:25540   */\n      0x00\n        /* \"#utility.yul\":25579:25584   */\n      dup2\n        /* \"#utility.yul\":25576:25577   */\n      0x08\n        /* \"#utility.yul\":25572:25585   */\n      shr\n        /* \"#utility.yul\":25551:25585   */\n      swap1\n      pop\n        /* \"#utility.yul\":25490:25592   */\n      swap2\n      swap1\n      pop\n      jump\t// out\n        /* \"#utility.yul\":25598:25760   */\n    tag_257:\n        /* \"#utility.yul\":25665:25670   */\n      0x00\n        /* \"#utility.yul\":25690:25754   */\n      tag_506\n        /* \"#utility.yul\":25719:25753   */\n      tag_507\n        /* \"#utility.yul\":25742:25752   */\n      dup4\n        /* \"#utility.yul\":25719:25753   */\n      tag_256\n      jump\t// in\n    tag_507:\n        /* \"#utility.yul\":25690:25754   */\n      tag_254\n      jump\t// in\n    tag_506:\n        /* \"#utility.yul\":25681:25754   */\n      swap1\n      pop\n        /* \"#utility.yul\":25598:25760   */\n      swap2\n      swap1\n      pop\n      jump\t// out\n        /* \"#utility.yul\":25766:25864   */\n    tag_258:\n        /* \"#utility.yul\":25813:25820   */\n      0x00\n        /* \"#utility.yul\":25853:25857   */\n      0xff\n        /* \"#utility.yul\":25846:25851   */\n      dup3\n        /* \"#utility.yul\":25842:25858   */\n      and\n        /* \"#utility.yul\":25831:25858   */\n      swap1\n      pop\n        /* \"#utility.yul\":25766:25864   */\n      swap2\n      swap1\n      pop\n      jump\t// out\n        /* \"#utility.yul\":25870:26030   */\n    tag_259:\n        /* \"#utility.yul\":25936:25941   */\n      0x00\n        /* \"#utility.yul\":25961:26024   */\n      tag_510\n        /* \"#utility.yul\":25989:26023   */\n      tag_511\n        /* \"#utility.yul\":26012:26022   */\n      dup4\n        /* \"#utility.yul\":25989:26023   */\n      tag_247\n      jump\t// in\n    tag_511:\n        /* \"#utility.yul\":25961:26024   */\n      tag_258\n      jump\t// in\n    tag_510:\n        /* \"#utility.yul\":25952:26024   */\n      swap1\n      pop\n        /* \"#utility.yul\":25870:26030   */\n      swap2\n      swap1\n      pop\n      jump\t// out\n        /* \"#utility.yul\":26092:28753   */\n    tag_260:\n        /* \"#utility.yul\":26224:26227   */\n      0x00\n        /* \"#utility.yul\":26260:26266   */\n      0x0140\n        /* \"#utility.yul\":26255:26258   */\n      dup4\n        /* \"#utility.yul\":26251:26267   */\n      add\n        /* \"#utility.yul\":26293:26294   */\n      0x00\n        /* \"#utility.yul\":26369:26373   */\n      dup1\n        /* \"#utility.yul\":26362:26367   */\n      dup5\n        /* \"#utility.yul\":26358:26374   */\n      add\n        /* \"#utility.yul\":26352:26375   */\n      sload\n        /* \"#utility.yul\":26339:26375   */\n      swap1\n      pop\n        /* \"#utility.yul\":26408:26463   */\n      tag_513\n        /* \"#utility.yul\":26453:26462   */\n      dup2\n        /* \"#utility.yul\":26408:26463   */\n      tag_249\n      jump\t// in\n    tag_513:\n        /* \"#utility.yul\":26476:26539   */\n      tag_514\n        /* \"#utility.yul\":26533:26537   */\n      0x00\n        /* \"#utility.yul\":26528:26531   */\n      dup8\n        /* \"#utility.yul\":26524:26538   */\n      add\n        /* \"#utility.yul\":26510:26522   */\n      dup3\n        /* \"#utility.yul\":26476:26539   */\n      tag_197\n      jump\t// in\n    tag_514:\n        /* \"#utility.yul\":26304:26549   */\n      pop\n        /* \"#utility.yul\":26626:26630   */\n      0x01\n        /* \"#utility.yul\":26619:26624   */\n      dup5\n        /* \"#utility.yul\":26615:26631   */\n      add\n        /* \"#utility.yul\":26678:26681   */\n      dup6\n        /* \"#utility.yul\":26672:26676   */\n      dup4\n        /* \"#utility.yul\":26668:26682   */\n      sub\n        /* \"#utility.yul\":26661:26665   */\n      0x20\n        /* \"#utility.yul\":26656:26659   */\n      dup8\n        /* \"#utility.yul\":26652:26666   */\n      add\n        /* \"#utility.yul\":26645:26683   */\n      mstore\n        /* \"#utility.yul\":26704:26774   */\n      tag_515\n        /* \"#utility.yul\":26769:26773   */\n      dup4\n        /* \"#utility.yul\":26755:26767   */\n      dup3\n        /* \"#utility.yul\":26704:26774   */\n      tag_251\n      jump\t// in\n    tag_515:\n        /* \"#utility.yul\":26696:26774   */\n      swap3\n      pop\n        /* \"#utility.yul\":26559:26785   */\n      pop\n        /* \"#utility.yul\":26865:26869   */\n      0x02\n        /* \"#utility.yul\":26858:26863   */\n      dup5\n        /* \"#utility.yul\":26854:26870   */\n      add\n        /* \"#utility.yul\":26917:26920   */\n      dup6\n        /* \"#utility.yul\":26911:26915   */\n      dup4\n        /* \"#utility.yul\":26907:26921   */\n      sub\n        /* \"#utility.yul\":26900:26904   */\n      0x40\n        /* \"#utility.yul\":26895:26898   */\n      dup8\n        /* \"#utility.yul\":26891:26905   */\n      add\n        /* \"#utility.yul\":26884:26922   */\n      mstore\n        /* \"#utility.yul\":26943:27013   */\n      tag_516\n        /* \"#utility.yul\":27008:27012   */\n      dup4\n        /* \"#utility.yul\":26994:27006   */\n      dup3\n        /* \"#utility.yul\":26943:27013   */\n      tag_251\n      jump\t// in\n    tag_516:\n        /* \"#utility.yul\":26935:27013   */\n      swap3\n      pop\n        /* \"#utility.yul\":26795:27024   */\n      pop\n        /* \"#utility.yul\":27108:27112   */\n      0x03\n        /* \"#utility.yul\":27101:27106   */\n      dup5\n        /* \"#utility.yul\":27097:27113   */\n      add\n        /* \"#utility.yul\":27160:27163   */\n      dup6\n        /* \"#utility.yul\":27154:27158   */\n      dup4\n        /* \"#utility.yul\":27150:27164   */\n      sub\n        /* \"#utility.yul\":27143:27147   */\n      0x60\n        /* \"#utility.yul\":27138:27141   */\n      dup8\n        /* \"#utility.yul\":27134:27148   */\n      add\n        /* \"#utility.yul\":27127:27165   */\n      mstore\n        /* \"#utility.yul\":27186:27256   */\n      tag_517\n        /* \"#utility.yul\":27251:27255   */\n      dup4\n        /* \"#utility.yul\":27237:27249   */\n      dup3\n        /* \"#utility.yul\":27186:27256   */\n      tag_251\n      jump\t// in\n    tag_517:\n        /* \"#utility.yul\":27178:27256   */\n      swap3\n      pop\n        /* \"#utility.yul\":27034:27267   */\n      pop\n        /* \"#utility.yul\":27341:27345   */\n      0x04\n        /* \"#utility.yul\":27334:27339   */\n      dup5\n        /* \"#utility.yul\":27330:27346   */\n      add\n        /* \"#utility.yul\":27324:27347   */\n      sload\n        /* \"#utility.yul\":27311:27347   */\n      swap1\n      pop\n        /* \"#utility.yul\":27380:27435   */\n      tag_518\n        /* \"#utility.yul\":27425:27434   */\n      dup2\n        /* \"#utility.yul\":27380:27435   */\n      tag_253\n      jump\t// in\n    tag_518:\n        /* \"#utility.yul\":27448:27511   */\n      tag_519\n        /* \"#utility.yul\":27505:27509   */\n      0x80\n        /* \"#utility.yul\":27500:27503   */\n      dup8\n        /* \"#utility.yul\":27496:27510   */\n      add\n        /* \"#utility.yul\":27482:27494   */\n      dup3\n        /* \"#utility.yul\":27448:27511   */\n      tag_204\n      jump\t// in\n    tag_519:\n        /* \"#utility.yul\":27277:27521   */\n      pop\n        /* \"#utility.yul\":27599:27603   */\n      0x05\n        /* \"#utility.yul\":27592:27597   */\n      dup5\n        /* \"#utility.yul\":27588:27604   */\n      add\n        /* \"#utility.yul\":27582:27605   */\n      sload\n        /* \"#utility.yul\":27569:27605   */\n      swap1\n      pop\n        /* \"#utility.yul\":27638:27691   */\n      tag_520\n        /* \"#utility.yul\":27681:27690   */\n      dup2\n        /* \"#utility.yul\":27638:27691   */\n      tag_255\n      jump\t// in\n    tag_520:\n        /* \"#utility.yul\":27704:27763   */\n      tag_521\n        /* \"#utility.yul\":27757:27761   */\n      0xa0\n        /* \"#utility.yul\":27752:27755   */\n      dup8\n        /* \"#utility.yul\":27748:27762   */\n      add\n        /* \"#utility.yul\":27734:27746   */\n      dup3\n        /* \"#utility.yul\":27704:27763   */\n      tag_206\n      jump\t// in\n    tag_521:\n        /* \"#utility.yul\":27531:27773   */\n      pop\n        /* \"#utility.yul\":27843:27896   */\n      tag_522\n        /* \"#utility.yul\":27886:27895   */\n      dup2\n        /* \"#utility.yul\":27843:27896   */\n      tag_257\n      jump\t// in\n    tag_522:\n        /* \"#utility.yul\":27909:27968   */\n      tag_523\n        /* \"#utility.yul\":27962:27966   */\n      0xc0\n        /* \"#utility.yul\":27957:27960   */\n      dup8\n        /* \"#utility.yul\":27953:27967   */\n      add\n        /* \"#utility.yul\":27939:27951   */\n      dup3\n        /* \"#utility.yul\":27909:27968   */\n      tag_206\n      jump\t// in\n    tag_523:\n        /* \"#utility.yul\":27783:27978   */\n      pop\n        /* \"#utility.yul\":28061:28065   */\n      0x06\n        /* \"#utility.yul\":28054:28059   */\n      dup5\n        /* \"#utility.yul\":28050:28066   */\n      add\n        /* \"#utility.yul\":28113:28116   */\n      dup6\n        /* \"#utility.yul\":28107:28111   */\n      dup4\n        /* \"#utility.yul\":28103:28117   */\n      sub\n        /* \"#utility.yul\":28096:28100   */\n      0xe0\n        /* \"#utility.yul\":28091:28094   */\n      dup8\n        /* \"#utility.yul\":28087:28101   */\n      add\n        /* \"#utility.yul\":28080:28118   */\n      mstore\n        /* \"#utility.yul\":28139:28209   */\n      tag_524\n        /* \"#utility.yul\":28204:28208   */\n      dup4\n        /* \"#utility.yul\":28190:28202   */\n      dup3\n        /* \"#utility.yul\":28139:28209   */\n      tag_251\n      jump\t// in\n    tag_524:\n        /* \"#utility.yul\":28131:28209   */\n      swap3\n      pop\n        /* \"#utility.yul\":27988:28220   */\n      pop\n        /* \"#utility.yul\":28295:28299   */\n      0x07\n        /* \"#utility.yul\":28288:28293   */\n      dup5\n        /* \"#utility.yul\":28284:28300   */\n      add\n        /* \"#utility.yul\":28278:28301   */\n      sload\n        /* \"#utility.yul\":28265:28301   */\n      swap1\n      pop\n        /* \"#utility.yul\":28334:28389   */\n      tag_525\n        /* \"#utility.yul\":28379:28388   */\n      dup2\n        /* \"#utility.yul\":28334:28389   */\n      tag_253\n      jump\t// in\n    tag_525:\n        /* \"#utility.yul\":28402:28467   */\n      tag_526\n        /* \"#utility.yul\":28459:28465   */\n      0x0100\n        /* \"#utility.yul\":28454:28457   */\n      dup8\n        /* \"#utility.yul\":28450:28466   */\n      add\n        /* \"#utility.yul\":28436:28448   */\n      dup3\n        /* \"#utility.yul\":28402:28467   */\n      tag_204\n      jump\t// in\n    tag_526:\n        /* \"#utility.yul\":28230:28477   */\n      pop\n        /* \"#utility.yul\":28553:28557   */\n      0x08\n        /* \"#utility.yul\":28546:28551   */\n      dup5\n        /* \"#utility.yul\":28542:28558   */\n      add\n        /* \"#utility.yul\":28536:28559   */\n      sload\n        /* \"#utility.yul\":28523:28559   */\n      swap1\n      pop\n        /* \"#utility.yul\":28592:28644   */\n      tag_527\n        /* \"#utility.yul\":28634:28643   */\n      dup2\n        /* \"#utility.yul\":28592:28644   */\n      tag_259\n      jump\t// in\n    tag_527:\n        /* \"#utility.yul\":28657:28716   */\n      tag_528\n        /* \"#utility.yul\":28708:28714   */\n      0x0120\n        /* \"#utility.yul\":28703:28706   */\n      dup8\n        /* \"#utility.yul\":28699:28715   */\n      add\n        /* \"#utility.yul\":28685:28697   */\n      dup3\n        /* \"#utility.yul\":28657:28716   */\n      tag_208\n      jump\t// in\n    tag_528:\n        /* \"#utility.yul\":28487:28726   */\n      pop\n        /* \"#utility.yul\":28743:28747   */\n      dup2\n        /* \"#utility.yul\":28736:28747   */\n      swap3\n      pop\n        /* \"#utility.yul\":26229:28753   */\n      pop\n      pop\n        /* \"#utility.yul\":26092:28753   */\n      swap3\n      swap2\n      pop\n      pop\n      jump\t// out\n        /* \"#utility.yul\":28759:29465   */\n    tag_106:\n        /* \"#utility.yul\":29016:29020   */\n      0x00\n        /* \"#utility.yul\":29054:29056   */\n      0x40\n        /* \"#utility.yul\":29043:29052   */\n      dup3\n        /* \"#utility.yul\":29039:29057   */\n      add\n        /* \"#utility.yul\":29031:29057   */\n      swap1\n      pop\n        /* \"#utility.yul\":29103:29112   */\n      dup2\n        /* \"#utility.yul\":29097:29101   */\n      dup2\n        /* \"#utility.yul\":29093:29113   */\n      sub\n        /* \"#utility.yul\":29089:29090   */\n      0x00\n        /* \"#utility.yul\":29078:29087   */\n      dup4\n        /* \"#utility.yul\":29074:29091   */\n      add\n        /* \"#utility.yul\":29067:29114   */\n      mstore\n        /* \"#utility.yul\":29131:29262   */\n      tag_530\n        /* \"#utility.yul\":29257:29261   */\n      dup2\n        /* \"#utility.yul\":29131:29262   */\n      tag_246\n      jump\t// in\n    tag_530:\n        /* \"#utility.yul\":29123:29262   */\n      swap1\n      pop\n        /* \"#utility.yul\":29309:29318   */\n      dup2\n        /* \"#utility.yul\":29303:29307   */\n      dup2\n        /* \"#utility.yul\":29299:29319   */\n      sub\n        /* \"#utility.yul\":29294:29296   */\n      0x20\n        /* \"#utility.yul\":29283:29292   */\n      dup4\n        /* \"#utility.yul\":29279:29297   */\n      add\n        /* \"#utility.yul\":29272:29320   */\n      mstore\n        /* \"#utility.yul\":29337:29458   */\n      tag_531\n        /* \"#utility.yul\":29453:29457   */\n      dup2\n        /* \"#utility.yul\":29444:29450   */\n      dup5\n        /* \"#utility.yul\":29337:29458   */\n      tag_260\n      jump\t// in\n    tag_531:\n        /* \"#utility.yul\":29329:29458   */\n      swap1\n      pop\n        /* \"#utility.yul\":28759:29465   */\n      swap3\n      swap2\n      pop\n      pop\n      jump\t// out\n        /* \"#utility.yul\":29471:29700   */\n    tag_261:\n        /* \"#utility.yul\":29611:29645   */\n      0x4f6e6c7920636f6e7472616374206f776e65722063616e2063616c6c20746869\n        /* \"#utility.yul\":29607:29608   */\n      0x00\n        /* \"#utility.yul\":29599:29605   */\n      dup3\n        /* \"#utility.yul\":29595:29609   */\n      add\n        /* \"#utility.yul\":29588:29646   */\n      mstore\n        /* \"#utility.yul\":29680:29692   */\n      0x732066756e6374696f6e00000000000000000000000000000000000000000000\n        /* \"#utility.yul\":29675:29677   */\n      0x20\n        /* \"#utility.yul\":29667:29673   */\n      dup3\n        /* \"#utility.yul\":29663:29678   */\n      add\n        /* \"#utility.yul\":29656:29693   */\n      mstore\n        /* \"#utility.yul\":29471:29700   */\n      pop\n      jump\t// out\n        /* \"#utility.yul\":29706:30072   */\n    tag_262:\n        /* \"#utility.yul\":29848:29851   */\n      0x00\n        /* \"#utility.yul\":29869:29936   */\n      tag_534\n        /* \"#utility.yul\":29933:29935   */\n      0x2a\n        /* \"#utility.yul\":29928:29931   */\n      dup4\n        /* \"#utility.yul\":29869:29936   */\n      tag_234\n      jump\t// in\n    tag_534:\n        /* \"#utility.yul\":29862:29936   */\n      swap2\n      pop\n        /* \"#utility.yul\":29945:30038   */\n      tag_535\n        /* \"#utility.yul\":30034:30037   */\n      dup3\n        /* \"#utility.yul\":29945:30038   */\n      tag_261\n      jump\t// in\n    tag_535:\n        /* \"#utility.yul\":30063:30065   */\n      0x40\n        /* \"#utility.yul\":30058:30061   */\n      dup3\n        /* \"#utility.yul\":30054:30066   */\n      add\n        /* \"#utility.yul\":30047:30066   */\n      swap1\n      pop\n        /* \"#utility.yul\":29706:30072   */\n      swap2\n      swap1\n      pop\n      jump\t// out\n        /* \"#utility.yul\":30078:30497   */\n    tag_111:\n        /* \"#utility.yul\":30244:30248   */\n      0x00\n        /* \"#utility.yul\":30282:30284   */\n      0x20\n        /* \"#utility.yul\":30271:30280   */\n      dup3\n        /* \"#utility.yul\":30267:30285   */\n      add\n        /* \"#utility.yul\":30259:30285   */\n      swap1\n      pop\n        /* \"#utility.yul\":30331:30340   */\n      dup2\n        /* \"#utility.yul\":30325:30329   */\n      dup2\n        /* \"#utility.yul\":30321:30341   */\n      sub\n        /* \"#utility.yul\":30317:30318   */\n      0x00\n        /* \"#utility.yul\":30306:30315   */\n      dup4\n        /* \"#utility.yul\":30302:30319   */\n      add\n        /* \"#utility.yul\":30295:30342   */\n      mstore\n        /* \"#utility.yul\":30359:30490   */\n      tag_537\n        /* \"#utility.yul\":30485:30489   */\n      dup2\n        /* \"#utility.yul\":30359:30490   */\n      tag_262\n      jump\t// in\n    tag_537:\n        /* \"#utility.yul\":30351:30490   */\n      swap1\n      pop\n        /* \"#utility.yul\":30078:30497   */\n      swap2\n      swap1\n      pop\n      jump\t// out\n        /* \"#utility.yul\":30503:30596   */\n    tag_263:\n        /* \"#utility.yul\":30540:30546   */\n      0x00\n        /* \"#utility.yul\":30587:30589   */\n      0x20\n        /* \"#utility.yul\":30582:30584   */\n      0x1f\n        /* \"#utility.yul\":30575:30580   */\n      dup4\n        /* \"#utility.yul\":30571:30585   */\n      add\n        /* \"#utility.yul\":30567:30590   */\n      div\n        /* \"#utility.yul\":30557:30590   */\n      swap1\n      pop\n        /* \"#utility.yul\":30503:30596   */\n      swap2\n      swap1\n      pop\n      jump\t// out\n        /* \"#utility.yul\":30602:30709   */\n    tag_264:\n        /* \"#utility.yul\":30646:30654   */\n      0x00\n        /* \"#utility.yul\":30696:30701   */\n      dup3\n        /* \"#utility.yul\":30690:30694   */\n      dup3\n        /* \"#utility.yul\":30686:30702   */\n      shl\n        /* \"#utility.yul\":30665:30702   */\n      swap1\n      pop\n        /* \"#utility.yul\":30602:30709   */\n      swap3\n      swap2\n      pop\n      pop\n      jump\t// out\n        /* \"#utility.yul\":30715:31108   */\n    tag_265:\n        /* \"#utility.yul\":30784:30790   */\n      0x00\n        /* \"#utility.yul\":30834:30835   */\n      0x08\n        /* \"#utility.yul\":30822:30832   */\n      dup4\n        /* \"#utility.yul\":30818:30836   */\n      mul\n        /* \"#utility.yul\":30857:30954   */\n      tag_541\n        /* \"#utility.yul\":30887:30953   */\n      0xffffffffffffffffffffffffffffffffffffffffffffffffffffffffffffffff\n        /* \"#utility.yul\":30876:30885   */\n      dup3\n        /* \"#utility.yul\":30857:30954   */\n      tag_264\n      jump\t// in\n    tag_541:\n        /* \"#utility.yul\":30975:31014   */\n      tag_542\n        /* \"#utility.yul\":31005:31013   */\n      dup7\n        /* \"#utility.yul\":30994:31003   */\n      dup4\n        /* \"#utility.yul\":30975:31014   */\n      tag_264\n      jump\t// in\n    tag_542:\n        /* \"#utility.yul\":30963:31014   */\n      swap6\n      pop\n        /* \"#utility.yul\":31047:31051   */\n      dup1\n        /* \"#utility.yul\":31043:31052   */\n      not\n        /* \"#utility.yul\":31036:31041   */\n      dup5\n        /* \"#utility.yul\":31032:31053   */\n      and\n        /* \"#utility.yul\":31023:31053   */\n      swap4\n      pop\n        /* \"#utility.yul\":31096:31100   */\n      dup1\n        /* \"#utility.yul\":31086:31094   */\n      dup7\n        /* \"#utility.yul\":31082:31101   */\n      and\n        /* \"#utility.yul\":31075:31080   */\n      dup5\n        /* \"#utility.yul\":31072:31102   */\n      or\n        /* \"#utility.yul\":31062:31102   */\n      swap3\n      pop\n        /* \"#utility.yul\":30791:31108   */\n      pop\n      pop\n        /* \"#utility.yul\":30715:31108   */\n      swap4\n      swap3\n      pop\n      pop\n      pop\n      jump\t// out\n        /* \"#utility.yul\":31114:31174   */\n    tag_266:\n        /* \"#utility.yul\":31142:31145   */\n      0x00\n        /* \"#utility.yul\":31163:31168   */\n      dup2\n        /* \"#utility.yul\":31156:31168   */\n      swap1\n      pop\n        /* \"#utility.yul\":31114:31174   */\n      swap2\n      swap1\n      pop\n      jump\t// out\n        /* \"#utility.yul\":31180:31322   */\n    tag_267:\n        /* \"#utility.yul\":31230:31239   */\n      0x00\n        /* \"#utility.yul\":31263:31316   */\n      tag_545\n        /* \"#utility.yul\":31281:31315   */\n      tag_546\n        /* \"#utility.yul\":31290:31314   */\n      tag_547\n        /* \"#utility.yul\":31308:31313   */\n      dup5\n        /* \"#utility.yul\":31290:31314   */\n      tag_203\n      jump\t// in\n    tag_547:\n        /* \"#utility.yul\":31281:31315   */\n      tag_266\n      jump\t// in\n    tag_546:\n        /* \"#utility.yul\":31263:31316   */\n      tag_203\n      jump\t// in\n    tag_545:\n        /* \"#utility.yul\":31250:31316   */\n      swap1\n      pop\n        /* \"#utility.yul\":31180:31322   */\n      swap2\n      swap1\n      pop\n      jump\t// out\n        /* \"#utility.yul\":31328:31403   */\n    tag_268:\n        /* \"#utility.yul\":31371:31374   */\n      0x00\n        /* \"#utility.yul\":31392:31397   */\n      dup2\n        /* \"#utility.yul\":31385:31397   */\n      swap1\n      pop\n        /* \"#utility.yul\":31328:31403   */\n      swap2\n      swap1\n      pop\n      jump\t// out\n        /* \"#utility.yul\":31409:31678   */\n    tag_269:\n        /* \"#utility.yul\":31519:31558   */\n      tag_550\n        /* \"#utility.yul\":31550:31557   */\n      dup4\n        /* \"#utility.yul\":31519:31558   */\n      tag_267\n      jump\t// in\n    tag_550:\n        /* \"#utility.yul\":31580:31671   */\n      tag_551\n        /* \"#utility.yul\":31629:31670   */\n      tag_552\n        /* \"#utility.yul\":31653:31669   */\n      dup3\n        /* \"#utility.yul\":31629:31670   */\n      tag_268\n      jump\t// in\n    tag_552:\n        /* \"#utility.yul\":31621:31627   */\n      dup5\n        /* \"#utility.yul\":31614:31618   */\n      dup5\n        /* \"#utility.yul\":31608:31619   */\n      sload\n        /* \"#utility.yul\":31580:31671   */\n      tag_265\n      jump\t// in\n    tag_551:\n        /* \"#utility.yul\":31574:31578   */\n      dup3\n        /* \"#utility.yul\":31567:31672   */\n      sstore\n        /* \"#utility.yul\":31485:31678   */\n      pop\n        /* \"#utility.yul\":31409:31678   */\n      pop\n      pop\n      pop\n      jump\t// out\n        /* \"#utility.yul\":31684:31757   */\n    tag_270:\n        /* \"#utility.yul\":31729:31732   */\n      0x00\n        /* \"#utility.yul\":31684:31757   */\n      swap1\n      jump\t// out\n        /* \"#utility.yul\":31763:31952   */\n    tag_271:\n        /* \"#utility.yul\":31840:31872   */\n      tag_555\n      tag_270\n      jump\t// in\n    tag_555:\n        /* \"#utility.yul\":31881:31946   */\n      tag_556\n        /* \"#utility.yul\":31939:31945   */\n      dup2\n        /* \"#utility.yul\":31931:31937   */\n      dup5\n        /* \"#utility.yul\":31925:31929   */\n      dup5\n        /* \"#utility.yul\":31881:31946   */\n      tag_269\n      jump\t// in\n    tag_556:\n        /* \"#utility.yul\":31816:31952   */\n      pop\n        /* \"#utility.yul\":31763:31952   */\n      pop\n      pop\n      jump\t// out\n        /* \"#utility.yul\":31958:32144   */\n    tag_272:\n        /* \"#utility.yul\":32018:32138   */\n    tag_558:\n        /* \"#utility.yul\":32035:32038   */\n      dup2\n        /* \"#utility.yul\":32028:32033   */\n      dup2\n        /* \"#utility.yul\":32025:32039   */\n      lt\n        /* \"#utility.yul\":32018:32138   */\n      iszero\n      tag_560\n      jumpi\n        /* \"#utility.yul\":32089:32128   */\n      tag_561\n        /* \"#utility.yul\":32126:32127   */\n      0x00\n        /* \"#utility.yul\":32119:32124   */\n      dup3\n        /* \"#utility.yul\":32089:32128   */\n      tag_271\n      jump\t// in\n    tag_561:\n        /* \"#utility.yul\":32062:32063   */\n      0x01\n        /* \"#utility.yul\":32055:32060   */\n      dup2\n        /* \"#utility.yul\":32051:32064   */\n      add\n        /* \"#utility.yul\":32042:32064   */\n      swap1\n      pop\n        /* \"#utility.yul\":32018:32138   */\n      jump(tag_558)\n    tag_560:\n        /* \"#utility.yul\":31958:32144   */\n      pop\n      pop\n      jump\t// out\n        /* \"#utility.yul\":32150:32693   */\n    tag_273:\n        /* \"#utility.yul\":32251:32253   */\n      0x1f\n        /* \"#utility.yul\":32246:32249   */\n      dup3\n        /* \"#utility.yul\":32243:32254   */\n      gt\n        /* \"#utility.yul\":32240:32686   */\n      iszero\n      tag_563\n      jumpi\n        /* \"#utility.yul\":32285:32323   */\n      tag_564\n        /* \"#utility.yul\":32317:32322   */\n      dup2\n        /* \"#utility.yul\":32285:32323   */\n      tag_250\n      jump\t// in\n    tag_564:\n        /* \"#utility.yul\":32369:32398   */\n      tag_565\n        /* \"#utility.yul\":32387:32397   */\n      dup5\n        /* \"#utility.yul\":32369:32398   */\n      tag_263\n      jump\t// in\n    tag_565:\n        /* \"#utility.yul\":32359:32367   */\n      dup2\n        /* \"#utility.yul\":32355:32399   */\n      add\n        /* \"#utility.yul\":32552:32554   */\n      0x20\n        /* \"#utility.yul\":32540:32550   */\n      dup6\n        /* \"#utility.yul\":32537:32555   */\n      lt\n        /* \"#utility.yul\":32534:32583   */\n      iszero\n      tag_566\n      jumpi\n        /* \"#utility.yul\":32573:32581   */\n      dup2\n        /* \"#utility.yul\":32558:32581   */\n      swap1\n      pop\n        /* \"#utility.yul\":32534:32583   */\n    tag_566:\n        /* \"#utility.yul\":32596:32676   */\n      tag_567\n        /* \"#utility.yul\":32652:32674   */\n      tag_568\n        /* \"#utility.yul\":32670:32673   */\n      dup6\n        /* \"#utility.yul\":32652:32674   */\n      tag_263\n      jump\t// in\n    tag_568:\n        /* \"#utility.yul\":32642:32650   */\n      dup4\n        /* \"#utility.yul\":32638:32675   */\n      add\n        /* \"#utility.yul\":32625:32636   */\n      dup3\n        /* \"#utility.yul\":32596:32676   */\n      tag_272\n      jump\t// in\n    tag_567:\n        /* \"#utility.yul\":32255:32686   */\n      pop\n      pop\n        /* \"#utility.yul\":32240:32686   */\n    tag_563:\n        /* \"#utility.yul\":32150:32693   */\n      pop\n      pop\n      pop\n      jump\t// out\n        /* \"#utility.yul\":32699:32816   */\n    tag_274:\n        /* \"#utility.yul\":32753:32761   */\n      0x00\n        /* \"#utility.yul\":32803:32808   */\n      dup3\n        /* \"#utility.yul\":32797:32801   */\n      dup3\n        /* \"#utility.yul\":32793:32809   */\n      shr\n        /* \"#utility.yul\":32772:32809   */\n      swap1\n      pop\n        /* \"#utility.yul\":32699:32816   */\n      swap3\n      swap2\n      pop\n      pop\n      jump\t// out\n        /* \"#utility.yul\":32822:32991   */\n    tag_275:\n        /* \"#utility.yul\":32866:32872   */\n      0x00\n        /* \"#utility.yul\":32899:32950   */\n      tag_571\n        /* \"#utility.yul\":32947:32948   */\n      0x00\n        /* \"#utility.yul\":32943:32949   */\n      not\n        /* \"#utility.yul\":32935:32940   */\n      dup5\n        /* \"#utility.yul\":32932:32933   */\n      0x08\n        /* \"#utility.yul\":32928:32941   */\n      mul\n        /* \"#utility.yul\":32899:32950   */\n      tag_274\n      jump\t// in\n    tag_571:\n        /* \"#utility.yul\":32895:32951   */\n      not\n        /* \"#utility.yul\":32980:32984   */\n      dup1\n        /* \"#utility.yul\":32974:32978   */\n      dup4\n        /* \"#utility.yul\":32970:32985   */\n      and\n        /* \"#utility.yul\":32960:32985   */\n      swap2\n      pop\n        /* \"#utility.yul\":32873:32991   */\n      pop\n        /* \"#utility.yul\":32822:32991   */\n      swap3\n      swap2\n      pop\n      pop\n      jump\t// out\n        /* \"#utility.yul\":32996:33291   */\n    tag_276:\n        /* \"#utility.yul\":33072:33076   */\n      0x00\n        /* \"#utility.yul\":33218:33247   */\n      tag_573\n        /* \"#utility.yul\":33243:33246   */\n      dup4\n        /* \"#utility.yul\":33237:33241   */\n      dup4\n        /* \"#utility.yul\":33218:33247   */\n      tag_275\n      jump\t// in\n    tag_573:\n        /* \"#utility.yul\":33210:33247   */\n      swap2\n      pop\n        /* \"#utility.yul\":33280:33283   */\n      dup3\n        /* \"#utility.yul\":33277:33278   */\n      0x02\n        /* \"#utility.yul\":33273:33284   */\n      mul\n        /* \"#utility.yul\":33267:33271   */\n      dup3\n        /* \"#utility.yul\":33264:33285   */\n      or\n        /* \"#utility.yul\":33256:33285   */\n      swap1\n      pop\n        /* \"#utility.yul\":32996:33291   */\n      swap3\n      swap2\n      pop\n      pop\n      jump\t// out\n        /* \"#utility.yul\":33296:34691   */\n    tag_155:\n        /* \"#utility.yul\":33413:33450   */\n      tag_575\n        /* \"#utility.yul\":33446:33449   */\n      dup3\n        /* \"#utility.yul\":33413:33450   */\n      tag_198\n      jump\t// in\n    tag_575:\n        /* \"#utility.yul\":33515:33533   */\n      0xffffffffffffffff\n        /* \"#utility.yul\":33507:33513   */\n      dup2\n        /* \"#utility.yul\":33504:33534   */\n      gt\n        /* \"#utility.yul\":33501:33557   */\n      iszero\n      tag_576\n      jumpi\n        /* \"#utility.yul\":33537:33555   */\n      tag_577\n      tag_225\n      jump\t// in\n    tag_577:\n        /* \"#utility.yul\":33501:33557   */\n    tag_576:\n        /* \"#utility.yul\":33581:33619   */\n      tag_578\n        /* \"#utility.yul\":33613:33617   */\n      dup3\n        /* \"#utility.yul\":33607:33618   */\n      sload\n        /* \"#utility.yul\":33581:33619   */\n      tag_69\n      jump\t// in\n    tag_578:\n        /* \"#utility.yul\":33666:33733   */\n      tag_579\n        /* \"#utility.yul\":33726:33732   */\n      dup3\n        /* \"#utility.yul\":33718:33724   */\n      dup3\n        /* \"#utility.yul\":33712:33716   */\n      dup6\n        /* \"#utility.yul\":33666:33733   */\n      tag_273\n      jump\t// in\n    tag_579:\n        /* \"#utility.yul\":33760:33761   */\n      0x00\n        /* \"#utility.yul\":33784:33788   */\n      0x20\n        /* \"#utility.yul\":33771:33788   */\n      swap1\n      pop\n        /* \"#utility.yul\":33816:33818   */\n      0x1f\n        /* \"#utility.yul\":33808:33814   */\n      dup4\n        /* \"#utility.yul\":33805:33819   */\n      gt\n        /* \"#utility.yul\":33833:33834   */\n      0x01\n        /* \"#utility.yul\":33828:34446   */\n      dup2\n      eq\n      tag_581\n      jumpi\n        /* \"#utility.yul\":34490:34491   */\n      0x00\n        /* \"#utility.yul\":34507:34513   */\n      dup5\n        /* \"#utility.yul\":34504:34581   */\n      iszero\n      tag_582\n      jumpi\n        /* \"#utility.yul\":34556:34565   */\n      dup3\n        /* \"#utility.yul\":34551:34554   */\n      dup8\n        /* \"#utility.yul\":34547:34566   */\n      add\n        /* \"#utility.yul\":34541:34567   */\n      mload\n        /* \"#utility.yul\":34532:34567   */\n      swap1\n      pop\n        /* \"#utility.yul\":34504:34581   */\n    tag_582:\n        /* \"#utility.yul\":34607:34674   */\n      tag_583\n        /* \"#utility.yul\":34667:34673   */\n      dup6\n        /* \"#utility.yul\":34660:34665   */\n      dup3\n        /* \"#utility.yul\":34607:34674   */\n      tag_276\n      jump\t// in\n    tag_583:\n        /* \"#utility.yul\":34601:34605   */\n      dup7\n        /* \"#utility.yul\":34594:34675   */\n      sstore\n        /* \"#utility.yul\":34463:34685   */\n      pop\n        /* \"#utility.yul\":33798:34685   */\n      jump(tag_580)\n        /* \"#utility.yul\":33828:34446   */\n    tag_581:\n        /* \"#utility.yul\":33880:33884   */\n      0x1f\n        /* \"#utility.yul\":33876:33885   */\n      not\n        /* \"#utility.yul\":33868:33874   */\n      dup5\n        /* \"#utility.yul\":33864:33886   */\n      and\n        /* \"#utility.yul\":33914:33951   */\n      tag_584\n        /* \"#utility.yul\":33946:33950   */\n      dup7\n        /* \"#utility.yul\":33914:33951   */\n      tag_250\n      jump\t// in\n    tag_584:\n        /* \"#utility.yul\":33973:33974   */\n      0x00\n        /* \"#utility.yul\":33987:34195   */\n    tag_585:\n        /* \"#utility.yul\":34001:34008   */\n      dup3\n        /* \"#utility.yul\":33998:33999   */\n      dup2\n        /* \"#utility.yul\":33995:34009   */\n      lt\n        /* \"#utility.yul\":33987:34195   */\n      iszero\n      tag_587\n      jumpi\n        /* \"#utility.yul\":34080:34089   */\n      dup5\n        /* \"#utility.yul\":34075:34078   */\n      dup10\n        /* \"#utility.yul\":34071:34090   */\n      add\n        /* \"#utility.yul\":34065:34091   */\n      mload\n        /* \"#utility.yul\":34057:34063   */\n      dup3\n        /* \"#utility.yul\":34050:34092   */\n      sstore\n        /* \"#utility.yul\":34131:34132   */\n      0x01\n        /* \"#utility.yul\":34123:34129   */\n      dup3\n        /* \"#utility.yul\":34119:34133   */\n      add\n        /* \"#utility.yul\":34109:34133   */\n      swap2\n      pop\n        /* \"#utility.yul\":34178:34180   */\n      0x20\n        /* \"#utility.yul\":34167:34176   */\n      dup6\n        /* \"#utility.yul\":34163:34181   */\n      add\n        /* \"#utility.yul\":34150:34181   */\n      swap5\n      pop\n        /* \"#utility.yul\":34024:34028   */\n      0x20\n        /* \"#utility.yul\":34021:34022   */\n      dup2\n        /* \"#utility.yul\":34017:34029   */\n      add\n        /* \"#utility.yul\":34012:34029   */\n      swap1\n      pop\n        /* \"#utility.yul\":33987:34195   */\n      jump(tag_585)\n    tag_587:\n        /* \"#utility.yul\":34223:34229   */\n      dup7\n        /* \"#utility.yul\":34214:34221   */\n      dup4\n        /* \"#utility.yul\":34211:34230   */\n      lt\n        /* \"#utility.yul\":34208:34387   */\n      iszero\n      tag_588\n      jumpi\n        /* \"#utility.yul\":34281:34290   */\n      dup5\n        /* \"#utility.yul\":34276:34279   */\n      dup10\n        /* \"#utility.yul\":34272:34291   */\n      add\n        /* \"#utility.yul\":34266:34292   */\n      mload\n        /* \"#utility.yul\":34324:34372   */\n      tag_589\n        /* \"#utility.yul\":34366:34370   */\n      0x1f\n        /* \"#utility.yul\":34358:34364   */\n      dup10\n        /* \"#utility.yul\":34354:34371   */\n      and\n        /* \"#utility.yul\":34343:34352   */\n      dup3\n        /* \"#utility.yul\":34324:34372   */\n      tag_275\n      jump\t// in\n    tag_589:\n        /* \"#utility.yul\":34316:34322   */\n      dup4\n        /* \"#utility.yul\":34309:34373   */\n      sstore\n        /* \"#utility.yul\":34231:34387   */\n      pop\n        /* \"#utility.yul\":34208:34387   */\n    tag_588:\n        /* \"#utility.yul\":34433:34434   */\n      0x01\n        /* \"#utility.yul\":34429:34430   */\n      0x02\n        /* \"#utility.yul\":34421:34427   */\n      dup9\n        /* \"#utility.yul\":34417:34431   */\n      mul\n        /* \"#utility.yul\":34413:34435   */\n      add\n        /* \"#utility.yul\":34407:34411   */\n      dup9\n        /* \"#utility.yul\":34400:34436   */\n      sstore\n        /* \"#utility.yul\":33835:34446   */\n      pop\n      pop\n      pop\n        /* \"#utility.yul\":33798:34685   */\n    tag_580:\n      pop\n        /* \"#utility.yul\":33388:34691   */\n      pop\n      pop\n      pop\n        /* \"#utility.yul\":33296:34691   */\n      pop\n      pop\n      jump\t// out\n        /* \"#utility.yul\":34697:34862   */\n    tag_277:\n        /* \"#utility.yul\":34837:34854   */\n      0x50726f7065727479204c69737465640000000000000000000000000000000000\n        /* \"#utility.yul\":34833:34834   */\n      0x00\n        /* \"#utility.yul\":34825:34831   */\n      dup3\n        /* \"#utility.yul\":34821:34835   */\n      add\n        /* \"#utility.yul\":34814:34855   */\n      mstore\n        /* \"#utility.yul\":34697:34862   */\n      pop\n      jump\t// out\n        /* \"#utility.yul\":34868:35234   */\n    tag_278:\n        /* \"#utility.yul\":35010:35013   */\n      0x00\n        /* \"#utility.yul\":35031:35098   */\n      tag_592\n        /* \"#utility.yul\":35095:35097   */\n      0x0f\n        /* \"#utility.yul\":35090:35093   */\n      dup4\n        /* \"#utility.yul\":35031:35098   */\n      tag_234\n      jump\t// in\n    tag_592:\n        /* \"#utility.yul\":35024:35098   */\n      swap2\n      pop\n        /* \"#utility.yul\":35107:35200   */\n      tag_593\n        /* \"#utility.yul\":35196:35199   */\n      dup3\n        /* \"#utility.yul\":35107:35200   */\n      tag_277\n      jump\t// in\n    tag_593:\n        /* \"#utility.yul\":35225:35227   */\n      0x20\n        /* \"#utility.yul\":35220:35223   */\n      dup3\n        /* \"#utility.yul\":35216:35228   */\n      add\n        /* \"#utility.yul\":35209:35228   */\n      swap1\n      pop\n        /* \"#utility.yul\":34868:35234   */\n      swap2\n      swap1\n      pop\n      jump\t// out\n        /* \"#utility.yul\":35240:35944   */\n    tag_160:\n        /* \"#utility.yul\":35496:35500   */\n      0x00\n        /* \"#utility.yul\":35534:35536   */\n      0x40\n        /* \"#utility.yul\":35523:35532   */\n      dup3\n        /* \"#utility.yul\":35519:35537   */\n      add\n        /* \"#utility.yul\":35511:35537   */\n      swap1\n      pop\n        /* \"#utility.yul\":35583:35592   */\n      dup2\n        /* \"#utility.yul\":35577:35581   */\n      dup2\n        /* \"#utility.yul\":35573:35593   */\n      sub\n        /* \"#utility.yul\":35569:35570   */\n      0x00\n        /* \"#utility.yul\":35558:35567   */\n      dup4\n        /* \"#utility.yul\":35554:35571   */\n      add\n        /* \"#utility.yul\":35547:35594   */\n      mstore\n        /* \"#utility.yul\":35611:35742   */\n      tag_595\n        /* \"#utility.yul\":35737:35741   */\n      dup2\n        /* \"#utility.yul\":35611:35742   */\n      tag_278\n      jump\t// in\n    tag_595:\n        /* \"#utility.yul\":35603:35742   */\n      swap1\n      pop\n        /* \"#utility.yul\":35789:35798   */\n      dup2\n        /* \"#utility.yul\":35783:35787   */\n      dup2\n        /* \"#utility.yul\":35779:35799   */\n      sub\n        /* \"#utility.yul\":35774:35776   */\n      0x20\n        /* \"#utility.yul\":35763:35772   */\n      dup4\n        /* \"#utility.yul\":35759:35777   */\n      add\n        /* \"#utility.yul\":35752:35800   */\n      mstore\n        /* \"#utility.yul\":35817:35937   */\n      tag_596\n        /* \"#utility.yul\":35932:35936   */\n      dup2\n        /* \"#utility.yul\":35923:35929   */\n      dup5\n        /* \"#utility.yul\":35817:35937   */\n      tag_222\n      jump\t// in\n    tag_596:\n        /* \"#utility.yul\":35809:35937   */\n      swap1\n      pop\n        /* \"#utility.yul\":35240:35944   */\n      swap3\n      swap2\n      pop\n      pop\n      jump\t// out\n\n    auxdata: 0xa2646970667358221220925710bdb9703ccbc72384776de5db7c68fb937812b2384e79df64421bf994bf64736f6c63430008180033\n}\n","bytecode":{"linkReferences":{},"object":"608060405234801561000f575f80fd5b503360015f6101000a81548173ffffffffffffffffffffffffffffffffffffffff021916908373ffffffffffffffffffffffffffffffffffffffff16021790555061247f8061005d5f395ff3fe608060405260043610610090575f3560e01c8063d41861b311610058578063d41861b314610156578063e34fc53114610192578063ec50f185146101ce578063f7b10808146101f6578063fce401b21461023b57610090565b80633d51402c146100945780636fa830a6146100be5780637326b901146100da5780638da5cb5b146101045780639c0c891f1461012e575b5f80fd5b34801561009f575f80fd5b506100a8610263565b6040516100b591906115da565b60405180910390f35b6100d860048036038101906100d39190611635565b6105ba565b005b3480156100e5575f80fd5b506100ee6107c6565b6040516100fb919061166f565b60405180910390f35b34801561010f575f80fd5b506101186107d1565b6040516101259190611697565b60405180910390f35b348015610139575f80fd5b50610154600480360381019061014f91906116da565b6107f6565b005b348015610161575f80fd5b5061017c60048036038101906101779190611635565b610908565b6040516101899190611804565b60405180910390f35b34801561019d575f80fd5b506101b860048036038101906101b39190611635565b610c83565b6040516101c59190611697565b60405180910390f35b3480156101d9575f80fd5b506101f460048036038101906101ef919061197a565b610d12565b005b348015610201575f80fd5b5061021c60048036038101906102179190611635565b610ef8565b6040516102329a99989796959493929190611b01565b60405180910390f35b348015610246575f80fd5b50610261600480360381019061025c9190611bb7565b6111b2565b005b60605f805480602002602001604051908101604052809291908181526020015f905b828210156105b1578382905f5260205f209060090201604051806101400160405290815f82015f9054906101000a900473ffffffffffffffffffffffffffffffffffffffff1673ffffffffffffffffffffffffffffffffffffffff1673ffffffffffffffffffffffffffffffffffffffff16815260200160018201805461030b90611c22565b80601f016020809104026020016040519081016040528092919081815260200182805461033790611c22565b80156103825780601f1061035957610100808354040283529160200191610382565b820191905f5260205f20905b81548152906001019060200180831161036557829003601f168201915b5050505050815260200160028201805461039b90611c22565b80601f01602080910402602001604051908101604052809291908181526020018280546103c790611c22565b80156104125780601f106103e957610100808354040283529160200191610412565b820191905f5260205f20905b8154815290600101906020018083116103f557829003601f168201915b5050505050815260200160038201805461042b90611c22565b80601f016020809104026020016040519081016040528092919081815260200182805461045790611c22565b80156104a25780601f10610479576101008083540402835291602001916104a2565b820191905f5260205f20905b81548152906001019060200180831161048557829003601f168201915b5050505050815260200160048201548152602001600582015f9054906101000a900460ff1660ff1660ff1681526020016005820160019054906101000a900460ff1660ff1660ff1681526020016006820180546104fe90611c22565b80601f016020809104026020016040519081016040528092919081815260200182805461052a90611c22565b80156105755780601f1061054c57610100808354040283529160200191610575565b820191905f5260205f20905b81548152906001019060200180831161055857829003601f168201915b5050505050815260200160078201548152602001600882015f9054906101000a900460ff16151515158152505081526020019060010190610285565b50505050905090565b5f805490508110610600576040517f08c379a00000000000000000000000000000000000000000000000000000000081526004016105f790611c9c565b60405180910390fd5b5f80828154811061061457610613611cba565b5b905f5260205f20906009020190508060070154341015610669576040517f08c379a000000000000000000000000000000000000000000000000000000000815260040161066090611d31565b60405180910390fd5b60011515816008015f9054906101000a900460ff161515146106c0576040517f08c379a00000000000000000000000000000000000000000000000000000000081526004016106b790611dbf565b60405180910390fd5b5f815f015f9054906101000a900473ffffffffffffffffffffffffffffffffffffffff1690508073ffffffffffffffffffffffffffffffffffffffff166108fc836007015490811502906040515f60405180830381858888f1935050505015801561072d573d5f803e3d5ffd5b5033825f015f6101000a81548173ffffffffffffffffffffffffffffffffffffffff021916908373ffffffffffffffffffffffffffffffffffffffff1602179055505f826008015f6101000a81548160ff0219169083151502179055507fc269743a66b963335309cec39908827bc3b9b7a90ba11dee190f0b3774efa03a826040516107b991906120b1565b60405180910390a1505050565b5f8080549050905090565b60015f9054906101000a900473ffffffffffffffffffffffffffffffffffffffff1681565b60015f9054906101000a900473ffffffffffffffffffffffffffffffffffffffff1673ffffffffffffffffffffffffffffffffffffffff163373ffffffffffffffffffffffffffffffffffffffff1614610885576040517f08c379a000000000000000000000000000000000000000000000000000000000815260040161087c90612154565b60405180910390fd5b5f8054905082106108cb576040517f08c379a00000000000000000000000000000000000000000000000000000000081526004016108c290611c9c565b60405180910390fd5b805f83815481106108df576108de611cba565b5b905f5260205f2090600902016008015f6101000a81548160ff0219169083151502179055505050565b6109106112b2565b5f805490508210610956576040517f08c379a000000000000000000000000000000000000000000000000000000000815260040161094d90611c9c565b60405180910390fd5b5f828154811061096957610968611cba565b5b905f5260205f209060090201604051806101400160405290815f82015f9054906101000a900473ffffffffffffffffffffffffffffffffffffffff1673ffffffffffffffffffffffffffffffffffffffff1673ffffffffffffffffffffffffffffffffffffffff1681526020016001820180546109e590611c22565b80601f0160208091040260200160405190810160405280929190818152602001828054610a1190611c22565b8015610a5c5780601f10610a3357610100808354040283529160200191610a5c565b820191905f5260205f20905b815481529060010190602001808311610a3f57829003601f168201915b50505050508152602001600282018054610a7590611c22565b80601f0160208091040260200160405190810160405280929190818152602001828054610aa190611c22565b8015610aec5780601f10610ac357610100808354040283529160200191610aec565b820191905f5260205f20905b815481529060010190602001808311610acf57829003601f168201915b50505050508152602001600382018054610b0590611c22565b80601f0160208091040260200160405190810160405280929190818152602001828054610b3190611c22565b8015610b7c5780601f10610b5357610100808354040283529160200191610b7c565b820191905f5260205f20905b815481529060010190602001808311610b5f57829003601f168201915b5050505050815260200160048201548152602001600582015f9054906101000a900460ff1660ff1660ff1681526020016005820160019054906101000a900460ff1660ff1660ff168152602001600682018054610bd890611c22565b80601f0160208091040260200160405190810160405280929190818152602001828054610c0490611c22565b8015610c4f5780601f10610c2657610100808354040283529160200191610c4f565b820191905f5260205f20905b815481529060010190602001808311610c3257829003601f168201915b5050505050815260200160078201548152602001600882015f9054906101000a900460ff1615151515815250509050919050565b5f80805490508210610cca576040517f08c379a0000000000000000000000000000000000000000000000000000000008152600401610cc190611c9c565b60405180910390fd5b5f8281548110610cdd57610cdc611cba565b5b905f5260205f2090600902015f015f9054906101000a900473ffffffffffffffffffffffffffffffffffffffff169050919050565b5f6040518061014001604052803373ffffffffffffffffffffffffffffffffffffffff1681526020018a81526020018981526020018881526020018781526020018660ff1681526020018560ff1681526020018481526020018381526020016001151581525090505f81908060018154018082558091505060019003905f5260205f2090600902015f909190919091505f820151815f015f6101000a81548173ffffffffffffffffffffffffffffffffffffffff021916908373ffffffffffffffffffffffffffffffffffffffff1602179055506020820151816001019081610dfb91906122fd565b506040820151816002019081610e1191906122fd565b506060820151816003019081610e2791906122fd565b506080820151816004015560a0820151816005015f6101000a81548160ff021916908360ff16021790555060c08201518160050160016101000a81548160ff021916908360ff16021790555060e0820151816006019081610e8891906122fd565b506101008201518160070155610120820151816008015f6101000a81548160ff02191690831515021790555050507fc269743a66b963335309cec39908827bc3b9b7a90ba11dee190f0b3774efa03a81604051610ee59190612416565b60405180910390a1505050505050505050565b5f8181548110610f06575f80fd5b905f5260205f2090600902015f91509050805f015f9054906101000a900473ffffffffffffffffffffffffffffffffffffffff1690806001018054610f4a90611c22565b80601f0160208091040260200160405190810160405280929190818152602001828054610f7690611c22565b8015610fc15780601f10610f9857610100808354040283529160200191610fc1565b820191905f5260205f20905b815481529060010190602001808311610fa457829003601f168201915b505050505090806002018054610fd690611c22565b80601f016020809104026020016040519081016040528092919081815260200182805461100290611c22565b801561104d5780601f106110245761010080835404028352916020019161104d565b820191905f5260205f20905b81548152906001019060200180831161103057829003601f168201915b50505050509080600301805461106290611c22565b80601f016020809104026020016040519081016040528092919081815260200182805461108e90611c22565b80156110d95780601f106110b0576101008083540402835291602001916110d9565b820191905f5260205f20905b8154815290600101906020018083116110bc57829003601f168201915b505050505090806004015490806005015f9054906101000a900460ff16908060050160019054906101000a900460ff169080600601805461111990611c22565b80601f016020809104026020016040519081016040528092919081815260200182805461114590611c22565b80156111905780601f1061116757610100808354040283529160200191611190565b820191905f5260205f20905b81548152906001019060200180831161117357829003601f168201915b505050505090806007015490806008015f9054906101000a900460ff1690508a565b60015f9054906101000a900473ffffffffffffffffffffffffffffffffffffffff1673ffffffffffffffffffffffffffffffffffffffff163373ffffffffffffffffffffffffffffffffffffffff1614611241576040517f08c379a000000000000000000000000000000000000000000000000000000000815260040161123890612154565b60405180910390fd5b5f805490508210611287576040517f08c379a000000000000000000000000000000000000000000000000000000000815260040161127e90611c9c565b60405180910390fd5b805f838154811061129b5761129a611cba565b5b905f5260205f209060090201600701819055505050565b6040518061014001604052805f73ffffffffffffffffffffffffffffffffffffffff1681526020016060815260200160608152602001606081526020015f81526020015f60ff1681526020015f60ff168152602001606081526020015f81526020015f151581525090565b5f81519050919050565b5f82825260208201905092915050565b5f819050602082019050919050565b5f73ffffffffffffffffffffffffffffffffffffffff82169050919050565b5f61136f82611346565b9050919050565b61137f81611365565b82525050565b5f81519050919050565b5f82825260208201905092915050565b5f5b838110156113bc5780820151818401526020810190506113a1565b5f8484015250505050565b5f601f19601f8301169050919050565b5f6113e182611385565b6113eb818561138f565b93506113fb81856020860161139f565b611404816113c7565b840191505092915050565b5f819050919050565b6114218161140f565b82525050565b5f60ff82169050919050565b61143c81611427565b82525050565b5f8115159050919050565b61145681611442565b82525050565b5f61014083015f8301516114725f860182611376565b506020830151848203602086015261148a82826113d7565b915050604083015184820360408601526114a482826113d7565b915050606083015184820360608601526114be82826113d7565b91505060808301516114d36080860182611418565b5060a08301516114e660a0860182611433565b5060c08301516114f960c0860182611433565b5060e083015184820360e086015261151182826113d7565b915050610100830151611528610100860182611418565b5061012083015161153d61012086018261144d565b508091505092915050565b5f611553838361145c565b905092915050565b5f602082019050919050565b5f6115718261131d565b61157b8185611327565b93508360208202850161158d85611337565b805f5b858110156115c857848403895281516115a98582611548565b94506115b48361155b565b925060208a01995050600181019050611590565b50829750879550505050505092915050565b5f6020820190508181035f8301526115f28184611567565b905092915050565b5f604051905090565b5f80fd5b5f80fd5b6116148161140f565b811461161e575f80fd5b50565b5f8135905061162f8161160b565b92915050565b5f6020828403121561164a57611649611603565b5b5f61165784828501611621565b91505092915050565b6116698161140f565b82525050565b5f6020820190506116825f830184611660565b92915050565b61169181611365565b82525050565b5f6020820190506116aa5f830184611688565b92915050565b6116b981611442565b81146116c3575f80fd5b50565b5f813590506116d4816116b0565b92915050565b5f80604083850312156116f0576116ef611603565b5b5f6116fd85828601611621565b925050602061170e858286016116c6565b9150509250929050565b5f61014083015f83015161172e5f860182611376565b506020830151848203602086015261174682826113d7565b9150506040830151848203604086015261176082826113d7565b9150506060830151848203606086015261177a82826113d7565b915050608083015161178f6080860182611418565b5060a08301516117a260a0860182611433565b5060c08301516117b560c0860182611433565b5060e083015184820360e08601526117cd82826113d7565b9150506101008301516117e4610100860182611418565b506101208301516117f961012086018261144d565b508091505092915050565b5f6020820190508181035f83015261181c8184611718565b905092915050565b5f80fd5b5f80fd5b7f4e487b71000000000000000000000000000000000000000000000000000000005f52604160045260245ffd5b611862826113c7565b810181811067ffffffffffffffff821117156118815761188061182c565b5b80604052505050565b5f6118936115fa565b905061189f8282611859565b919050565b5f67ffffffffffffffff8211156118be576118bd61182c565b5b6118c7826113c7565b9050602081019050919050565b828183375f83830152505050565b5f6118f46118ef846118a4565b61188a565b9050828152602081018484840111156119105761190f611828565b5b61191b8482856118d4565b509392505050565b5f82601f83011261193757611936611824565b5b81356119478482602086016118e2565b91505092915050565b61195981611427565b8114611963575f80fd5b50565b5f8135905061197481611950565b92915050565b5f805f805f805f80610100898b03121561199757611996611603565b5b5f89013567ffffffffffffffff8111156119b4576119b3611607565b5b6119c08b828c01611923565b985050602089013567ffffffffffffffff8111156119e1576119e0611607565b5b6119ed8b828c01611923565b975050604089013567ffffffffffffffff811115611a0e57611a0d611607565b5b611a1a8b828c01611923565b9650506060611a2b8b828c01611621565b9550506080611a3c8b828c01611966565b94505060a0611a4d8b828c01611966565b93505060c089013567ffffffffffffffff811115611a6e57611a6d611607565b5b611a7a8b828c01611923565b92505060e0611a8b8b828c01611621565b9150509295985092959890939650565b5f82825260208201905092915050565b5f611ab582611385565b611abf8185611a9b565b9350611acf81856020860161139f565b611ad8816113c7565b840191505092915050565b611aec81611427565b82525050565b611afb81611442565b82525050565b5f61014082019050611b155f83018d611688565b8181036020830152611b27818c611aab565b90508181036040830152611b3b818b611aab565b90508181036060830152611b4f818a611aab565b9050611b5e6080830189611660565b611b6b60a0830188611ae3565b611b7860c0830187611ae3565b81810360e0830152611b8a8186611aab565b9050611b9a610100830185611660565b611ba8610120830184611af2565b9b9a5050505050505050505050565b5f8060408385031215611bcd57611bcc611603565b5b5f611bda85828601611621565b9250506020611beb85828601611621565b9150509250929050565b7f4e487b71000000000000000000000000000000000000000000000000000000005f52602260045260245ffd5b5f6002820490506001821680611c3957607f821691505b602082108103611c4c57611c4b611bf5565b5b50919050565b7f496e76616c69642070726f706572747920696e646578000000000000000000005f82015250565b5f611c86601683611a9b565b9150611c9182611c52565b602082019050919050565b5f6020820190508181035f830152611cb381611c7a565b9050919050565b7f4e487b71000000000000000000000000000000000000000000000000000000005f52603260045260245ffd5b7f496e73756666696369656e742066756e647300000000000000000000000000005f82015250565b5f611d1b601283611a9b565b9150611d2682611ce7565b602082019050919050565b5f6020820190508181035f830152611d4881611d0f565b9050919050565b7f50726f7065727479206973206e6f7420617661696c61626c6520666f722070755f8201527f7263686173650000000000000000000000000000000000000000000000000000602082015250565b5f611da9602683611a9b565b9150611db482611d4f565b604082019050919050565b5f6020820190508181035f830152611dd681611d9d565b9050919050565b7f50726f706572747920426f7567687400000000000000000000000000000000005f82015250565b5f611e11600f83611a9b565b9150611e1c82611ddd565b602082019050919050565b5f815f1c9050919050565b5f73ffffffffffffffffffffffffffffffffffffffff82169050919050565b5f611e63611e5e83611e27565b611e32565b9050919050565b5f819050815f5260205f209050919050565b5f8154611e8881611c22565b611e92818661138f565b9450600182165f8114611eac5760018114611ec257611ef4565b60ff198316865281151560200286019350611ef4565b611ecb85611e6a565b5f5b83811015611eec57815481890152600182019150602081019050611ecd565b808801955050505b50505092915050565b5f819050919050565b5f611f18611f1383611e27565b611efd565b9050919050565b5f60ff82169050919050565b5f611f3d611f3883611e27565b611f1f565b9050919050565b5f8160081c9050919050565b5f611f62611f5d83611f44565b611f1f565b9050919050565b5f60ff82169050919050565b5f611f87611f8283611e27565b611f69565b9050919050565b5f61014083015f808401549050611fa481611e51565b611fb05f870182611376565b50600184018583036020870152611fc78382611e7c565b925050600284018583036040870152611fe08382611e7c565b925050600384018583036060870152611ff98382611e7c565b9250506004840154905061200c81611f06565b6120196080870182611418565b506005840154905061202a81611f2b565b61203760a0870182611433565b5061204181611f50565b61204e60c0870182611433565b506006840185830360e08701526120658382611e7c565b9250506007840154905061207881611f06565b612086610100870182611418565b506008840154905061209781611f75565b6120a561012087018261144d565b50819250505092915050565b5f6040820190508181035f8301526120c881611e05565b905081810360208301526120dc8184611f8e565b905092915050565b7f4f6e6c7920636f6e7472616374206f776e65722063616e2063616c6c207468695f8201527f732066756e6374696f6e00000000000000000000000000000000000000000000602082015250565b5f61213e602a83611a9b565b9150612149826120e4565b604082019050919050565b5f6020820190508181035f83015261216b81612132565b9050919050565b5f6020601f8301049050919050565b5f82821b905092915050565b5f600883026121bc7fffffffffffffffffffffffffffffffffffffffffffffffffffffffffffffffff82612181565b6121c68683612181565b95508019841693508086168417925050509392505050565b5f819050919050565b5f6122016121fc6121f78461140f565b6121de565b61140f565b9050919050565b5f819050919050565b61221a836121e7565b61222e61222682612208565b84845461218d565b825550505050565b5f90565b612242612236565b61224d818484612211565b505050565b5b81811015612270576122655f8261223a565b600181019050612253565b5050565b601f8211156122b55761228681611e6a565b61228f84612172565b8101602085101561229e578190505b6122b26122aa85612172565b830182612252565b50505b505050565b5f82821c905092915050565b5f6122d55f19846008026122ba565b1980831691505092915050565b5f6122ed83836122c6565b9150826002028217905092915050565b61230682611385565b67ffffffffffffffff81111561231f5761231e61182c565b5b6123298254611c22565b612334828285612274565b5f60209050601f831160018114612365575f8415612353578287015190505b61235d85826122e2565b8655506123c4565b601f19841661237386611e6a565b5f5b8281101561239a57848901518255600182019150602085019450602081019050612375565b868310156123b757848901516123b3601f8916826122c6565b8355505b6001600288020188555050505b505050505050565b7f50726f7065727479204c697374656400000000000000000000000000000000005f82015250565b5f612400600f83611a9b565b915061240b826123cc565b602082019050919050565b5f6040820190508181035f83015261242d816123f4565b905081810360208301526124418184611718565b90509291505056fea2646970667358221220925710bdb9703ccbc72384776de5db7c68fb937812b2384e79df64421bf994bf64736f6c63430008180033","opcodes":"PUSH1 0x80 PUSH1 0x40 MSTORE CALLVALUE DUP1 ISZERO PUSH2 0xF JUMPI PUSH0 DUP1 REVERT JUMPDEST POP CALLER PUSH1 0x1 PUSH0 PUSH2 0x100 EXP DUP2 SLOAD DUP2 PUSH20 0xFFFFFFFFFFFFFFFFFFFFFFFFFFFFFFFFFFFFFFFF MUL NOT AND SWAP1 DUP4 PUSH20 0xFFFFFFFFFFFFFFFFFFFFFFFFFFFFFFFFFFFFFFFF AND MUL OR SWAP1 SSTORE POP PUSH2 0x247F DUP1 PUSH2 0x5D PUSH0 CODECOPY PUSH0 RETURN INVALID PUSH1 0x80 PUSH1 0x40 MSTORE PUSH1 0x4 CALLDATASIZE LT PUSH2 0x90 JUMPI PUSH0 CALLDATALOAD PUSH1 0xE0 SHR DUP1 PUSH4 0xD41861B3 GT PUSH2 0x58 JUMPI DUP1 PUSH4 0xD41861B3 EQ PUSH2 0x156 JUMPI DUP1 PUSH4 0xE34FC531 EQ PUSH2 0x192 JUMPI DUP1 PUSH4 0xEC50F185 EQ PUSH2 0x1CE JUMPI DUP1 PUSH4 0xF7B10808 EQ PUSH2 0x1F6 JUMPI DUP1 PUSH4 0xFCE401B2 EQ PUSH2 0x23B JUMPI PUSH2 0x90 JUMP JUMPDEST DUP1 PUSH4 0x3D51402C EQ PUSH2 0x94 JUMPI DUP1 PUSH4 0x6FA830A6 EQ PUSH2 0xBE JUMPI DUP1 PUSH4 0x7326B901 EQ PUSH2 0xDA JUMPI DUP1 PUSH4 0x8DA5CB5B EQ PUSH2 0x104 JUMPI DUP1 PUSH4 0x9C0C891F EQ PUSH2 0x12E JUMPI JUMPDEST PUSH0 DUP1 REVERT JUMPDEST CALLVALUE DUP1 ISZERO PUSH2 0x9F JUMPI PUSH0 DUP1 REVERT JUMPDEST POP PUSH2 0xA8 PUSH2 0x263 JUMP JUMPDEST PUSH1 0x40 MLOAD PUSH2 0xB5 SWAP2 SWAP1 PUSH2 0x15DA JUMP JUMPDEST PUSH1 0x40 MLOAD DUP1 SWAP2 SUB SWAP1 RETURN JUMPDEST PUSH2 0xD8 PUSH1 0x4 DUP1 CALLDATASIZE SUB DUP2 ADD SWAP1 PUSH2 0xD3 SWAP2 SWAP1 PUSH2 0x1635 JUMP JUMPDEST PUSH2 0x5BA JUMP JUMPDEST STOP JUMPDEST CALLVALUE DUP1 ISZERO PUSH2 0xE5 JUMPI PUSH0 DUP1 REVERT JUMPDEST POP PUSH2 0xEE PUSH2 0x7C6 JUMP JUMPDEST PUSH1 0x40 MLOAD PUSH2 0xFB SWAP2 SWAP1 PUSH2 0x166F JUMP JUMPDEST PUSH1 0x40 MLOAD DUP1 SWAP2 SUB SWAP1 RETURN JUMPDEST CALLVALUE DUP1 ISZERO PUSH2 0x10F JUMPI PUSH0 DUP1 REVERT JUMPDEST POP PUSH2 0x118 PUSH2 0x7D1 JUMP JUMPDEST PUSH1 0x40 MLOAD PUSH2 0x125 SWAP2 SWAP1 PUSH2 0x1697 JUMP JUMPDEST PUSH1 0x40 MLOAD DUP1 SWAP2 SUB SWAP1 RETURN JUMPDEST CALLVALUE DUP1 ISZERO PUSH2 0x139 JUMPI PUSH0 DUP1 REVERT JUMPDEST POP PUSH2 0x154 PUSH1 0x4 DUP1 CALLDATASIZE SUB DUP2 ADD SWAP1 PUSH2 0x14F SWAP2 SWAP1 PUSH2 0x16DA JUMP JUMPDEST PUSH2 0x7F6 JUMP JUMPDEST STOP JUMPDEST CALLVALUE DUP1 ISZERO PUSH2 0x161 JUMPI PUSH0 DUP1 REVERT JUMPDEST POP PUSH2 0x17C PUSH1 0x4 DUP1 CALLDATASIZE SUB DUP2 ADD SWAP1 PUSH2 0x177 SWAP2 SWAP1 PUSH2 0x1635 JUMP JUMPDEST PUSH2 0x908 JUMP JUMPDEST PUSH1 0x40 MLOAD PUSH2 0x189 SWAP2 SWAP1 PUSH2 0x1804 JUMP JUMPDEST PUSH1 0x40 MLOAD DUP1 SWAP2 SUB SWAP1 RETURN JUMPDEST CALLVALUE DUP1 ISZERO PUSH2 0x19D JUMPI PUSH0 DUP1 REVERT JUMPDEST POP PUSH2 0x1B8 PUSH1 0x4 DUP1 CALLDATASIZE SUB DUP2 ADD SWAP1 PUSH2 0x1B3 SWAP2 SWAP1 PUSH2 0x1635 JUMP JUMPDEST PUSH2 0xC83 JUMP JUMPDEST PUSH1 0x40 MLOAD PUSH2 0x1C5 SWAP2 SWAP1 PUSH2 0x1697 JUMP JUMPDEST PUSH1 0x40 MLOAD DUP1 SWAP2 SUB SWAP1 RETURN JUMPDEST CALLVALUE DUP1 ISZERO PUSH2 0x1D9 JUMPI PUSH0 DUP1 REVERT JUMPDEST POP PUSH2 0x1F4 PUSH1 0x4 DUP1 CALLDATASIZE SUB DUP2 ADD SWAP1 PUSH2 0x1EF SWAP2 SWAP1 PUSH2 0x197A JUMP JUMPDEST PUSH2 0xD12 JUMP JUMPDEST STOP JUMPDEST CALLVALUE DUP1 ISZERO PUSH2 0x201 JUMPI PUSH0 DUP1 REVERT JUMPDEST POP PUSH2 0x21C PUSH1 0x4 DUP1 CALLDATASIZE SUB DUP2 ADD SWAP1 PUSH2 0x217 SWAP2 SWAP1 PUSH2 0x1635 JUMP JUMPDEST PUSH2 0xEF8 JUMP JUMPDEST PUSH1 0x40 MLOAD PUSH2 0x232 SWAP11 SWAP10 SWAP9 SWAP8 SWAP7 SWAP6 SWAP5 SWAP4 SWAP3 SWAP2 SWAP1 PUSH2 0x1B01 JUMP JUMPDEST PUSH1 0x40 MLOAD DUP1 SWAP2 SUB SWAP1 RETURN JUMPDEST CALLVALUE DUP1 ISZERO PUSH2 0x246 JUMPI PUSH0 DUP1 REVERT JUMPDEST POP PUSH2 0x261 PUSH1 0x4 DUP1 CALLDATASIZE SUB DUP2 ADD SWAP1 PUSH2 0x25C SWAP2 SWAP1 PUSH2 0x1BB7 JUMP JUMPDEST PUSH2 0x11B2 JUMP JUMPDEST STOP JUMPDEST PUSH1 0x60 PUSH0 DUP1 SLOAD DUP1 PUSH1 0x20 MUL PUSH1 0x20 ADD PUSH1 0x40 MLOAD SWAP1 DUP2 ADD PUSH1 0x40 MSTORE DUP1 SWAP3 SWAP2 SWAP1 DUP2 DUP2 MSTORE PUSH1 0x20 ADD PUSH0 SWAP1 JUMPDEST DUP3 DUP3 LT ISZERO PUSH2 0x5B1 JUMPI DUP4 DUP3 SWAP1 PUSH0 MSTORE PUSH1 0x20 PUSH0 KECCAK256 SWAP1 PUSH1 0x9 MUL ADD PUSH1 0x40 MLOAD DUP1 PUSH2 0x140 ADD PUSH1 0x40 MSTORE SWAP1 DUP2 PUSH0 DUP3 ADD PUSH0 SWAP1 SLOAD SWAP1 PUSH2 0x100 EXP SWAP1 DIV PUSH20 0xFFFFFFFFFFFFFFFFFFFFFFFFFFFFFFFFFFFFFFFF AND PUSH20 0xFFFFFFFFFFFFFFFFFFFFFFFFFFFFFFFFFFFFFFFF AND PUSH20 0xFFFFFFFFFFFFFFFFFFFFFFFFFFFFFFFFFFFFFFFF AND DUP2 MSTORE PUSH1 0x20 ADD PUSH1 0x1 DUP3 ADD DUP1 SLOAD PUSH2 0x30B SWAP1 PUSH2 0x1C22 JUMP JUMPDEST DUP1 PUSH1 0x1F ADD PUSH1 0x20 DUP1 SWAP2 DIV MUL PUSH1 0x20 ADD PUSH1 0x40 MLOAD SWAP1 DUP2 ADD PUSH1 0x40 MSTORE DUP1 SWAP3 SWAP2 SWAP1 DUP2 DUP2 MSTORE PUSH1 0x20 ADD DUP3 DUP1 SLOAD PUSH2 0x337 SWAP1 PUSH2 0x1C22 JUMP JUMPDEST DUP1 ISZERO PUSH2 0x382 JUMPI DUP1 PUSH1 0x1F LT PUSH2 0x359 JUMPI PUSH2 0x100 DUP1 DUP4 SLOAD DIV MUL DUP4 MSTORE SWAP2 PUSH1 0x20 ADD SWAP2 PUSH2 0x382 JUMP JUMPDEST DUP3 ADD SWAP2 SWAP1 PUSH0 MSTORE PUSH1 0x20 PUSH0 KECCAK256 SWAP1 JUMPDEST DUP2 SLOAD DUP2 MSTORE SWAP1 PUSH1 0x1 ADD SWAP1 PUSH1 0x20 ADD DUP1 DUP4 GT PUSH2 0x365 JUMPI DUP3 SWAP1 SUB PUSH1 0x1F AND DUP3 ADD SWAP2 JUMPDEST POP POP POP POP POP DUP2 MSTORE PUSH1 0x20 ADD PUSH1 0x2 DUP3 ADD DUP1 SLOAD PUSH2 0x39B SWAP1 PUSH2 0x1C22 JUMP JUMPDEST DUP1 PUSH1 0x1F ADD PUSH1 0x20 DUP1 SWAP2 DIV MUL PUSH1 0x20 ADD PUSH1 0x40 MLOAD SWAP1 DUP2 ADD PUSH1 0x40 MSTORE DUP1 SWAP3 SWAP2 SWAP1 DUP2 DUP2 MSTORE PUSH1 0x20 ADD DUP3 DUP1 SLOAD PUSH2 0x3C7 SWAP1 PUSH2 0x1C22 JUMP JUMPDEST DUP1 ISZERO PUSH2 0x412 JUMPI DUP1 PUSH1 0x1F LT PUSH2 0x3E9 JUMPI PUSH2 0x100 DUP1 DUP4 SLOAD DIV MUL DUP4 MSTORE SWAP2 PUSH1 0x20 ADD SWAP2 PUSH2 0x412 JUMP JUMPDEST DUP3 ADD SWAP2 SWAP1 PUSH0 MSTORE PUSH1 0x20 PUSH0 KECCAK256 SWAP1 JUMPDEST DUP2 SLOAD DUP2 MSTORE SWAP1 PUSH1 0x1 ADD SWAP1 PUSH1 0x20 ADD DUP1 DUP4 GT PUSH2 0x3F5 JUMPI DUP3 SWAP1 SUB PUSH1 0x1F AND DUP3 ADD SWAP2 JUMPDEST POP POP POP POP POP DUP2 MSTORE PUSH1 0x20 ADD PUSH1 0x3 DUP3 ADD DUP1 SLOAD PUSH2 0x42B SWAP1 PUSH2 0x1C22 JUMP JUMPDEST DUP1 PUSH1 0x1F ADD PUSH1 0x20 DUP1 SWAP2 DIV MUL PUSH1 0x20 ADD PUSH1 0x40 MLOAD SWAP1 DUP2 ADD PUSH1 0x40 MSTORE DUP1 SWAP3 SWAP2 SWAP1 DUP2 DUP2 MSTORE PUSH1 0x20 ADD DUP3 DUP1 SLOAD PUSH2 0x457 SWAP1 PUSH2 0x1C22 JUMP JUMPDEST DUP1 ISZERO PUSH2 0x4A2 JUMPI DUP1 PUSH1 0x1F LT PUSH2 0x479 JUMPI PUSH2 0x100 DUP1 DUP4 SLOAD DIV MUL DUP4 MSTORE SWAP2 PUSH1 0x20 ADD SWAP2 PUSH2 0x4A2 JUMP JUMPDEST DUP3 ADD SWAP2 SWAP1 PUSH0 MSTORE PUSH1 0x20 PUSH0 KECCAK256 SWAP1 JUMPDEST DUP2 SLOAD DUP2 MSTORE SWAP1 PUSH1 0x1 ADD SWAP1 PUSH1 0x20 ADD DUP1 DUP4 GT PUSH2 0x485 JUMPI DUP3 SWAP1 SUB PUSH1 0x1F AND DUP3 ADD SWAP2 JUMPDEST POP POP POP POP POP DUP2 MSTORE PUSH1 0x20 ADD PUSH1 0x4 DUP3 ADD SLOAD DUP2 MSTORE PUSH1 0x20 ADD PUSH1 0x5 DUP3 ADD PUSH0 SWAP1 SLOAD SWAP1 PUSH2 0x100 EXP SWAP1 DIV PUSH1 0xFF AND PUSH1 0xFF AND PUSH1 0xFF AND DUP2 MSTORE PUSH1 0x20 ADD PUSH1 0x5 DUP3 ADD PUSH1 0x1 SWAP1 SLOAD SWAP1 PUSH2 0x100 EXP SWAP1 DIV PUSH1 0xFF AND PUSH1 0xFF AND PUSH1 0xFF AND DUP2 MSTORE PUSH1 0x20 ADD PUSH1 0x6 DUP3 ADD DUP1 SLOAD PUSH2 0x4FE SWAP1 PUSH2 0x1C22 JUMP JUMPDEST DUP1 PUSH1 0x1F ADD PUSH1 0x20 DUP1 SWAP2 DIV MUL PUSH1 0x20 ADD PUSH1 0x40 MLOAD SWAP1 DUP2 ADD PUSH1 0x40 MSTORE DUP1 SWAP3 SWAP2 SWAP1 DUP2 DUP2 MSTORE PUSH1 0x20 ADD DUP3 DUP1 SLOAD PUSH2 0x52A SWAP1 PUSH2 0x1C22 JUMP JUMPDEST DUP1 ISZERO PUSH2 0x575 JUMPI DUP1 PUSH1 0x1F LT PUSH2 0x54C JUMPI PUSH2 0x100 DUP1 DUP4 SLOAD DIV MUL DUP4 MSTORE SWAP2 PUSH1 0x20 ADD SWAP2 PUSH2 0x575 JUMP JUMPDEST DUP3 ADD SWAP2 SWAP1 PUSH0 MSTORE PUSH1 0x20 PUSH0 KECCAK256 SWAP1 JUMPDEST DUP2 SLOAD DUP2 MSTORE SWAP1 PUSH1 0x1 ADD SWAP1 PUSH1 0x20 ADD DUP1 DUP4 GT PUSH2 0x558 JUMPI DUP3 SWAP1 SUB PUSH1 0x1F AND DUP3 ADD SWAP2 JUMPDEST POP POP POP POP POP DUP2 MSTORE PUSH1 0x20 ADD PUSH1 0x7 DUP3 ADD SLOAD DUP2 MSTORE PUSH1 0x20 ADD PUSH1 0x8 DUP3 ADD PUSH0 SWAP1 SLOAD SWAP1 PUSH2 0x100 EXP SWAP1 DIV PUSH1 0xFF AND ISZERO ISZERO ISZERO ISZERO DUP2 MSTORE POP POP DUP2 MSTORE PUSH1 0x20 ADD SWAP1 PUSH1 0x1 ADD SWAP1 PUSH2 0x285 JUMP JUMPDEST POP POP POP POP SWAP1 POP SWAP1 JUMP JUMPDEST PUSH0 DUP1 SLOAD SWAP1 POP DUP2 LT PUSH2 0x600 JUMPI PUSH1 0x40 MLOAD PUSH32 0x8C379A000000000000000000000000000000000000000000000000000000000 DUP2 MSTORE PUSH1 0x4 ADD PUSH2 0x5F7 SWAP1 PUSH2 0x1C9C JUMP JUMPDEST PUSH1 0x40 MLOAD DUP1 SWAP2 SUB SWAP1 REVERT JUMPDEST PUSH0 DUP1 DUP3 DUP2 SLOAD DUP2 LT PUSH2 0x614 JUMPI PUSH2 0x613 PUSH2 0x1CBA JUMP JUMPDEST JUMPDEST SWAP1 PUSH0 MSTORE PUSH1 0x20 PUSH0 KECCAK256 SWAP1 PUSH1 0x9 MUL ADD SWAP1 POP DUP1 PUSH1 0x7 ADD SLOAD CALLVALUE LT ISZERO PUSH2 0x669 JUMPI PUSH1 0x40 MLOAD PUSH32 0x8C379A000000000000000000000000000000000000000000000000000000000 DUP2 MSTORE PUSH1 0x4 ADD PUSH2 0x660 SWAP1 PUSH2 0x1D31 JUMP JUMPDEST PUSH1 0x40 MLOAD DUP1 SWAP2 SUB SWAP1 REVERT JUMPDEST PUSH1 0x1 ISZERO ISZERO DUP2 PUSH1 0x8 ADD PUSH0 SWAP1 SLOAD SWAP1 PUSH2 0x100 EXP SWAP1 DIV PUSH1 0xFF AND ISZERO ISZERO EQ PUSH2 0x6C0 JUMPI PUSH1 0x40 MLOAD PUSH32 0x8C379A000000000000000000000000000000000000000000000000000000000 DUP2 MSTORE PUSH1 0x4 ADD PUSH2 0x6B7 SWAP1 PUSH2 0x1DBF JUMP JUMPDEST PUSH1 0x40 MLOAD DUP1 SWAP2 SUB SWAP1 REVERT JUMPDEST PUSH0 DUP2 PUSH0 ADD PUSH0 SWAP1 SLOAD SWAP1 PUSH2 0x100 EXP SWAP1 DIV PUSH20 0xFFFFFFFFFFFFFFFFFFFFFFFFFFFFFFFFFFFFFFFF AND SWAP1 POP DUP1 PUSH20 0xFFFFFFFFFFFFFFFFFFFFFFFFFFFFFFFFFFFFFFFF AND PUSH2 0x8FC DUP4 PUSH1 0x7 ADD SLOAD SWAP1 DUP2 ISZERO MUL SWAP1 PUSH1 0x40 MLOAD PUSH0 PUSH1 0x40 MLOAD DUP1 DUP4 SUB DUP2 DUP6 DUP9 DUP9 CALL SWAP4 POP POP POP POP ISZERO DUP1 ISZERO PUSH2 0x72D JUMPI RETURNDATASIZE PUSH0 DUP1 RETURNDATACOPY RETURNDATASIZE PUSH0 REVERT JUMPDEST POP CALLER DUP3 PUSH0 ADD PUSH0 PUSH2 0x100 EXP DUP2 SLOAD DUP2 PUSH20 0xFFFFFFFFFFFFFFFFFFFFFFFFFFFFFFFFFFFFFFFF MUL NOT AND SWAP1 DUP4 PUSH20 0xFFFFFFFFFFFFFFFFFFFFFFFFFFFFFFFFFFFFFFFF AND MUL OR SWAP1 SSTORE POP PUSH0 DUP3 PUSH1 0x8 ADD PUSH0 PUSH2 0x100 EXP DUP2 SLOAD DUP2 PUSH1 0xFF MUL NOT AND SWAP1 DUP4 ISZERO ISZERO MUL OR SWAP1 SSTORE POP PUSH32 0xC269743A66B963335309CEC39908827BC3B9B7A90BA11DEE190F0B3774EFA03A DUP3 PUSH1 0x40 MLOAD PUSH2 0x7B9 SWAP2 SWAP1 PUSH2 0x20B1 JUMP JUMPDEST PUSH1 0x40 MLOAD DUP1 SWAP2 SUB SWAP1 LOG1 POP POP POP JUMP JUMPDEST PUSH0 DUP1 DUP1 SLOAD SWAP1 POP SWAP1 POP SWAP1 JUMP JUMPDEST PUSH1 0x1 PUSH0 SWAP1 SLOAD SWAP1 PUSH2 0x100 EXP SWAP1 DIV PUSH20 0xFFFFFFFFFFFFFFFFFFFFFFFFFFFFFFFFFFFFFFFF AND DUP2 JUMP JUMPDEST PUSH1 0x1 PUSH0 SWAP1 SLOAD SWAP1 PUSH2 0x100 EXP SWAP1 DIV PUSH20 0xFFFFFFFFFFFFFFFFFFFFFFFFFFFFFFFFFFFFFFFF AND PUSH20 0xFFFFFFFFFFFFFFFFFFFFFFFFFFFFFFFFFFFFFFFF AND CALLER PUSH20 0xFFFFFFFFFFFFFFFFFFFFFFFFFFFFFFFFFFFFFFFF AND EQ PUSH2 0x885 JUMPI PUSH1 0x40 MLOAD PUSH32 0x8C379A000000000000000000000000000000000000000000000000000000000 DUP2 MSTORE PUSH1 0x4 ADD PUSH2 0x87C SWAP1 PUSH2 0x2154 JUMP JUMPDEST PUSH1 0x40 MLOAD DUP1 SWAP2 SUB SWAP1 REVERT JUMPDEST PUSH0 DUP1 SLOAD SWAP1 POP DUP3 LT PUSH2 0x8CB JUMPI PUSH1 0x40 MLOAD PUSH32 0x8C379A000000000000000000000000000000000000000000000000000000000 DUP2 MSTORE PUSH1 0x4 ADD PUSH2 0x8C2 SWAP1 PUSH2 0x1C9C JUMP JUMPDEST PUSH1 0x40 MLOAD DUP1 SWAP2 SUB SWAP1 REVERT JUMPDEST DUP1 PUSH0 DUP4 DUP2 SLOAD DUP2 LT PUSH2 0x8DF JUMPI PUSH2 0x8DE PUSH2 0x1CBA JUMP JUMPDEST JUMPDEST SWAP1 PUSH0 MSTORE PUSH1 0x20 PUSH0 KECCAK256 SWAP1 PUSH1 0x9 MUL ADD PUSH1 0x8 ADD PUSH0 PUSH2 0x100 EXP DUP2 SLOAD DUP2 PUSH1 0xFF MUL NOT AND SWAP1 DUP4 ISZERO ISZERO MUL OR SWAP1 SSTORE POP POP POP JUMP JUMPDEST PUSH2 0x910 PUSH2 0x12B2 JUMP JUMPDEST PUSH0 DUP1 SLOAD SWAP1 POP DUP3 LT PUSH2 0x956 JUMPI PUSH1 0x40 MLOAD PUSH32 0x8C379A000000000000000000000000000000000000000000000000000000000 DUP2 MSTORE PUSH1 0x4 ADD PUSH2 0x94D SWAP1 PUSH2 0x1C9C JUMP JUMPDEST PUSH1 0x40 MLOAD DUP1 SWAP2 SUB SWAP1 REVERT JUMPDEST PUSH0 DUP3 DUP2 SLOAD DUP2 LT PUSH2 0x969 JUMPI PUSH2 0x968 PUSH2 0x1CBA JUMP JUMPDEST JUMPDEST SWAP1 PUSH0 MSTORE PUSH1 0x20 PUSH0 KECCAK256 SWAP1 PUSH1 0x9 MUL ADD PUSH1 0x40 MLOAD DUP1 PUSH2 0x140 ADD PUSH1 0x40 MSTORE SWAP1 DUP2 PUSH0 DUP3 ADD PUSH0 SWAP1 SLOAD SWAP1 PUSH2 0x100 EXP SWAP1 DIV PUSH20 0xFFFFFFFFFFFFFFFFFFFFFFFFFFFFFFFFFFFFFFFF AND PUSH20 0xFFFFFFFFFFFFFFFFFFFFFFFFFFFFFFFFFFFFFFFF AND PUSH20 0xFFFFFFFFFFFFFFFFFFFFFFFFFFFFFFFFFFFFFFFF AND DUP2 MSTORE PUSH1 0x20 ADD PUSH1 0x1 DUP3 ADD DUP1 SLOAD PUSH2 0x9E5 SWAP1 PUSH2 0x1C22 JUMP JUMPDEST DUP1 PUSH1 0x1F ADD PUSH1 0x20 DUP1 SWAP2 DIV MUL PUSH1 0x20 ADD PUSH1 0x40 MLOAD SWAP1 DUP2 ADD PUSH1 0x40 MSTORE DUP1 SWAP3 SWAP2 SWAP1 DUP2 DUP2 MSTORE PUSH1 0x20 ADD DUP3 DUP1 SLOAD PUSH2 0xA11 SWAP1 PUSH2 0x1C22 JUMP JUMPDEST DUP1 ISZERO PUSH2 0xA5C JUMPI DUP1 PUSH1 0x1F LT PUSH2 0xA33 JUMPI PUSH2 0x100 DUP1 DUP4 SLOAD DIV MUL DUP4 MSTORE SWAP2 PUSH1 0x20 ADD SWAP2 PUSH2 0xA5C JUMP JUMPDEST DUP3 ADD SWAP2 SWAP1 PUSH0 MSTORE PUSH1 0x20 PUSH0 KECCAK256 SWAP1 JUMPDEST DUP2 SLOAD DUP2 MSTORE SWAP1 PUSH1 0x1 ADD SWAP1 PUSH1 0x20 ADD DUP1 DUP4 GT PUSH2 0xA3F JUMPI DUP3 SWAP1 SUB PUSH1 0x1F AND DUP3 ADD SWAP2 JUMPDEST POP POP POP POP POP DUP2 MSTORE PUSH1 0x20 ADD PUSH1 0x2 DUP3 ADD DUP1 SLOAD PUSH2 0xA75 SWAP1 PUSH2 0x1C22 JUMP JUMPDEST DUP1 PUSH1 0x1F ADD PUSH1 0x20 DUP1 SWAP2 DIV MUL PUSH1 0x20 ADD PUSH1 0x40 MLOAD SWAP1 DUP2 ADD PUSH1 0x40 MSTORE DUP1 SWAP3 SWAP2 SWAP1 DUP2 DUP2 MSTORE PUSH1 0x20 ADD DUP3 DUP1 SLOAD PUSH2 0xAA1 SWAP1 PUSH2 0x1C22 JUMP JUMPDEST DUP1 ISZERO PUSH2 0xAEC JUMPI DUP1 PUSH1 0x1F LT PUSH2 0xAC3 JUMPI PUSH2 0x100 DUP1 DUP4 SLOAD DIV MUL DUP4 MSTORE SWAP2 PUSH1 0x20 ADD SWAP2 PUSH2 0xAEC JUMP JUMPDEST DUP3 ADD SWAP2 SWAP1 PUSH0 MSTORE PUSH1 0x20 PUSH0 KECCAK256 SWAP1 JUMPDEST DUP2 SLOAD DUP2 MSTORE SWAP1 PUSH1 0x1 ADD SWAP1 PUSH1 0x20 ADD DUP1 DUP4 GT PUSH2 0xACF JUMPI DUP3 SWAP1 SUB PUSH1 0x1F AND DUP3 ADD SWAP2 JUMPDEST POP POP POP POP POP DUP2 MSTORE PUSH1 0x20 ADD PUSH1 0x3 DUP3 ADD DUP1 SLOAD PUSH2 0xB05 SWAP1 PUSH2 0x1C22 JUMP JUMPDEST DUP1 PUSH1 0x1F ADD PUSH1 0x20 DUP1 SWAP2 DIV MUL PUSH1 0x20 ADD PUSH1 0x40 MLOAD SWAP1 DUP2 ADD PUSH1 0x40 MSTORE DUP1 SWAP3 SWAP2 SWAP1 DUP2 DUP2 MSTORE PUSH1 0x20 ADD DUP3 DUP1 SLOAD PUSH2 0xB31 SWAP1 PUSH2 0x1C22 JUMP JUMPDEST DUP1 ISZERO PUSH2 0xB7C JUMPI DUP1 PUSH1 0x1F LT PUSH2 0xB53 JUMPI PUSH2 0x100 DUP1 DUP4 SLOAD DIV MUL DUP4 MSTORE SWAP2 PUSH1 0x20 ADD SWAP2 PUSH2 0xB7C JUMP JUMPDEST DUP3 ADD SWAP2 SWAP1 PUSH0 MSTORE PUSH1 0x20 PUSH0 KECCAK256 SWAP1 JUMPDEST DUP2 SLOAD DUP2 MSTORE SWAP1 PUSH1 0x1 ADD SWAP1 PUSH1 0x20 ADD DUP1 DUP4 GT PUSH2 0xB5F JUMPI DUP3 SWAP1 SUB PUSH1 0x1F AND DUP3 ADD SWAP2 JUMPDEST POP POP POP POP POP DUP2 MSTORE PUSH1 0x20 ADD PUSH1 0x4 DUP3 ADD SLOAD DUP2 MSTORE PUSH1 0x20 ADD PUSH1 0x5 DUP3 ADD PUSH0 SWAP1 SLOAD SWAP1 PUSH2 0x100 EXP SWAP1 DIV PUSH1 0xFF AND PUSH1 0xFF AND PUSH1 0xFF AND DUP2 MSTORE PUSH1 0x20 ADD PUSH1 0x5 DUP3 ADD PUSH1 0x1 SWAP1 SLOAD SWAP1 PUSH2 0x100 EXP SWAP1 DIV PUSH1 0xFF AND PUSH1 0xFF AND PUSH1 0xFF AND DUP2 MSTORE PUSH1 0x20 ADD PUSH1 0x6 DUP3 ADD DUP1 SLOAD PUSH2 0xBD8 SWAP1 PUSH2 0x1C22 JUMP JUMPDEST DUP1 PUSH1 0x1F ADD PUSH1 0x20 DUP1 SWAP2 DIV MUL PUSH1 0x20 ADD PUSH1 0x40 MLOAD SWAP1 DUP2 ADD PUSH1 0x40 MSTORE DUP1 SWAP3 SWAP2 SWAP1 DUP2 DUP2 MSTORE PUSH1 0x20 ADD DUP3 DUP1 SLOAD PUSH2 0xC04 SWAP1 PUSH2 0x1C22 JUMP JUMPDEST DUP1 ISZERO PUSH2 0xC4F JUMPI DUP1 PUSH1 0x1F LT PUSH2 0xC26 JUMPI PUSH2 0x100 DUP1 DUP4 SLOAD DIV MUL DUP4 MSTORE SWAP2 PUSH1 0x20 ADD SWAP2 PUSH2 0xC4F JUMP JUMPDEST DUP3 ADD SWAP2 SWAP1 PUSH0 MSTORE PUSH1 0x20 PUSH0 KECCAK256 SWAP1 JUMPDEST DUP2 SLOAD DUP2 MSTORE SWAP1 PUSH1 0x1 ADD SWAP1 PUSH1 0x20 ADD DUP1 DUP4 GT PUSH2 0xC32 JUMPI DUP3 SWAP1 SUB PUSH1 0x1F AND DUP3 ADD SWAP2 JUMPDEST POP POP POP POP POP DUP2 MSTORE PUSH1 0x20 ADD PUSH1 0x7 DUP3 ADD SLOAD DUP2 MSTORE PUSH1 0x20 ADD PUSH1 0x8 DUP3 ADD PUSH0 SWAP1 SLOAD SWAP1 PUSH2 0x100 EXP SWAP1 DIV PUSH1 0xFF AND ISZERO ISZERO ISZERO ISZERO DUP2 MSTORE POP POP SWAP1 POP SWAP2 SWAP1 POP JUMP JUMPDEST PUSH0 DUP1 DUP1 SLOAD SWAP1 POP DUP3 LT PUSH2 0xCCA JUMPI PUSH1 0x40 MLOAD PUSH32 0x8C379A000000000000000000000000000000000000000000000000000000000 DUP2 MSTORE PUSH1 0x4 ADD PUSH2 0xCC1 SWAP1 PUSH2 0x1C9C JUMP JUMPDEST PUSH1 0x40 MLOAD DUP1 SWAP2 SUB SWAP1 REVERT JUMPDEST PUSH0 DUP3 DUP2 SLOAD DUP2 LT PUSH2 0xCDD JUMPI PUSH2 0xCDC PUSH2 0x1CBA JUMP JUMPDEST JUMPDEST SWAP1 PUSH0 MSTORE PUSH1 0x20 PUSH0 KECCAK256 SWAP1 PUSH1 0x9 MUL ADD PUSH0 ADD PUSH0 SWAP1 SLOAD SWAP1 PUSH2 0x100 EXP SWAP1 DIV PUSH20 0xFFFFFFFFFFFFFFFFFFFFFFFFFFFFFFFFFFFFFFFF AND SWAP1 POP SWAP2 SWAP1 POP JUMP JUMPDEST PUSH0 PUSH1 0x40 MLOAD DUP1 PUSH2 0x140 ADD PUSH1 0x40 MSTORE DUP1 CALLER PUSH20 0xFFFFFFFFFFFFFFFFFFFFFFFFFFFFFFFFFFFFFFFF AND DUP2 MSTORE PUSH1 0x20 ADD DUP11 DUP2 MSTORE PUSH1 0x20 ADD DUP10 DUP2 MSTORE PUSH1 0x20 ADD DUP9 DUP2 MSTORE PUSH1 0x20 ADD DUP8 DUP2 MSTORE PUSH1 0x20 ADD DUP7 PUSH1 0xFF AND DUP2 MSTORE PUSH1 0x20 ADD DUP6 PUSH1 0xFF AND DUP2 MSTORE PUSH1 0x20 ADD DUP5 DUP2 MSTORE PUSH1 0x20 ADD DUP4 DUP2 MSTORE PUSH1 0x20 ADD PUSH1 0x1 ISZERO ISZERO DUP2 MSTORE POP SWAP1 POP PUSH0 DUP2 SWAP1 DUP1 PUSH1 0x1 DUP2 SLOAD ADD DUP1 DUP3 SSTORE DUP1 SWAP2 POP POP PUSH1 0x1 SWAP1 SUB SWAP1 PUSH0 MSTORE PUSH1 0x20 PUSH0 KECCAK256 SWAP1 PUSH1 0x9 MUL ADD PUSH0 SWAP1 SWAP2 SWAP1 SWAP2 SWAP1 SWAP2 POP PUSH0 DUP3 ADD MLOAD DUP2 PUSH0 ADD PUSH0 PUSH2 0x100 EXP DUP2 SLOAD DUP2 PUSH20 0xFFFFFFFFFFFFFFFFFFFFFFFFFFFFFFFFFFFFFFFF MUL NOT AND SWAP1 DUP4 PUSH20 0xFFFFFFFFFFFFFFFFFFFFFFFFFFFFFFFFFFFFFFFF AND MUL OR SWAP1 SSTORE POP PUSH1 0x20 DUP3 ADD MLOAD DUP2 PUSH1 0x1 ADD SWAP1 DUP2 PUSH2 0xDFB SWAP2 SWAP1 PUSH2 0x22FD JUMP JUMPDEST POP PUSH1 0x40 DUP3 ADD MLOAD DUP2 PUSH1 0x2 ADD SWAP1 DUP2 PUSH2 0xE11 SWAP2 SWAP1 PUSH2 0x22FD JUMP JUMPDEST POP PUSH1 0x60 DUP3 ADD MLOAD DUP2 PUSH1 0x3 ADD SWAP1 DUP2 PUSH2 0xE27 SWAP2 SWAP1 PUSH2 0x22FD JUMP JUMPDEST POP PUSH1 0x80 DUP3 ADD MLOAD DUP2 PUSH1 0x4 ADD SSTORE PUSH1 0xA0 DUP3 ADD MLOAD DUP2 PUSH1 0x5 ADD PUSH0 PUSH2 0x100 EXP DUP2 SLOAD DUP2 PUSH1 0xFF MUL NOT AND SWAP1 DUP4 PUSH1 0xFF AND MUL OR SWAP1 SSTORE POP PUSH1 0xC0 DUP3 ADD MLOAD DUP2 PUSH1 0x5 ADD PUSH1 0x1 PUSH2 0x100 EXP DUP2 SLOAD DUP2 PUSH1 0xFF MUL NOT AND SWAP1 DUP4 PUSH1 0xFF AND MUL OR SWAP1 SSTORE POP PUSH1 0xE0 DUP3 ADD MLOAD DUP2 PUSH1 0x6 ADD SWAP1 DUP2 PUSH2 0xE88 SWAP2 SWAP1 PUSH2 0x22FD JUMP JUMPDEST POP PUSH2 0x100 DUP3 ADD MLOAD DUP2 PUSH1 0x7 ADD SSTORE PUSH2 0x120 DUP3 ADD MLOAD DUP2 PUSH1 0x8 ADD PUSH0 PUSH2 0x100 EXP DUP2 SLOAD DUP2 PUSH1 0xFF MUL NOT AND SWAP1 DUP4 ISZERO ISZERO MUL OR SWAP1 SSTORE POP POP POP PUSH32 0xC269743A66B963335309CEC39908827BC3B9B7A90BA11DEE190F0B3774EFA03A DUP2 PUSH1 0x40 MLOAD PUSH2 0xEE5 SWAP2 SWAP1 PUSH2 0x2416 JUMP JUMPDEST PUSH1 0x40 MLOAD DUP1 SWAP2 SUB SWAP1 LOG1 POP POP POP POP POP POP POP POP POP JUMP JUMPDEST PUSH0 DUP2 DUP2 SLOAD DUP2 LT PUSH2 0xF06 JUMPI PUSH0 DUP1 REVERT JUMPDEST SWAP1 PUSH0 MSTORE PUSH1 0x20 PUSH0 KECCAK256 SWAP1 PUSH1 0x9 MUL ADD PUSH0 SWAP2 POP SWAP1 POP DUP1 PUSH0 ADD PUSH0 SWAP1 SLOAD SWAP1 PUSH2 0x100 EXP SWAP1 DIV PUSH20 0xFFFFFFFFFFFFFFFFFFFFFFFFFFFFFFFFFFFFFFFF AND SWAP1 DUP1 PUSH1 0x1 ADD DUP1 SLOAD PUSH2 0xF4A SWAP1 PUSH2 0x1C22 JUMP JUMPDEST DUP1 PUSH1 0x1F ADD PUSH1 0x20 DUP1 SWAP2 DIV MUL PUSH1 0x20 ADD PUSH1 0x40 MLOAD SWAP1 DUP2 ADD PUSH1 0x40 MSTORE DUP1 SWAP3 SWAP2 SWAP1 DUP2 DUP2 MSTORE PUSH1 0x20 ADD DUP3 DUP1 SLOAD PUSH2 0xF76 SWAP1 PUSH2 0x1C22 JUMP JUMPDEST DUP1 ISZERO PUSH2 0xFC1 JUMPI DUP1 PUSH1 0x1F LT PUSH2 0xF98 JUMPI PUSH2 0x100 DUP1 DUP4 SLOAD DIV MUL DUP4 MSTORE SWAP2 PUSH1 0x20 ADD SWAP2 PUSH2 0xFC1 JUMP JUMPDEST DUP3 ADD SWAP2 SWAP1 PUSH0 MSTORE PUSH1 0x20 PUSH0 KECCAK256 SWAP1 JUMPDEST DUP2 SLOAD DUP2 MSTORE SWAP1 PUSH1 0x1 ADD SWAP1 PUSH1 0x20 ADD DUP1 DUP4 GT PUSH2 0xFA4 JUMPI DUP3 SWAP1 SUB PUSH1 0x1F AND DUP3 ADD SWAP2 JUMPDEST POP POP POP POP POP SWAP1 DUP1 PUSH1 0x2 ADD DUP1 SLOAD PUSH2 0xFD6 SWAP1 PUSH2 0x1C22 JUMP JUMPDEST DUP1 PUSH1 0x1F ADD PUSH1 0x20 DUP1 SWAP2 DIV MUL PUSH1 0x20 ADD PUSH1 0x40 MLOAD SWAP1 DUP2 ADD PUSH1 0x40 MSTORE DUP1 SWAP3 SWAP2 SWAP1 DUP2 DUP2 MSTORE PUSH1 0x20 ADD DUP3 DUP1 SLOAD PUSH2 0x1002 SWAP1 PUSH2 0x1C22 JUMP JUMPDEST DUP1 ISZERO PUSH2 0x104D JUMPI DUP1 PUSH1 0x1F LT PUSH2 0x1024 JUMPI PUSH2 0x100 DUP1 DUP4 SLOAD DIV MUL DUP4 MSTORE SWAP2 PUSH1 0x20 ADD SWAP2 PUSH2 0x104D JUMP JUMPDEST DUP3 ADD SWAP2 SWAP1 PUSH0 MSTORE PUSH1 0x20 PUSH0 KECCAK256 SWAP1 JUMPDEST DUP2 SLOAD DUP2 MSTORE SWAP1 PUSH1 0x1 ADD SWAP1 PUSH1 0x20 ADD DUP1 DUP4 GT PUSH2 0x1030 JUMPI DUP3 SWAP1 SUB PUSH1 0x1F AND DUP3 ADD SWAP2 JUMPDEST POP POP POP POP POP SWAP1 DUP1 PUSH1 0x3 ADD DUP1 SLOAD PUSH2 0x1062 SWAP1 PUSH2 0x1C22 JUMP JUMPDEST DUP1 PUSH1 0x1F ADD PUSH1 0x20 DUP1 SWAP2 DIV MUL PUSH1 0x20 ADD PUSH1 0x40 MLOAD SWAP1 DUP2 ADD PUSH1 0x40 MSTORE DUP1 SWAP3 SWAP2 SWAP1 DUP2 DUP2 MSTORE PUSH1 0x20 ADD DUP3 DUP1 SLOAD PUSH2 0x108E SWAP1 PUSH2 0x1C22 JUMP JUMPDEST DUP1 ISZERO PUSH2 0x10D9 JUMPI DUP1 PUSH1 0x1F LT PUSH2 0x10B0 JUMPI PUSH2 0x100 DUP1 DUP4 SLOAD DIV MUL DUP4 MSTORE SWAP2 PUSH1 0x20 ADD SWAP2 PUSH2 0x10D9 JUMP JUMPDEST DUP3 ADD SWAP2 SWAP1 PUSH0 MSTORE PUSH1 0x20 PUSH0 KECCAK256 SWAP1 JUMPDEST DUP2 SLOAD DUP2 MSTORE SWAP1 PUSH1 0x1 ADD SWAP1 PUSH1 0x20 ADD DUP1 DUP4 GT PUSH2 0x10BC JUMPI DUP3 SWAP1 SUB PUSH1 0x1F AND DUP3 ADD SWAP2 JUMPDEST POP POP POP POP POP SWAP1 DUP1 PUSH1 0x4 ADD SLOAD SWAP1 DUP1 PUSH1 0x5 ADD PUSH0 SWAP1 SLOAD SWAP1 PUSH2 0x100 EXP SWAP1 DIV PUSH1 0xFF AND SWAP1 DUP1 PUSH1 0x5 ADD PUSH1 0x1 SWAP1 SLOAD SWAP1 PUSH2 0x100 EXP SWAP1 DIV PUSH1 0xFF AND SWAP1 DUP1 PUSH1 0x6 ADD DUP1 SLOAD PUSH2 0x1119 SWAP1 PUSH2 0x1C22 JUMP JUMPDEST DUP1 PUSH1 0x1F ADD PUSH1 0x20 DUP1 SWAP2 DIV MUL PUSH1 0x20 ADD PUSH1 0x40 MLOAD SWAP1 DUP2 ADD PUSH1 0x40 MSTORE DUP1 SWAP3 SWAP2 SWAP1 DUP2 DUP2 MSTORE PUSH1 0x20 ADD DUP3 DUP1 SLOAD PUSH2 0x1145 SWAP1 PUSH2 0x1C22 JUMP JUMPDEST DUP1 ISZERO PUSH2 0x1190 JUMPI DUP1 PUSH1 0x1F LT PUSH2 0x1167 JUMPI PUSH2 0x100 DUP1 DUP4 SLOAD DIV MUL DUP4 MSTORE SWAP2 PUSH1 0x20 ADD SWAP2 PUSH2 0x1190 JUMP JUMPDEST DUP3 ADD SWAP2 SWAP1 PUSH0 MSTORE PUSH1 0x20 PUSH0 KECCAK256 SWAP1 JUMPDEST DUP2 SLOAD DUP2 MSTORE SWAP1 PUSH1 0x1 ADD SWAP1 PUSH1 0x20 ADD DUP1 DUP4 GT PUSH2 0x1173 JUMPI DUP3 SWAP1 SUB PUSH1 0x1F AND DUP3 ADD SWAP2 JUMPDEST POP POP POP POP POP SWAP1 DUP1 PUSH1 0x7 ADD SLOAD SWAP1 DUP1 PUSH1 0x8 ADD PUSH0 SWAP1 SLOAD SWAP1 PUSH2 0x100 EXP SWAP1 DIV PUSH1 0xFF AND SWAP1 POP DUP11 JUMP JUMPDEST PUSH1 0x1 PUSH0 SWAP1 SLOAD SWAP1 PUSH2 0x100 EXP SWAP1 DIV PUSH20 0xFFFFFFFFFFFFFFFFFFFFFFFFFFFFFFFFFFFFFFFF AND PUSH20 0xFFFFFFFFFFFFFFFFFFFFFFFFFFFFFFFFFFFFFFFF AND CALLER PUSH20 0xFFFFFFFFFFFFFFFFFFFFFFFFFFFFFFFFFFFFFFFF AND EQ PUSH2 0x1241 JUMPI PUSH1 0x40 MLOAD PUSH32 0x8C379A000000000000000000000000000000000000000000000000000000000 DUP2 MSTORE PUSH1 0x4 ADD PUSH2 0x1238 SWAP1 PUSH2 0x2154 JUMP JUMPDEST PUSH1 0x40 MLOAD DUP1 SWAP2 SUB SWAP1 REVERT JUMPDEST PUSH0 DUP1 SLOAD SWAP1 POP DUP3 LT PUSH2 0x1287 JUMPI PUSH1 0x40 MLOAD PUSH32 0x8C379A000000000000000000000000000000000000000000000000000000000 DUP2 MSTORE PUSH1 0x4 ADD PUSH2 0x127E SWAP1 PUSH2 0x1C9C JUMP JUMPDEST PUSH1 0x40 MLOAD DUP1 SWAP2 SUB SWAP1 REVERT JUMPDEST DUP1 PUSH0 DUP4 DUP2 SLOAD DUP2 LT PUSH2 0x129B JUMPI PUSH2 0x129A PUSH2 0x1CBA JUMP JUMPDEST JUMPDEST SWAP1 PUSH0 MSTORE PUSH1 0x20 PUSH0 KECCAK256 SWAP1 PUSH1 0x9 MUL ADD PUSH1 0x7 ADD DUP2 SWAP1 SSTORE POP POP POP JUMP JUMPDEST PUSH1 0x40 MLOAD DUP1 PUSH2 0x140 ADD PUSH1 0x40 MSTORE DUP1 PUSH0 PUSH20 0xFFFFFFFFFFFFFFFFFFFFFFFFFFFFFFFFFFFFFFFF AND DUP2 MSTORE PUSH1 0x20 ADD PUSH1 0x60 DUP2 MSTORE PUSH1 0x20 ADD PUSH1 0x60 DUP2 MSTORE PUSH1 0x20 ADD PUSH1 0x60 DUP2 MSTORE PUSH1 0x20 ADD PUSH0 DUP2 MSTORE PUSH1 0x20 ADD PUSH0 PUSH1 0xFF AND DUP2 MSTORE PUSH1 0x20 ADD PUSH0 PUSH1 0xFF AND DUP2 MSTORE PUSH1 0x20 ADD PUSH1 0x60 DUP2 MSTORE PUSH1 0x20 ADD PUSH0 DUP2 MSTORE PUSH1 0x20 ADD PUSH0 ISZERO ISZERO DUP2 MSTORE POP SWAP1 JUMP JUMPDEST PUSH0 DUP2 MLOAD SWAP1 POP SWAP2 SWAP1 POP JUMP JUMPDEST PUSH0 DUP3 DUP3 MSTORE PUSH1 0x20 DUP3 ADD SWAP1 POP SWAP3 SWAP2 POP POP JUMP JUMPDEST PUSH0 DUP2 SWAP1 POP PUSH1 0x20 DUP3 ADD SWAP1 POP SWAP2 SWAP1 POP JUMP JUMPDEST PUSH0 PUSH20 0xFFFFFFFFFFFFFFFFFFFFFFFFFFFFFFFFFFFFFFFF DUP3 AND SWAP1 POP SWAP2 SWAP1 POP JUMP JUMPDEST PUSH0 PUSH2 0x136F DUP3 PUSH2 0x1346 JUMP JUMPDEST SWAP1 POP SWAP2 SWAP1 POP JUMP JUMPDEST PUSH2 0x137F DUP2 PUSH2 0x1365 JUMP JUMPDEST DUP3 MSTORE POP POP JUMP JUMPDEST PUSH0 DUP2 MLOAD SWAP1 POP SWAP2 SWAP1 POP JUMP JUMPDEST PUSH0 DUP3 DUP3 MSTORE PUSH1 0x20 DUP3 ADD SWAP1 POP SWAP3 SWAP2 POP POP JUMP JUMPDEST PUSH0 JUMPDEST DUP4 DUP2 LT ISZERO PUSH2 0x13BC JUMPI DUP1 DUP3 ADD MLOAD DUP2 DUP5 ADD MSTORE PUSH1 0x20 DUP2 ADD SWAP1 POP PUSH2 0x13A1 JUMP JUMPDEST PUSH0 DUP5 DUP5 ADD MSTORE POP POP POP POP JUMP JUMPDEST PUSH0 PUSH1 0x1F NOT PUSH1 0x1F DUP4 ADD AND SWAP1 POP SWAP2 SWAP1 POP JUMP JUMPDEST PUSH0 PUSH2 0x13E1 DUP3 PUSH2 0x1385 JUMP JUMPDEST PUSH2 0x13EB DUP2 DUP6 PUSH2 0x138F JUMP JUMPDEST SWAP4 POP PUSH2 0x13FB DUP2 DUP6 PUSH1 0x20 DUP7 ADD PUSH2 0x139F JUMP JUMPDEST PUSH2 0x1404 DUP2 PUSH2 0x13C7 JUMP JUMPDEST DUP5 ADD SWAP2 POP POP SWAP3 SWAP2 POP POP JUMP JUMPDEST PUSH0 DUP2 SWAP1 POP SWAP2 SWAP1 POP JUMP JUMPDEST PUSH2 0x1421 DUP2 PUSH2 0x140F JUMP JUMPDEST DUP3 MSTORE POP POP JUMP JUMPDEST PUSH0 PUSH1 0xFF DUP3 AND SWAP1 POP SWAP2 SWAP1 POP JUMP JUMPDEST PUSH2 0x143C DUP2 PUSH2 0x1427 JUMP JUMPDEST DUP3 MSTORE POP POP JUMP JUMPDEST PUSH0 DUP2 ISZERO ISZERO SWAP1 POP SWAP2 SWAP1 POP JUMP JUMPDEST PUSH2 0x1456 DUP2 PUSH2 0x1442 JUMP JUMPDEST DUP3 MSTORE POP POP JUMP JUMPDEST PUSH0 PUSH2 0x140 DUP4 ADD PUSH0 DUP4 ADD MLOAD PUSH2 0x1472 PUSH0 DUP7 ADD DUP3 PUSH2 0x1376 JUMP JUMPDEST POP PUSH1 0x20 DUP4 ADD MLOAD DUP5 DUP3 SUB PUSH1 0x20 DUP7 ADD MSTORE PUSH2 0x148A DUP3 DUP3 PUSH2 0x13D7 JUMP JUMPDEST SWAP2 POP POP PUSH1 0x40 DUP4 ADD MLOAD DUP5 DUP3 SUB PUSH1 0x40 DUP7 ADD MSTORE PUSH2 0x14A4 DUP3 DUP3 PUSH2 0x13D7 JUMP JUMPDEST SWAP2 POP POP PUSH1 0x60 DUP4 ADD MLOAD DUP5 DUP3 SUB PUSH1 0x60 DUP7 ADD MSTORE PUSH2 0x14BE DUP3 DUP3 PUSH2 0x13D7 JUMP JUMPDEST SWAP2 POP POP PUSH1 0x80 DUP4 ADD MLOAD PUSH2 0x14D3 PUSH1 0x80 DUP7 ADD DUP3 PUSH2 0x1418 JUMP JUMPDEST POP PUSH1 0xA0 DUP4 ADD MLOAD PUSH2 0x14E6 PUSH1 0xA0 DUP7 ADD DUP3 PUSH2 0x1433 JUMP JUMPDEST POP PUSH1 0xC0 DUP4 ADD MLOAD PUSH2 0x14F9 PUSH1 0xC0 DUP7 ADD DUP3 PUSH2 0x1433 JUMP JUMPDEST POP PUSH1 0xE0 DUP4 ADD MLOAD DUP5 DUP3 SUB PUSH1 0xE0 DUP7 ADD MSTORE PUSH2 0x1511 DUP3 DUP3 PUSH2 0x13D7 JUMP JUMPDEST SWAP2 POP POP PUSH2 0x100 DUP4 ADD MLOAD PUSH2 0x1528 PUSH2 0x100 DUP7 ADD DUP3 PUSH2 0x1418 JUMP JUMPDEST POP PUSH2 0x120 DUP4 ADD MLOAD PUSH2 0x153D PUSH2 0x120 DUP7 ADD DUP3 PUSH2 0x144D JUMP JUMPDEST POP DUP1 SWAP2 POP POP SWAP3 SWAP2 POP POP JUMP JUMPDEST PUSH0 PUSH2 0x1553 DUP4 DUP4 PUSH2 0x145C JUMP JUMPDEST SWAP1 POP SWAP3 SWAP2 POP POP JUMP JUMPDEST PUSH0 PUSH1 0x20 DUP3 ADD SWAP1 POP SWAP2 SWAP1 POP JUMP JUMPDEST PUSH0 PUSH2 0x1571 DUP3 PUSH2 0x131D JUMP JUMPDEST PUSH2 0x157B DUP2 DUP6 PUSH2 0x1327 JUMP JUMPDEST SWAP4 POP DUP4 PUSH1 0x20 DUP3 MUL DUP6 ADD PUSH2 0x158D DUP6 PUSH2 0x1337 JUMP JUMPDEST DUP1 PUSH0 JUMPDEST DUP6 DUP2 LT ISZERO PUSH2 0x15C8 JUMPI DUP5 DUP5 SUB DUP10 MSTORE DUP2 MLOAD PUSH2 0x15A9 DUP6 DUP3 PUSH2 0x1548 JUMP JUMPDEST SWAP5 POP PUSH2 0x15B4 DUP4 PUSH2 0x155B JUMP JUMPDEST SWAP3 POP PUSH1 0x20 DUP11 ADD SWAP10 POP POP PUSH1 0x1 DUP2 ADD SWAP1 POP PUSH2 0x1590 JUMP JUMPDEST POP DUP3 SWAP8 POP DUP8 SWAP6 POP POP POP POP POP POP SWAP3 SWAP2 POP POP JUMP JUMPDEST PUSH0 PUSH1 0x20 DUP3 ADD SWAP1 POP DUP2 DUP2 SUB PUSH0 DUP4 ADD MSTORE PUSH2 0x15F2 DUP2 DUP5 PUSH2 0x1567 JUMP JUMPDEST SWAP1 POP SWAP3 SWAP2 POP POP JUMP JUMPDEST PUSH0 PUSH1 0x40 MLOAD SWAP1 POP SWAP1 JUMP JUMPDEST PUSH0 DUP1 REVERT JUMPDEST PUSH0 DUP1 REVERT JUMPDEST PUSH2 0x1614 DUP2 PUSH2 0x140F JUMP JUMPDEST DUP2 EQ PUSH2 0x161E JUMPI PUSH0 DUP1 REVERT JUMPDEST POP JUMP JUMPDEST PUSH0 DUP2 CALLDATALOAD SWAP1 POP PUSH2 0x162F DUP2 PUSH2 0x160B JUMP JUMPDEST SWAP3 SWAP2 POP POP JUMP JUMPDEST PUSH0 PUSH1 0x20 DUP3 DUP5 SUB SLT ISZERO PUSH2 0x164A JUMPI PUSH2 0x1649 PUSH2 0x1603 JUMP JUMPDEST JUMPDEST PUSH0 PUSH2 0x1657 DUP5 DUP3 DUP6 ADD PUSH2 0x1621 JUMP JUMPDEST SWAP2 POP POP SWAP3 SWAP2 POP POP JUMP JUMPDEST PUSH2 0x1669 DUP2 PUSH2 0x140F JUMP JUMPDEST DUP3 MSTORE POP POP JUMP JUMPDEST PUSH0 PUSH1 0x20 DUP3 ADD SWAP1 POP PUSH2 0x1682 PUSH0 DUP4 ADD DUP5 PUSH2 0x1660 JUMP JUMPDEST SWAP3 SWAP2 POP POP JUMP JUMPDEST PUSH2 0x1691 DUP2 PUSH2 0x1365 JUMP JUMPDEST DUP3 MSTORE POP POP JUMP JUMPDEST PUSH0 PUSH1 0x20 DUP3 ADD SWAP1 POP PUSH2 0x16AA PUSH0 DUP4 ADD DUP5 PUSH2 0x1688 JUMP JUMPDEST SWAP3 SWAP2 POP POP JUMP JUMPDEST PUSH2 0x16B9 DUP2 PUSH2 0x1442 JUMP JUMPDEST DUP2 EQ PUSH2 0x16C3 JUMPI PUSH0 DUP1 REVERT JUMPDEST POP JUMP JUMPDEST PUSH0 DUP2 CALLDATALOAD SWAP1 POP PUSH2 0x16D4 DUP2 PUSH2 0x16B0 JUMP JUMPDEST SWAP3 SWAP2 POP POP JUMP JUMPDEST PUSH0 DUP1 PUSH1 0x40 DUP4 DUP6 SUB SLT ISZERO PUSH2 0x16F0 JUMPI PUSH2 0x16EF PUSH2 0x1603 JUMP JUMPDEST JUMPDEST PUSH0 PUSH2 0x16FD DUP6 DUP3 DUP7 ADD PUSH2 0x1621 JUMP JUMPDEST SWAP3 POP POP PUSH1 0x20 PUSH2 0x170E DUP6 DUP3 DUP7 ADD PUSH2 0x16C6 JUMP JUMPDEST SWAP2 POP POP SWAP3 POP SWAP3 SWAP1 POP JUMP JUMPDEST PUSH0 PUSH2 0x140 DUP4 ADD PUSH0 DUP4 ADD MLOAD PUSH2 0x172E PUSH0 DUP7 ADD DUP3 PUSH2 0x1376 JUMP JUMPDEST POP PUSH1 0x20 DUP4 ADD MLOAD DUP5 DUP3 SUB PUSH1 0x20 DUP7 ADD MSTORE PUSH2 0x1746 DUP3 DUP3 PUSH2 0x13D7 JUMP JUMPDEST SWAP2 POP POP PUSH1 0x40 DUP4 ADD MLOAD DUP5 DUP3 SUB PUSH1 0x40 DUP7 ADD MSTORE PUSH2 0x1760 DUP3 DUP3 PUSH2 0x13D7 JUMP JUMPDEST SWAP2 POP POP PUSH1 0x60 DUP4 ADD MLOAD DUP5 DUP3 SUB PUSH1 0x60 DUP7 ADD MSTORE PUSH2 0x177A DUP3 DUP3 PUSH2 0x13D7 JUMP JUMPDEST SWAP2 POP POP PUSH1 0x80 DUP4 ADD MLOAD PUSH2 0x178F PUSH1 0x80 DUP7 ADD DUP3 PUSH2 0x1418 JUMP JUMPDEST POP PUSH1 0xA0 DUP4 ADD MLOAD PUSH2 0x17A2 PUSH1 0xA0 DUP7 ADD DUP3 PUSH2 0x1433 JUMP JUMPDEST POP PUSH1 0xC0 DUP4 ADD MLOAD PUSH2 0x17B5 PUSH1 0xC0 DUP7 ADD DUP3 PUSH2 0x1433 JUMP JUMPDEST POP PUSH1 0xE0 DUP4 ADD MLOAD DUP5 DUP3 SUB PUSH1 0xE0 DUP7 ADD MSTORE PUSH2 0x17CD DUP3 DUP3 PUSH2 0x13D7 JUMP JUMPDEST SWAP2 POP POP PUSH2 0x100 DUP4 ADD MLOAD PUSH2 0x17E4 PUSH2 0x100 DUP7 ADD DUP3 PUSH2 0x1418 JUMP JUMPDEST POP PUSH2 0x120 DUP4 ADD MLOAD PUSH2 0x17F9 PUSH2 0x120 DUP7 ADD DUP3 PUSH2 0x144D JUMP JUMPDEST POP DUP1 SWAP2 POP POP SWAP3 SWAP2 POP POP JUMP JUMPDEST PUSH0 PUSH1 0x20 DUP3 ADD SWAP1 POP DUP2 DUP2 SUB PUSH0 DUP4 ADD MSTORE PUSH2 0x181C DUP2 DUP5 PUSH2 0x1718 JUMP JUMPDEST SWAP1 POP SWAP3 SWAP2 POP POP JUMP JUMPDEST PUSH0 DUP1 REVERT JUMPDEST PUSH0 DUP1 REVERT JUMPDEST PUSH32 0x4E487B7100000000000000000000000000000000000000000000000000000000 PUSH0 MSTORE PUSH1 0x41 PUSH1 0x4 MSTORE PUSH1 0x24 PUSH0 REVERT JUMPDEST PUSH2 0x1862 DUP3 PUSH2 0x13C7 JUMP JUMPDEST DUP2 ADD DUP2 DUP2 LT PUSH8 0xFFFFFFFFFFFFFFFF DUP3 GT OR ISZERO PUSH2 0x1881 JUMPI PUSH2 0x1880 PUSH2 0x182C JUMP JUMPDEST JUMPDEST DUP1 PUSH1 0x40 MSTORE POP POP POP JUMP JUMPDEST PUSH0 PUSH2 0x1893 PUSH2 0x15FA JUMP JUMPDEST SWAP1 POP PUSH2 0x189F DUP3 DUP3 PUSH2 0x1859 JUMP JUMPDEST SWAP2 SWAP1 POP JUMP JUMPDEST PUSH0 PUSH8 0xFFFFFFFFFFFFFFFF DUP3 GT ISZERO PUSH2 0x18BE JUMPI PUSH2 0x18BD PUSH2 0x182C JUMP JUMPDEST JUMPDEST PUSH2 0x18C7 DUP3 PUSH2 0x13C7 JUMP JUMPDEST SWAP1 POP PUSH1 0x20 DUP2 ADD SWAP1 POP SWAP2 SWAP1 POP JUMP JUMPDEST DUP3 DUP2 DUP4 CALLDATACOPY PUSH0 DUP4 DUP4 ADD MSTORE POP POP POP JUMP JUMPDEST PUSH0 PUSH2 0x18F4 PUSH2 0x18EF DUP5 PUSH2 0x18A4 JUMP JUMPDEST PUSH2 0x188A JUMP JUMPDEST SWAP1 POP DUP3 DUP2 MSTORE PUSH1 0x20 DUP2 ADD DUP5 DUP5 DUP5 ADD GT ISZERO PUSH2 0x1910 JUMPI PUSH2 0x190F PUSH2 0x1828 JUMP JUMPDEST JUMPDEST PUSH2 0x191B DUP5 DUP3 DUP6 PUSH2 0x18D4 JUMP JUMPDEST POP SWAP4 SWAP3 POP POP POP JUMP JUMPDEST PUSH0 DUP3 PUSH1 0x1F DUP4 ADD SLT PUSH2 0x1937 JUMPI PUSH2 0x1936 PUSH2 0x1824 JUMP JUMPDEST JUMPDEST DUP2 CALLDATALOAD PUSH2 0x1947 DUP5 DUP3 PUSH1 0x20 DUP7 ADD PUSH2 0x18E2 JUMP JUMPDEST SWAP2 POP POP SWAP3 SWAP2 POP POP JUMP JUMPDEST PUSH2 0x1959 DUP2 PUSH2 0x1427 JUMP JUMPDEST DUP2 EQ PUSH2 0x1963 JUMPI PUSH0 DUP1 REVERT JUMPDEST POP JUMP JUMPDEST PUSH0 DUP2 CALLDATALOAD SWAP1 POP PUSH2 0x1974 DUP2 PUSH2 0x1950 JUMP JUMPDEST SWAP3 SWAP2 POP POP JUMP JUMPDEST PUSH0 DUP1 PUSH0 DUP1 PUSH0 DUP1 PUSH0 DUP1 PUSH2 0x100 DUP10 DUP12 SUB SLT ISZERO PUSH2 0x1997 JUMPI PUSH2 0x1996 PUSH2 0x1603 JUMP JUMPDEST JUMPDEST PUSH0 DUP10 ADD CALLDATALOAD PUSH8 0xFFFFFFFFFFFFFFFF DUP2 GT ISZERO PUSH2 0x19B4 JUMPI PUSH2 0x19B3 PUSH2 0x1607 JUMP JUMPDEST JUMPDEST PUSH2 0x19C0 DUP12 DUP3 DUP13 ADD PUSH2 0x1923 JUMP JUMPDEST SWAP9 POP POP PUSH1 0x20 DUP10 ADD CALLDATALOAD PUSH8 0xFFFFFFFFFFFFFFFF DUP2 GT ISZERO PUSH2 0x19E1 JUMPI PUSH2 0x19E0 PUSH2 0x1607 JUMP JUMPDEST JUMPDEST PUSH2 0x19ED DUP12 DUP3 DUP13 ADD PUSH2 0x1923 JUMP JUMPDEST SWAP8 POP POP PUSH1 0x40 DUP10 ADD CALLDATALOAD PUSH8 0xFFFFFFFFFFFFFFFF DUP2 GT ISZERO PUSH2 0x1A0E JUMPI PUSH2 0x1A0D PUSH2 0x1607 JUMP JUMPDEST JUMPDEST PUSH2 0x1A1A DUP12 DUP3 DUP13 ADD PUSH2 0x1923 JUMP JUMPDEST SWAP7 POP POP PUSH1 0x60 PUSH2 0x1A2B DUP12 DUP3 DUP13 ADD PUSH2 0x1621 JUMP JUMPDEST SWAP6 POP POP PUSH1 0x80 PUSH2 0x1A3C DUP12 DUP3 DUP13 ADD PUSH2 0x1966 JUMP JUMPDEST SWAP5 POP POP PUSH1 0xA0 PUSH2 0x1A4D DUP12 DUP3 DUP13 ADD PUSH2 0x1966 JUMP JUMPDEST SWAP4 POP POP PUSH1 0xC0 DUP10 ADD CALLDATALOAD PUSH8 0xFFFFFFFFFFFFFFFF DUP2 GT ISZERO PUSH2 0x1A6E JUMPI PUSH2 0x1A6D PUSH2 0x1607 JUMP JUMPDEST JUMPDEST PUSH2 0x1A7A DUP12 DUP3 DUP13 ADD PUSH2 0x1923 JUMP JUMPDEST SWAP3 POP POP PUSH1 0xE0 PUSH2 0x1A8B DUP12 DUP3 DUP13 ADD PUSH2 0x1621 JUMP JUMPDEST SWAP2 POP POP SWAP3 SWAP6 SWAP9 POP SWAP3 SWAP6 SWAP9 SWAP1 SWAP4 SWAP7 POP JUMP JUMPDEST PUSH0 DUP3 DUP3 MSTORE PUSH1 0x20 DUP3 ADD SWAP1 POP SWAP3 SWAP2 POP POP JUMP JUMPDEST PUSH0 PUSH2 0x1AB5 DUP3 PUSH2 0x1385 JUMP JUMPDEST PUSH2 0x1ABF DUP2 DUP6 PUSH2 0x1A9B JUMP JUMPDEST SWAP4 POP PUSH2 0x1ACF DUP2 DUP6 PUSH1 0x20 DUP7 ADD PUSH2 0x139F JUMP JUMPDEST PUSH2 0x1AD8 DUP2 PUSH2 0x13C7 JUMP JUMPDEST DUP5 ADD SWAP2 POP POP SWAP3 SWAP2 POP POP JUMP JUMPDEST PUSH2 0x1AEC DUP2 PUSH2 0x1427 JUMP JUMPDEST DUP3 MSTORE POP POP JUMP JUMPDEST PUSH2 0x1AFB DUP2 PUSH2 0x1442 JUMP JUMPDEST DUP3 MSTORE POP POP JUMP JUMPDEST PUSH0 PUSH2 0x140 DUP3 ADD SWAP1 POP PUSH2 0x1B15 PUSH0 DUP4 ADD DUP14 PUSH2 0x1688 JUMP JUMPDEST DUP2 DUP2 SUB PUSH1 0x20 DUP4 ADD MSTORE PUSH2 0x1B27 DUP2 DUP13 PUSH2 0x1AAB JUMP JUMPDEST SWAP1 POP DUP2 DUP2 SUB PUSH1 0x40 DUP4 ADD MSTORE PUSH2 0x1B3B DUP2 DUP12 PUSH2 0x1AAB JUMP JUMPDEST SWAP1 POP DUP2 DUP2 SUB PUSH1 0x60 DUP4 ADD MSTORE PUSH2 0x1B4F DUP2 DUP11 PUSH2 0x1AAB JUMP JUMPDEST SWAP1 POP PUSH2 0x1B5E PUSH1 0x80 DUP4 ADD DUP10 PUSH2 0x1660 JUMP JUMPDEST PUSH2 0x1B6B PUSH1 0xA0 DUP4 ADD DUP9 PUSH2 0x1AE3 JUMP JUMPDEST PUSH2 0x1B78 PUSH1 0xC0 DUP4 ADD DUP8 PUSH2 0x1AE3 JUMP JUMPDEST DUP2 DUP2 SUB PUSH1 0xE0 DUP4 ADD MSTORE PUSH2 0x1B8A DUP2 DUP7 PUSH2 0x1AAB JUMP JUMPDEST SWAP1 POP PUSH2 0x1B9A PUSH2 0x100 DUP4 ADD DUP6 PUSH2 0x1660 JUMP JUMPDEST PUSH2 0x1BA8 PUSH2 0x120 DUP4 ADD DUP5 PUSH2 0x1AF2 JUMP JUMPDEST SWAP12 SWAP11 POP POP POP POP POP POP POP POP POP POP POP JUMP JUMPDEST PUSH0 DUP1 PUSH1 0x40 DUP4 DUP6 SUB SLT ISZERO PUSH2 0x1BCD JUMPI PUSH2 0x1BCC PUSH2 0x1603 JUMP JUMPDEST JUMPDEST PUSH0 PUSH2 0x1BDA DUP6 DUP3 DUP7 ADD PUSH2 0x1621 JUMP JUMPDEST SWAP3 POP POP PUSH1 0x20 PUSH2 0x1BEB DUP6 DUP3 DUP7 ADD PUSH2 0x1621 JUMP JUMPDEST SWAP2 POP POP SWAP3 POP SWAP3 SWAP1 POP JUMP JUMPDEST PUSH32 0x4E487B7100000000000000000000000000000000000000000000000000000000 PUSH0 MSTORE PUSH1 0x22 PUSH1 0x4 MSTORE PUSH1 0x24 PUSH0 REVERT JUMPDEST PUSH0 PUSH1 0x2 DUP3 DIV SWAP1 POP PUSH1 0x1 DUP3 AND DUP1 PUSH2 0x1C39 JUMPI PUSH1 0x7F DUP3 AND SWAP2 POP JUMPDEST PUSH1 0x20 DUP3 LT DUP2 SUB PUSH2 0x1C4C JUMPI PUSH2 0x1C4B PUSH2 0x1BF5 JUMP JUMPDEST JUMPDEST POP SWAP2 SWAP1 POP JUMP JUMPDEST PUSH32 0x496E76616C69642070726F706572747920696E64657800000000000000000000 PUSH0 DUP3 ADD MSTORE POP JUMP JUMPDEST PUSH0 PUSH2 0x1C86 PUSH1 0x16 DUP4 PUSH2 0x1A9B JUMP JUMPDEST SWAP2 POP PUSH2 0x1C91 DUP3 PUSH2 0x1C52 JUMP JUMPDEST PUSH1 0x20 DUP3 ADD SWAP1 POP SWAP2 SWAP1 POP JUMP JUMPDEST PUSH0 PUSH1 0x20 DUP3 ADD SWAP1 POP DUP2 DUP2 SUB PUSH0 DUP4 ADD MSTORE PUSH2 0x1CB3 DUP2 PUSH2 0x1C7A JUMP JUMPDEST SWAP1 POP SWAP2 SWAP1 POP JUMP JUMPDEST PUSH32 0x4E487B7100000000000000000000000000000000000000000000000000000000 PUSH0 MSTORE PUSH1 0x32 PUSH1 0x4 MSTORE PUSH1 0x24 PUSH0 REVERT JUMPDEST PUSH32 0x496E73756666696369656E742066756E64730000000000000000000000000000 PUSH0 DUP3 ADD MSTORE POP JUMP JUMPDEST PUSH0 PUSH2 0x1D1B PUSH1 0x12 DUP4 PUSH2 0x1A9B JUMP JUMPDEST SWAP2 POP PUSH2 0x1D26 DUP3 PUSH2 0x1CE7 JUMP JUMPDEST PUSH1 0x20 DUP3 ADD SWAP1 POP SWAP2 SWAP1 POP JUMP JUMPDEST PUSH0 PUSH1 0x20 DUP3 ADD SWAP1 POP DUP2 DUP2 SUB PUSH0 DUP4 ADD MSTORE PUSH2 0x1D48 DUP2 PUSH2 0x1D0F JUMP JUMPDEST SWAP1 POP SWAP2 SWAP1 POP JUMP JUMPDEST PUSH32 0x50726F7065727479206973206E6F7420617661696C61626C6520666F72207075 PUSH0 DUP3 ADD MSTORE PUSH32 0x7263686173650000000000000000000000000000000000000000000000000000 PUSH1 0x20 DUP3 ADD MSTORE POP JUMP JUMPDEST PUSH0 PUSH2 0x1DA9 PUSH1 0x26 DUP4 PUSH2 0x1A9B JUMP JUMPDEST SWAP2 POP PUSH2 0x1DB4 DUP3 PUSH2 0x1D4F JUMP JUMPDEST PUSH1 0x40 DUP3 ADD SWAP1 POP SWAP2 SWAP1 POP JUMP JUMPDEST PUSH0 PUSH1 0x20 DUP3 ADD SWAP1 POP DUP2 DUP2 SUB PUSH0 DUP4 ADD MSTORE PUSH2 0x1DD6 DUP2 PUSH2 0x1D9D JUMP JUMPDEST SWAP1 POP SWAP2 SWAP1 POP JUMP JUMPDEST PUSH32 0x50726F706572747920426F756768740000000000000000000000000000000000 PUSH0 DUP3 ADD MSTORE POP JUMP JUMPDEST PUSH0 PUSH2 0x1E11 PUSH1 0xF DUP4 PUSH2 0x1A9B JUMP JUMPDEST SWAP2 POP PUSH2 0x1E1C DUP3 PUSH2 0x1DDD JUMP JUMPDEST PUSH1 0x20 DUP3 ADD SWAP1 POP SWAP2 SWAP1 POP JUMP JUMPDEST PUSH0 DUP2 PUSH0 SHR SWAP1 POP SWAP2 SWAP1 POP JUMP JUMPDEST PUSH0 PUSH20 0xFFFFFFFFFFFFFFFFFFFFFFFFFFFFFFFFFFFFFFFF DUP3 AND SWAP1 POP SWAP2 SWAP1 POP JUMP JUMPDEST PUSH0 PUSH2 0x1E63 PUSH2 0x1E5E DUP4 PUSH2 0x1E27 JUMP JUMPDEST PUSH2 0x1E32 JUMP JUMPDEST SWAP1 POP SWAP2 SWAP1 POP JUMP JUMPDEST PUSH0 DUP2 SWAP1 POP DUP2 PUSH0 MSTORE PUSH1 0x20 PUSH0 KECCAK256 SWAP1 POP SWAP2 SWAP1 POP JUMP JUMPDEST PUSH0 DUP2 SLOAD PUSH2 0x1E88 DUP2 PUSH2 0x1C22 JUMP JUMPDEST PUSH2 0x1E92 DUP2 DUP7 PUSH2 0x138F JUMP JUMPDEST SWAP5 POP PUSH1 0x1 DUP3 AND PUSH0 DUP2 EQ PUSH2 0x1EAC JUMPI PUSH1 0x1 DUP2 EQ PUSH2 0x1EC2 JUMPI PUSH2 0x1EF4 JUMP JUMPDEST PUSH1 0xFF NOT DUP4 AND DUP7 MSTORE DUP2 ISZERO ISZERO PUSH1 0x20 MUL DUP7 ADD SWAP4 POP PUSH2 0x1EF4 JUMP JUMPDEST PUSH2 0x1ECB DUP6 PUSH2 0x1E6A JUMP JUMPDEST PUSH0 JUMPDEST DUP4 DUP2 LT ISZERO PUSH2 0x1EEC JUMPI DUP2 SLOAD DUP2 DUP10 ADD MSTORE PUSH1 0x1 DUP3 ADD SWAP2 POP PUSH1 0x20 DUP2 ADD SWAP1 POP PUSH2 0x1ECD JUMP JUMPDEST DUP1 DUP9 ADD SWAP6 POP POP POP JUMPDEST POP POP POP SWAP3 SWAP2 POP POP JUMP JUMPDEST PUSH0 DUP2 SWAP1 POP SWAP2 SWAP1 POP JUMP JUMPDEST PUSH0 PUSH2 0x1F18 PUSH2 0x1F13 DUP4 PUSH2 0x1E27 JUMP JUMPDEST PUSH2 0x1EFD JUMP JUMPDEST SWAP1 POP SWAP2 SWAP1 POP JUMP JUMPDEST PUSH0 PUSH1 0xFF DUP3 AND SWAP1 POP SWAP2 SWAP1 POP JUMP JUMPDEST PUSH0 PUSH2 0x1F3D PUSH2 0x1F38 DUP4 PUSH2 0x1E27 JUMP JUMPDEST PUSH2 0x1F1F JUMP JUMPDEST SWAP1 POP SWAP2 SWAP1 POP JUMP JUMPDEST PUSH0 DUP2 PUSH1 0x8 SHR SWAP1 POP SWAP2 SWAP1 POP JUMP JUMPDEST PUSH0 PUSH2 0x1F62 PUSH2 0x1F5D DUP4 PUSH2 0x1F44 JUMP JUMPDEST PUSH2 0x1F1F JUMP JUMPDEST SWAP1 POP SWAP2 SWAP1 POP JUMP JUMPDEST PUSH0 PUSH1 0xFF DUP3 AND SWAP1 POP SWAP2 SWAP1 POP JUMP JUMPDEST PUSH0 PUSH2 0x1F87 PUSH2 0x1F82 DUP4 PUSH2 0x1E27 JUMP JUMPDEST PUSH2 0x1F69 JUMP JUMPDEST SWAP1 POP SWAP2 SWAP1 POP JUMP JUMPDEST PUSH0 PUSH2 0x140 DUP4 ADD PUSH0 DUP1 DUP5 ADD SLOAD SWAP1 POP PUSH2 0x1FA4 DUP2 PUSH2 0x1E51 JUMP JUMPDEST PUSH2 0x1FB0 PUSH0 DUP8 ADD DUP3 PUSH2 0x1376 JUMP JUMPDEST POP PUSH1 0x1 DUP5 ADD DUP6 DUP4 SUB PUSH1 0x20 DUP8 ADD MSTORE PUSH2 0x1FC7 DUP4 DUP3 PUSH2 0x1E7C JUMP JUMPDEST SWAP3 POP POP PUSH1 0x2 DUP5 ADD DUP6 DUP4 SUB PUSH1 0x40 DUP8 ADD MSTORE PUSH2 0x1FE0 DUP4 DUP3 PUSH2 0x1E7C JUMP JUMPDEST SWAP3 POP POP PUSH1 0x3 DUP5 ADD DUP6 DUP4 SUB PUSH1 0x60 DUP8 ADD MSTORE PUSH2 0x1FF9 DUP4 DUP3 PUSH2 0x1E7C JUMP JUMPDEST SWAP3 POP POP PUSH1 0x4 DUP5 ADD SLOAD SWAP1 POP PUSH2 0x200C DUP2 PUSH2 0x1F06 JUMP JUMPDEST PUSH2 0x2019 PUSH1 0x80 DUP8 ADD DUP3 PUSH2 0x1418 JUMP JUMPDEST POP PUSH1 0x5 DUP5 ADD SLOAD SWAP1 POP PUSH2 0x202A DUP2 PUSH2 0x1F2B JUMP JUMPDEST PUSH2 0x2037 PUSH1 0xA0 DUP8 ADD DUP3 PUSH2 0x1433 JUMP JUMPDEST POP PUSH2 0x2041 DUP2 PUSH2 0x1F50 JUMP JUMPDEST PUSH2 0x204E PUSH1 0xC0 DUP8 ADD DUP3 PUSH2 0x1433 JUMP JUMPDEST POP PUSH1 0x6 DUP5 ADD DUP6 DUP4 SUB PUSH1 0xE0 DUP8 ADD MSTORE PUSH2 0x2065 DUP4 DUP3 PUSH2 0x1E7C JUMP JUMPDEST SWAP3 POP POP PUSH1 0x7 DUP5 ADD SLOAD SWAP1 POP PUSH2 0x2078 DUP2 PUSH2 0x1F06 JUMP JUMPDEST PUSH2 0x2086 PUSH2 0x100 DUP8 ADD DUP3 PUSH2 0x1418 JUMP JUMPDEST POP PUSH1 0x8 DUP5 ADD SLOAD SWAP1 POP PUSH2 0x2097 DUP2 PUSH2 0x1F75 JUMP JUMPDEST PUSH2 0x20A5 PUSH2 0x120 DUP8 ADD DUP3 PUSH2 0x144D JUMP JUMPDEST POP DUP2 SWAP3 POP POP POP SWAP3 SWAP2 POP POP JUMP JUMPDEST PUSH0 PUSH1 0x40 DUP3 ADD SWAP1 POP DUP2 DUP2 SUB PUSH0 DUP4 ADD MSTORE PUSH2 0x20C8 DUP2 PUSH2 0x1E05 JUMP JUMPDEST SWAP1 POP DUP2 DUP2 SUB PUSH1 0x20 DUP4 ADD MSTORE PUSH2 0x20DC DUP2 DUP5 PUSH2 0x1F8E JUMP JUMPDEST SWAP1 POP SWAP3 SWAP2 POP POP JUMP JUMPDEST PUSH32 0x4F6E6C7920636F6E7472616374206F776E65722063616E2063616C6C20746869 PUSH0 DUP3 ADD MSTORE PUSH32 0x732066756E6374696F6E00000000000000000000000000000000000000000000 PUSH1 0x20 DUP3 ADD MSTORE POP JUMP JUMPDEST PUSH0 PUSH2 0x213E PUSH1 0x2A DUP4 PUSH2 0x1A9B JUMP JUMPDEST SWAP2 POP PUSH2 0x2149 DUP3 PUSH2 0x20E4 JUMP JUMPDEST PUSH1 0x40 DUP3 ADD SWAP1 POP SWAP2 SWAP1 POP JUMP JUMPDEST PUSH0 PUSH1 0x20 DUP3 ADD SWAP1 POP DUP2 DUP2 SUB PUSH0 DUP4 ADD MSTORE PUSH2 0x216B DUP2 PUSH2 0x2132 JUMP JUMPDEST SWAP1 POP SWAP2 SWAP1 POP JUMP JUMPDEST PUSH0 PUSH1 0x20 PUSH1 0x1F DUP4 ADD DIV SWAP1 POP SWAP2 SWAP1 POP JUMP JUMPDEST PUSH0 DUP3 DUP3 SHL SWAP1 POP SWAP3 SWAP2 POP POP JUMP JUMPDEST PUSH0 PUSH1 0x8 DUP4 MUL PUSH2 0x21BC PUSH32 0xFFFFFFFFFFFFFFFFFFFFFFFFFFFFFFFFFFFFFFFFFFFFFFFFFFFFFFFFFFFFFFFF DUP3 PUSH2 0x2181 JUMP JUMPDEST PUSH2 0x21C6 DUP7 DUP4 PUSH2 0x2181 JUMP JUMPDEST SWAP6 POP DUP1 NOT DUP5 AND SWAP4 POP DUP1 DUP7 AND DUP5 OR SWAP3 POP POP POP SWAP4 SWAP3 POP POP POP JUMP JUMPDEST PUSH0 DUP2 SWAP1 POP SWAP2 SWAP1 POP JUMP JUMPDEST PUSH0 PUSH2 0x2201 PUSH2 0x21FC PUSH2 0x21F7 DUP5 PUSH2 0x140F JUMP JUMPDEST PUSH2 0x21DE JUMP JUMPDEST PUSH2 0x140F JUMP JUMPDEST SWAP1 POP SWAP2 SWAP1 POP JUMP JUMPDEST PUSH0 DUP2 SWAP1 POP SWAP2 SWAP1 POP JUMP JUMPDEST PUSH2 0x221A DUP4 PUSH2 0x21E7 JUMP JUMPDEST PUSH2 0x222E PUSH2 0x2226 DUP3 PUSH2 0x2208 JUMP JUMPDEST DUP5 DUP5 SLOAD PUSH2 0x218D JUMP JUMPDEST DUP3 SSTORE POP POP POP POP JUMP JUMPDEST PUSH0 SWAP1 JUMP JUMPDEST PUSH2 0x2242 PUSH2 0x2236 JUMP JUMPDEST PUSH2 0x224D DUP2 DUP5 DUP5 PUSH2 0x2211 JUMP JUMPDEST POP POP POP JUMP JUMPDEST JUMPDEST DUP2 DUP2 LT ISZERO PUSH2 0x2270 JUMPI PUSH2 0x2265 PUSH0 DUP3 PUSH2 0x223A JUMP JUMPDEST PUSH1 0x1 DUP2 ADD SWAP1 POP PUSH2 0x2253 JUMP JUMPDEST POP POP JUMP JUMPDEST PUSH1 0x1F DUP3 GT ISZERO PUSH2 0x22B5 JUMPI PUSH2 0x2286 DUP2 PUSH2 0x1E6A JUMP JUMPDEST PUSH2 0x228F DUP5 PUSH2 0x2172 JUMP JUMPDEST DUP2 ADD PUSH1 0x20 DUP6 LT ISZERO PUSH2 0x229E JUMPI DUP2 SWAP1 POP JUMPDEST PUSH2 0x22B2 PUSH2 0x22AA DUP6 PUSH2 0x2172 JUMP JUMPDEST DUP4 ADD DUP3 PUSH2 0x2252 JUMP JUMPDEST POP POP JUMPDEST POP POP POP JUMP JUMPDEST PUSH0 DUP3 DUP3 SHR SWAP1 POP SWAP3 SWAP2 POP POP JUMP JUMPDEST PUSH0 PUSH2 0x22D5 PUSH0 NOT DUP5 PUSH1 0x8 MUL PUSH2 0x22BA JUMP JUMPDEST NOT DUP1 DUP4 AND SWAP2 POP POP SWAP3 SWAP2 POP POP JUMP JUMPDEST PUSH0 PUSH2 0x22ED DUP4 DUP4 PUSH2 0x22C6 JUMP JUMPDEST SWAP2 POP DUP3 PUSH1 0x2 MUL DUP3 OR SWAP1 POP SWAP3 SWAP2 POP POP JUMP JUMPDEST PUSH2 0x2306 DUP3 PUSH2 0x1385 JUMP JUMPDEST PUSH8 0xFFFFFFFFFFFFFFFF DUP2 GT ISZERO PUSH2 0x231F JUMPI PUSH2 0x231E PUSH2 0x182C JUMP JUMPDEST JUMPDEST PUSH2 0x2329 DUP3 SLOAD PUSH2 0x1C22 JUMP JUMPDEST PUSH2 0x2334 DUP3 DUP3 DUP6 PUSH2 0x2274 JUMP JUMPDEST PUSH0 PUSH1 0x20 SWAP1 POP PUSH1 0x1F DUP4 GT PUSH1 0x1 DUP2 EQ PUSH2 0x2365 JUMPI PUSH0 DUP5 ISZERO PUSH2 0x2353 JUMPI DUP3 DUP8 ADD MLOAD SWAP1 POP JUMPDEST PUSH2 0x235D DUP6 DUP3 PUSH2 0x22E2 JUMP JUMPDEST DUP7 SSTORE POP PUSH2 0x23C4 JUMP JUMPDEST PUSH1 0x1F NOT DUP5 AND PUSH2 0x2373 DUP7 PUSH2 0x1E6A JUMP JUMPDEST PUSH0 JUMPDEST DUP3 DUP2 LT ISZERO PUSH2 0x239A JUMPI DUP5 DUP10 ADD MLOAD DUP3 SSTORE PUSH1 0x1 DUP3 ADD SWAP2 POP PUSH1 0x20 DUP6 ADD SWAP5 POP PUSH1 0x20 DUP2 ADD SWAP1 POP PUSH2 0x2375 JUMP JUMPDEST DUP7 DUP4 LT ISZERO PUSH2 0x23B7 JUMPI DUP5 DUP10 ADD MLOAD PUSH2 0x23B3 PUSH1 0x1F DUP10 AND DUP3 PUSH2 0x22C6 JUMP JUMPDEST DUP4 SSTORE POP JUMPDEST PUSH1 0x1 PUSH1 0x2 DUP9 MUL ADD DUP9 SSTORE POP POP POP JUMPDEST POP POP POP POP POP POP JUMP JUMPDEST PUSH32 0x50726F7065727479204C69737465640000000000000000000000000000000000 PUSH0 DUP3 ADD MSTORE POP JUMP JUMPDEST PUSH0 PUSH2 0x2400 PUSH1 0xF DUP4 PUSH2 0x1A9B JUMP JUMPDEST SWAP2 POP PUSH2 0x240B DUP3 PUSH2 0x23CC JUMP JUMPDEST PUSH1 0x20 DUP3 ADD SWAP1 POP SWAP2 SWAP1 POP JUMP JUMPDEST PUSH0 PUSH1 0x40 DUP3 ADD SWAP1 POP DUP2 DUP2 SUB PUSH0 DUP4 ADD MSTORE PUSH2 0x242D DUP2 PUSH2 0x23F4 JUMP JUMPDEST SWAP1 POP DUP2 DUP2 SUB PUSH1 0x20 DUP4 ADD MSTORE PUSH2 0x2441 DUP2 DUP5 PUSH2 0x1718 JUMP JUMPDEST SWAP1 POP SWAP3 SWAP2 POP POP JUMP INVALID LOG2 PUSH5 0x6970667358 0x22 SLT KECCAK256 SWAP3 JUMPI LT 0xBD 0xB9 PUSH17 0x3CCBC72384776DE5DB7C68FB937812B238 0x4E PUSH26 0xDF64421BF994BF64736F6C634300081800330000000000000000 "},"gasEstimates":{"creation":{"codeDepositCost":"1868600","executionCost":"26232","totalCost":"1894832"},"external":{"buyProperty(uint256)":"infinite","getAllProperties()":"infinite","getPropertyByIndex(uint256)":"infinite","getPropertyCount()":"2485","getPropertyOwner(uint256)":"7122","listProperty(string,string,string,uint256,uint8,uint8,string,uint256)":"infinite","owner()":"2575","properties(uint256)":"infinite","updatePropertyPrice(uint256,uint256)":"infinite","updatePropertyStatus(uint256,bool)":"31426"}},"methodIdentifiers":{"buyProperty(uint256)":"6fa830a6","getAllProperties()":"3d51402c","getPropertyByIndex(uint256)":"d41861b3","getPropertyCount()":"7326b901","getPropertyOwner(uint256)":"e34fc531","listProperty(string,string,string,uint256,uint8,uint8,string,uint256)":"ec50f185","owner()":"8da5cb5b","properties(uint256)":"f7b10808","updatePropertyPrice(uint256,uint256)":"fce401b2","updatePropertyStatus(uint256,bool)":"9c0c891f"}},"storageLayout":{"storage":[{"astId":29,"contract":"PropertyListing.sol:PropertyListing","label":"properties","offset":0,"slot":"0","type":"t_array(t_struct(PropertyDetails)22_storage)dyn_storage"},{"astId":31,"contract":"PropertyListing.sol:PropertyListing","label":"owner","offset":0,"slot":"1","type":"t_address"}],"types":{"t_address":{"encoding":"inplace","label":"address","numberOfBytes":"20"},"t_array(t_struct(PropertyDetails)22_storage)dyn_storage":{"base":"t_struct(PropertyDetails)22_storage","encoding":"dynamic_array","label":"struct PropertyDetails[]","numberOfBytes":"32"},"t_bool":{"encoding":"inplace","label":"bool","numberOfBytes":"1"},"t_string_storage":{"encoding":"bytes","label":"string","numberOfBytes":"32"},"t_struct(PropertyDetails)22_storage":{"encoding":"inplace","label":"struct PropertyDetails","members":[{"astId":3,"contract":"PropertyListing.sol:PropertyListing","label":"owner","offset":0,"slot":"0","type":"t_address"},{"astId":5,"contract":"PropertyListing.sol:PropertyListing","label":"title","offset":0,"slot":"1","type":"t_string_storage"},{"astId":7,"contract":"PropertyListing.sol:PropertyListing","label":"location","offset":0,"slot":"2","type":"t_string_storage"},{"astId":9,"contract":"PropertyListing.sol:PropertyListing","label":"propertyType","offset":0,"slot":"3","type":"t_string_storage"},{"astId":11,"contract":"PropertyListing.sol:PropertyListing","label":"size","offset":0,"slot":"4","type":"t_uint256"},{"astId":13,"contract":"PropertyListing.sol:PropertyListing","label":"bedrooms","offset":0,"slot":"5","type":"t_uint8"},{"astId":15,"contract":"PropertyListing.sol:PropertyListing","label":"bathrooms","offset":1,"slot":"5","type":"t_uint8"},{"astId":17,"contract":"PropertyListing.sol:PropertyListing","label":"description","offset":0,"slot":"6","type":"t_string_storage"},{"astId":19,"contract":"PropertyListing.sol:PropertyListing","label":"price","offset":0,"slot":"7","type":"t_uint256"},{"astId":21,"contract":"PropertyListing.sol:PropertyListing","label":"status","offset":0,"slot":"8","type":"t_bool"}],"numberOfBytes":"288"},"t_uint256":{"encoding":"inplace","label":"uint256","numberOfBytes":"32"},"t_uint8":{"encoding":"inplace","label":"uint8","numberOfBytes":"1"}}},"userdoc":{"kind":"user","methods":{},"version":1}}